:100000000C9446000C9465000C9465000C946500FB
:100010000C9465000C9465000C9465000C946500CC
:100020000C9465000C9465000C9465000C946500BC
:100030000C9465000C94DE000C9465000C94650033
:100040000C9465000C9465000C9465000C9465009C
:100050000C9465000C9465000C9465000C9465008C
:100060000C9465000C9465000C9465000C9465007C
:100070000C9465000C9465000C9465000C9465006C
:100080000C9465000C9465000C94650011241FBE4F
:10009000CFEFD0E4DEBFCDBF13E0A0E0B1E0E4E3FA
:1000A000F9E000E00BBF02C007900D92A236B10745
:1000B000D9F723E0A2E6B3E001C01D92A736B2074C
:1000C000E1F70E946E010C9498040C940000CF9309
:1000D000DF9300D01F92CDB7DEB789837B836A831D
:1000E00089818A3031F48A819B81BC018DE00E9434
:1000F000670080EC90E0FC018081882F90E08072A6
:100100009927892BB1F386EC90E02981FC012083AB
:1001100080E090E00F900F900F90DF91CF910895C5
:10012000CF93DF93CDB7DEB781E890E02BE0FC0101
:10013000208388E890E02DE730E0FC0131832083C4
:100140008FE690E022E0FC01208384E890E0FC014F
:100150001182108280910E0190910F01A0911001E7
:10016000B09111018093630390936403A09365039E
:10017000B09366038FE590E02FE530E0F901208130
:100180002068FC0120830000DF91CF910895CF9378
:10019000DF93CDB7DEB781E890E0FC01108200006C
:1001A000DF91CF910895CF93DF93CDB7DEB781E094
:1001B000809362030000DF91CF9108951F920F9208
:1001C00000905F000F92112400905B000F922F931C
:1001D0003F934F935F936F937F938F939F93AF93CF
:1001E000BF93EF93FF93CF93DF93CDB7DEB78091AB
:1001F000630390916403A0916503B0916603019736
:10020000A109B1098093630390936403A0936503EC
:10021000B09366038091630390916403A09165039A
:10022000B0916603892B8A2B8B2B91F40E94D3000B
:1002300080910E0190910F01A0911001B0911101D8
:100240008093630390936403A0936503B093660364
:100250000000DF91CF91FF91EF91BF91AF919F91FE
:100260008F917F916F915F914F913F912F910F905F
:1002700000925B000F9000925F000F901F90189506
:10028000CF93DF9300D000D0CDB7DEB769837A83F8
:100290008B839C8389819A81AB81BC8180930E0181
:1002A00090930F01A0931001B093110180910E0162
:1002B00090910F01A0911001B091110180936303FF
:1002C00090936403A0936503B093660300000F90BE
:1002D0000F900F900F90DF91CF910895CF93DF9300
:1002E000CDB7DEB784E290E02FEFFC01208385E2FA
:1002F00090E0FC0110820E94A6010E948E020E94E2
:10030000350380E40E94CA0180E80E94CA0160E0CF
:1003100070E082E593E00E94F30161E070E082E525
:1003200093E00E94F30160E070E082E593E00E94B8
:10033000F30161E070E082E593E00E94F30160E088
:1003400070E082E593E00E94F301FFCFCF93DF934B
:10035000CDB7DEB78CE490E021E5FC0120830000FE
:10036000DF91CF910895CF93DF931F92CDB7DEB782
:1003700089838EE490E02981FC01208300008DE4D4
:1003800090E0FC0180818823D4F700000F90DF917A
:10039000CF910895CF93DF931F92CDB7DEB78983B6
:1003A00085E290E025E230E0F90120812D7FFC011B
:1003B000208385E290E025E230E0F90120812F7E64
:1003C000FC01208389810E94B30185E290E025E24F
:1003D00030E0F90120812061FC01208300000F90B2
:1003E000DF91CF910895CF93DF93CDB7DEB72B97F1
:1003F0000FB6F894DEBF0FBECDBF998788877B8785
:100400006A871D8285E290E025E230E0F9012081D3
:100410002260FC01208385E290E025E230E0F901D2
:1004200020812F7EFC012083888599850E948F047E
:100430009F838E831A82198256C01C821B8249C0F8
:100440008A859B85892BF9F089819A812885398550
:10045000820F931FFC018081082E000C990B9C01D8
:1004600020523109C901880F991F820F931F880FED
:10047000991F2B813C81820F931F8E5E9E4FFC0142
:10048000808180951DC089819A8128853985820F58
:10049000931FFC018081082E000C990B9C012052B7
:1004A0003109C901880F991F820F931F880F991F67
:1004B0002B813C81820F931F8E5E9E4FFC018081B9
:1004C0008D838D810E94B3018B819C8101969C83D9
:1004D0008B838B819C8106970CF4B2CF89819A81A2
:1004E00001969A83898329813A818E819F81281779
:1004F00039070CF4A2CF85E290E025E230E0F90163
:1005000020812061FC01208300002B960FB6F89417
:10051000DEBF0FBECDBFDF91CF910895CF93DF93A4
:10052000CDB7DEB72E970FB6F894DEBF0FBECDBFA6
:1005300085E290E025E230E0F90120812E7FFC0188
:10054000208380E090E0ACEDB2E489839A83AB83B2
:10055000BC8320E030E04AE753E469817A818B81F3
:100560009C810E94FA03DC01CB018D839E83AF83C3
:10057000B88720E030E040E85FE36D817E818F81C5
:1005800098850E94740388232CF481E090E09A8778
:1005900089873FC020E03FEF4FE757E46D817E81C0
:1005A0008F8198850E94F50318164CF520E030E005
:1005B00040E251E469817A818B819C810E94FA0337
:1005C000DC01CB01BC01CD010E947903DC01CB0130
:1005D0009A8789870FC089E190E09C878B878B85FC
:1005E0009C850197F1F79C878B8789859A85019770
:1005F0009A87898789859A85892B69F714C06D81C7
:100600007E818F8198850E947903DC01CB019A87D6
:10061000898789859A859E878D878D859E85019797
:10062000F1F79E878D8785E290E025E230E0F901C1
:1006300020812160FC01208381E20E94CA0180ECBC
:100640000E94CA0183E10E94CA0180E20E94CA019D
:100650008CE00E94CA0100002E960FB6F894DEBF0F
:100660000FBECDBFDF91CF910895CF93DF9300D020
:10067000CDB7DEB785E290E025E230E0F9012081D8
:100680002F7EFC01208385E290E025E230E0F90135
:1006900020812260FC0120831A82198208C080E038
:1006A0000E94B30189819A8101969A838983898105
:1006B0009A81883F91409CF385E290E025E230E00A
:1006C000F90120812D7FFC01208385E290E025E265
:1006D00030E0F90120812061FC01208300000F90AF
:1006E0000F90DF91CF9108950E94A80308F481E054
:1006F00008950E94D40388F09F5798F0B92F992746
:10070000B751B0F0E1F0660F771F881F991F1AF0FC
:10071000BA95C9F714C0B13091F00E94EE03B1E070
:1007200008950C94EE03672F782F8827B85F39F06F
:10073000B93FCCF3869577956795B395D9F73EF495
:1007400090958095709561957F4F8F4F9F4F08953D
:10075000990F0008550FAA0BE0E8FEEF16161706D2
:10076000E807F907C0F012161306E407F50798F03A
:10077000621B730B840B950B39F40A2661F0232B53
:10078000242B252B21F408950A2609F4A140A695CF
:100790008FEF811D811D089557FD9058440F551FFF
:1007A00059F05F3F71F04795880F97FB991F61F0F3
:1007B0009F3F79F087950895121613061406551F6A
:1007C000F2CF4695F1DF08C0161617061806991FD6
:1007D000F1CF86957105610508940895E894BB27CB
:1007E00066277727CB0197F908950E94A80308F49C
:1007F0008FEF08950E940D040C947E040E947004F3
:1008000038F00E94770420F0952311F00C946704CF
:100810000C946D0411240C94EF030E94CC0370F32C
:10082000959FC1F3950F50E0551F629FF001729F95
:10083000BB27F00DB11D639FAA27F00DB11DAA1FA4
:10084000649F6627B00DA11D661F829F2227B00DF1
:10085000A11D621F739FB00DA11D621F839FA00D7C
:10086000611D221F749F3327A00D611D231F849FCC
:10087000600D211D822F762F6A2F11249F57504023
:100880009AF0F1F088234AF0EE0FFF1FBB1F661F9E
:10089000771F881F91505040A9F79E3F510580F067
:1008A0000C9467040C94EF035F3FE4F3983ED4F399
:1008B000869577956795B795F795E7959F5FC1F70B
:1008C000FE2B880F911D9695879597F9089597F9B6
:1008D0009F6780E870E060E008959FEF80EC0895E6
:1008E00000240A941616170618060906089500240F
:1008F0000A9412161306140605060895092E039489
:10090000000C11F4882352F0BB0F40F4BF2B11F4FC
:1009100060FF04C06F5F7F4F8F4F9F4F0895FC01B2
:1009200001900020E9F7809590958E0F9F1F089504
:04093000F894FFCF69
:100934000000000200000000670000000000010049
:10094400000000000000000000005F00000000073D
:1009540000070000147F147F1400242A7F2A120049
:100964002313086462003649552250000005030031
:100974000000001C224100000041221C0000140859
:100984003E08140008083E0808000050300000002B
:10099400080808080800006060000000201008042F
:1009A40002003E5149453E0000427F400000426142
:1009B400514946002141454B31001814127F100063
:1009C4002745454539003C4A49493000017109052C
:1009D4000300364949493600064949291E000036B4
:1009E40036000000005636000000081422410000C2
:1009F40014141414140000412214080002015109B3
:100A04000600324979413E007E1111117E007F4972
:100A1400494936003E41414122007F4141221C00A8
:100A24007F49494941007F09090901003E4149497B
:100A34007A007F0808087F0000417F4100002040C1
:100A4400413F01007F08142241007F4040404000A4
:100A54007F020C027F007F0408107F003E41414169
:100A64003E007F09090906003E4151215E007F09CD
:100A74001929460046494949310001017F01010015
:100A84003F4040403F001F2040201F003F4038406F
:100A94003F006314081463000708700807006151DD
:100AA40049454300007F4141000002040810200032
:100AB4000041417F00000402010204004040404024
:100AC40040000001020400002054545478007F4880
:100AD40044443800384444442000384444487F00A7
:100AE400385454541800087E090102000C52525222
:100AF4003E007F080404780000447D40000020404C
:100B0400443D00007F102844000000417F40000065
:100B14007C04180478007C080404780038444444B5
:100B240038007C1414140800081414187C007C0881
:100B340004040800485454542000043F4440200056
:100B44003C4040207C001C2040201C003C403040A5
:100B54003C004428102844000C5050503C0044648D
:100B6400544C440000083641000000007F0000009F
:100B74000041360800001008081008007846414675
:100B84007800312E2053746172742047616D6520A2
:020B940000005F
:00000001FF
