:100000000C9446000C9465000C9465000C946500FB
:100010000C9465000C9465000C9465000C946500CC
:100020000C9465000C9465000C9465000C946500BC
:100030000C9465000C94DE000C9465000C94650033
:100040000C9465000C9465000C9465000C9465009C
:100050000C9465000C9465000C9465000C9465008C
:100060000C9465000C9465000C9465000C9465007C
:100070000C9465000C9465000C9465000C9465006C
:100080000C9465000C9465000C94650011241FBE4F
:10009000CFEFD0E4DEBFCDBF13E0A0E0B1E0E0ECF5
:1000A000FCE000E00BBF02C007900D92A639B1073B
:1000B000D9F723E0A6E9B3E001C01D92A83AB20740
:1000C000E1F70E94FF030C945E060C940000CF93AE
:1000D000DF9300D01F92CDB7DEB789837B836A831D
:1000E00089818A3031F48A819B81BC018DE00E9434
:1000F000670080EC90E0FC018081882F90E08072A6
:100100009927892BB1F386EC90E02981FC012083AB
:1001100080E090E00F900F900F90DF91CF910895C5
:10012000CF93DF93CDB7DEB781E890E02BE0FC0101
:10013000208388E890E02DE730E0FC0131832083C4
:100140008FE690E022E0FC01208384E890E0FC014F
:100150001182108280910E0190910F01A0911001E7
:10016000B09111018093970390939803A093990302
:10017000B0939A038FE590E02FE530E0F9012081FC
:100180002068FC0120830000DF91CF910895CF9378
:10019000DF93CDB7DEB781E890E0FC01108200006C
:1001A000DF91CF910895CF93DF93CDB7DEB781E094
:1001B000809396030000DF91CF9108951F920F92D4
:1001C00000905F000F92112400905B000F922F931C
:1001D0003F934F935F936F937F938F939F93AF93CF
:1001E000BF93EF93FF93CF93DF93CDB7DEB78091AB
:1001F000970390919803A0919903B0919A03019766
:10020000A109B1098093970390939803A093990350
:10021000B0939A038091970390919803A0919903CA
:10022000B0919A03892B8A2B8B2B91F40E94D300D7
:1002300080910E0190910F01A0911001B0911101D8
:100240008093970390939803A0939903B0939A0394
:100250000000DF91CF91FF91EF91BF91AF919F91FE
:100260008F917F916F915F914F913F912F910F905F
:1002700000925B000F9000925F000F901F90189506
:10028000CF93DF9300D000D0CDB7DEB769837A83F8
:100290008B839C8389819A81AB81BC8180930E0181
:1002A00090930F01A0931001B093110180910E0162
:1002B00090910F01A0911001B091110180939703CB
:1002C00090939803A0939903B0939A0300000F9022
:1002D0000F900F900F90DF91CF910895CF93DF9300
:1002E000CDB7DEB78CE490E021E5FC01208300006F
:1002F000DF91CF910895CF93DF931F92CDB7DEB7F3
:1003000089838EE490E02981FC01208300008DE444
:1003100090E0FC0180818823D4F700000F90DF91EA
:10032000CF910895CF93DF931F92CDB7DEB7898326
:1003300085E290E025E230E0F90120812D7FFC018B
:10034000208385E290E025E230E0F90120812F7ED4
:10035000FC01208389810E947B0185E290E025E2F7
:1003600030E0F90120812061FC01208300000F9022
:10037000DF91CF910895CF93DF93CDB7DEB72B9761
:100380000FB6F894DEBF0FBECDBF998788877B87F5
:100390006A871D8285E290E025E230E0F901208144
:1003A0002260FC01208385E290E025E230E0F90143
:1003B00020812F7EFC012083888599850E94550627
:1003C0009F838E831A82198256C01C821B8249C069
:1003D0008A859B85892BF9F089819A8128853985C1
:1003E000820F931FFC018081082E000C990B9C0149
:1003F00020523109C901880F991F820F931F880F5E
:10040000991F2B813C81820F931F8D5E9E4FFC01B3
:10041000808180951DC089819A8128853985820FC8
:10042000931FFC018081082E000C990B9C01205227
:100430003109C901880F991F820F931F880F991FD7
:100440002B813C81820F931F8D5E9E4FFC0180812A
:100450008D838D810E947B018B819C8101969C8381
:100460008B838B819C8106970CF4B2CF89819A8112
:1004700001969A83898329813A818E819F812817E9
:1004800039070CF4A2CF85E290E025E230E0F901D3
:1004900020812061FC01208300002B960FB6F89488
:1004A000DEBF0FBECDBFDF91CF910895CF93DF9315
:1004B000CDB7DEB72E970FB6F894DEBF0FBECDBF17
:1004C00085E290E025E230E0F90120812E7FFC01F9
:1004D000208380E090E0ACEDB2E489839A83AB8323
:1004E000BC8320E030E04AE753E469817A818B8164
:1004F0009C810E94C005DC01CB018D839E83AF836C
:10050000B88720E030E040E85FE36D817E818F8135
:1005100098850E943A0588232CF481E090E09A8720
:1005200089873FC020E03FEF4FE757E46D817E8130
:100530008F8198850E94BB0518164CF520E030E0AD
:1005400040E251E469817A818B819C810E94C005DF
:10055000DC01CB01BC01CD010E943F05DC01CB01D8
:100560009A8789870FC089E190E09C878B878B856C
:100570009C850197F1F79C878B8789859A850197E0
:100580009A87898789859A85892B69F714C06D8137
:100590007E818F8198850E943F05DC01CB019A877F
:1005A000898789859A859E878D878D859E85019708
:1005B000F1F79E878D8785E290E025E230E0F90132
:1005C00020812160FC01208381E20E94920180EC65
:1005D0000E94920183E10E94920180E20E949201B6
:1005E0008CE00E94920100002E960FB6F894DEBFB8
:1005F0000FBECDBFDF91CF910895CF93DF9300D091
:10060000CDB7DEB785E290E025E230E0F901208148
:100610002F7EFC01208385E290E025E230E0F901A5
:1006200020812260FC0120831A82198208C080E0A8
:100630000E947B0189819A8101969A8389838981AD
:100640009A81883F91409CF385E290E025E230E07A
:10065000F90120812D7FFC01208385E290E025E2D5
:1006600030E0F90120812061FC01208300000F901F
:100670000F90DF91CF910895CF93DF9300D0CDB746
:10068000DEB79A83898389819A8182309105E1F16D
:10069000833091052CF4009779F0019791F05BC0BD
:1006A0008430910509F442C0843091050CF450C0A7
:1006B000059709F44FC04FC081E090E09A83898389
:1006C0004AC089E290E0FC018081882F90E081702F
:1006D0009927892B29F482E090E09A8389833BC093
:1006E00089E290E0FC018081882F90E08270992758
:1006F000892B29F484E090E09A8389832CC081E0DF
:1007000090E09A83898327C089E290E0FC01808190
:10071000882F90E081709927892B19F482E090E06E
:1007200002C083E090E09A83898315C089E290E05B
:10073000FC018081882F90E082709927892B19F421
:1007400084E090E002C085E090E09A83898303C052
:10075000000001C0000089819A818230910509F46E
:1007600040C08330910534F4009709F43CC00197F0
:10077000E1F13EC084309105D1F1843091051CF047
:100780000597C1F035C080E40E94920180E80E9484
:10079000920161E070E083E593E00E94BB0160E0BC
:1007A00070E082E693E00E94BB0181E090E09A83D2
:1007B00089831EC080E40E94920180E80E94920119
:1007C00060E070E083E593E00E94BB0161E070E0CF
:1007D00082E693E00E94BB0181E090E09A838983E6
:1007E00007C0000005C0000003C0000001C00000F9
:1007F00089819A810F900F90DF91CF9108950F9387
:100800001F93CF93DF9300D000D000D0CDB7DEB7D9
:1008100084E290E02FEFFC01208385E290E0FC0170
:1008200010828AE290E0FC0110828BE290E02FEFD0
:10083000FC0120838DE993E09E838D8381E090E02D
:100840009C838B8310929D0382E390E0A0E0B0E054
:1008500080939E0390939F03A093A003B093A10362
:1008600080919E0390919F03A091A003B091A1035A
:100870008093A2039093A303A093A403B093A50332
:100880008CE393E09093A7038093A6030E946E01EC
:100890000E9456020E94020562E370E080E090E050
:1008A0000E9440010E9490001A821982A2C0898190
:1008B0009A81880F991F9E012F5F3F4F820F931FD0
:1008C0000496FC0180819181FC012581368147815C
:1008D000508589819A81880F991FBE016F5F7F4F74
:1008E000860F971F0496FC0180819181FC01818114
:1008F0009281A381B481281739074A075B0708F45E
:1009000045C089819A81880F991F9E012F5F3F4FB3
:10091000820F931F0496FC010081118189819A81C5
:10092000880F991F9E012F5F3F4F820F931F0496E0
:10093000FC0180819181FC012185328589819A8128
:10094000880F991FAE014F5F5F4F840F951F04966C
:10095000FC0180819181FC018081082E000C990BA3
:10096000F9010995F801808389819A81880F991F7F
:100970009E012F5F3F4F820F931F0496FC018081E1
:100980009181FC01158216821782108689819A81D5
:10099000880F991F9E012F5F3F4F820F931F049670
:1009A000FC012081318189819A81880F991FAE01D4
:1009B0004F5F5F4F840F951F0496FC0180819181EA
:1009C000FC0185819681A781B085C296A11DB11DCC
:1009D000F90185839683A783B087000080919603F1
:1009E0008823E1F31092960389819A8101969A8374
:1009F000898329813A818B819C812817390708F4E2
:100A000056CF52CFCF93DF93CDB7DEB70E94FD0212
:100A100080E40E94920180E80E94920161E070E00F
:100A200083E593E00E94BB0160E070E081E793E022
:100A30000E94BB010000DF91CF910895CF93DF9317
:100A4000CDB7DEB70E94FD0280E40E94920180E8EB
:100A50000E94920160E070E081E893E00E94BB0197
:100A600060E070E08AE893E00E94BB010000DF9143
:100A7000CF9108950E946E0508F481E008950E94C8
:100A80009A0588F09F5798F0B92F9927B751B0F081
:100A9000E1F0660F771F881F991F1AF0BA95C9F702
:100AA00014C0B13091F00E94B405B1E008950C94E7
:100AB000B405672F782F8827B85F39F0B93FCCF39A
:100AC000869577956795B395D9F73EF4909580957F
:100AD000709561957F4F8F4F9F4F0895990F000834
:100AE000550FAA0BE0E8FEEF16161706E807F90700
:100AF000C0F012161306E407F50798F0621B730B9B
:100B0000840B950B39F40A2661F0232B242B252B1B
:100B100021F408950A2609F4A140A6958FEF811DBE
:100B2000811D089557FD9058440F551F59F05F3FA0
:100B300071F04795880F97FB991F61F09F3F79F0FF
:100B400087950895121613061406551FF2CF469581
:100B5000F1DF08C0161617061806991FF1CF869503
:100B60007105610508940895E894BB2766277727E7
:100B7000CB0197F908950E946E0508F48FEF089550
:100B80000E94D3050C9444060E94360638F00E9459
:100B90003D0620F0952311F00C942D060C9433069D
:100BA00011240C94B5050E94920570F3959FC1F332
:100BB000950F50E0551F629FF001729FBB27F00D0B
:100BC000B11D639FAA27F00DB11DAA1F649F662760
:100BD000B00DA11D661F829F2227B00DA11D621FAF
:100BE000739FB00DA11D621F839FA00D611D221F69
:100BF000749F3327A00D611D231F849F600D211D4D
:100C0000822F762F6A2F11249F5750409AF0F1F0CF
:100C100088234AF0EE0FFF1FBB1F661F771F881F38
:100C200091505040A9F79E3F510580F00C942D063D
:100C30000C94B5055F3FE4F3983ED4F38695779521
:100C40006795B795F795E7959F5FC1F7FE2B880FDE
:100C5000911D9695879597F9089597F99F6780E874
:100C600070E060E008959FEF80EC089500240A94FE
:100C70001616170618060906089500240A94121677
:100C80001306140605060895092E0394000C11F4AA
:100C9000882352F0BB0F40F4BF2B11F460FF04C057
:100CA0006F5F7F4F8F4F9F4F0895FC010190002091
:100CB000E9F7809590958E0F9F1F0895F894FFCFC8
:100CC00000000002000000006700000000000100BA
:100CD00000000100000000000000005F00000000B4
:100CE0000700070000147F147F1400242A7F2A12B3
:100CF00000231308646200364955225000000503A2
:100D0000000000001C224100000041221C000014D1
:100D1000083E08140008083E080800005030000093
:100D200000080808080800006060000000201008A3
:100D30000402003E5149453E0000427F400000420F
:100D400061514946002141454B31001814127F1072
:100D5000002745454539003C4A49493000017109A1
:100D6000050300364949493600064949291E000055
:100D700036360000000056360000000814224100FC
:100D8000001414141414000041221408000201512C
:100D9000090600324979413E007E1111117E007F23
:100DA00049494936003E41414122007F4141221CD0
:100DB000007F49494941007F09090901003E414935
:100DC000497A007F0808087F0000417F4100002029
:100DD00040413F01007F08142241007F40404040D5
:100DE000007F020C027F007F0408107F003E41411B
:100DF000413E007F09090906003E4151215E007F06
:100E0000091929460046494949310001017F01017C
:100E1000003F4040403F001F2040201F003F40381F
:100E2000403F00631408146300070870080700615E
:100E30005149454300007F41410000020408102051
:100E4000000041417F0000040201020400404040D4
:100E50004040000001020400002054545478007FF8
:100E60004844443800384444442000384444487FCF
:100E700000385454541800087E090102000C5252E4
:100E8000523E007F080404780000447D40000020AA
:100E900040443D00007F102844000000417F400096
:100EA000007C04180478007C08040478003844446A
:100EB0004438007C1414140800081414187C007CB6
:100EC0000804040800485454542000043F444020BF
:100ED000003C4040207C001C2040201C003C403056
:100EE000403C004428102844000C5050503C004422
:100EF00064544C440000083641000000007F0000AC
:100F0000000041360800001008081008007846412B
:100F1000467800312E2053746172742047616D65EC
:100F20002000312E204C696768742053686F772049
:100F300000312E204C696768742053686F77202039
:100F400000312E204C564C312000312E2053636F3F
:060F500072653A20310039
:00000001FF
