:100000000C9446000C9465000C9465000C946500FB
:100010000C9465000C9465000C9465000C946500CC
:100020000C9465000C9465000C9465000C946500BC
:100030000C9465000C940C020C9465000C94650003
:100040000C9465000C9465000C9465000C9465009C
:100050000C9465000C9465000C9465000C9465008C
:100060000C9465000C9465000C9465000C9465007C
:100070000C9465000C9465000C9465000C9465006C
:100080000C9465000C9465000C94650011241FBE4F
:10009000CFEFD0E4DEBFCDBF11E0A0E0B1E0EAECED
:1000A000F8E000E00BBF02C007900D92A032B1074C
:1000B000D9F721E0A0E2B1E001C01D92A932B20758
:1000C000E1F70E9423040C9463040C940000CF9386
:1000D000DF93CDB7DEB781E00E948E000000DF9194
:1000E000CF910895CF93DF93CDB7DEB784E690E04C
:1000F0000E94650188E30E948E0086E00E948E00C7
:100100008FE00E948E0081E00E948E008AE090E0E5
:100110000E9465010000DF91CF910895CF93DF9396
:100120001F92CDB7DEB789838BE290E02BE230E0FF
:10013000F90120812F7BFC01208388E290E0298156
:10014000FC0120838BE290E02BE230E0F90120817A
:100150002068FC01208300008BE290E02BE230E07D
:10016000F90120812F77FC01208382E090E00E943A
:10017000650100000F90DF91CF910895CF93DF9339
:100180001F92CDB7DEB789838BE290E02BE230E09F
:10019000F90120812064FC01208388E290E029811C
:1001A000FC0120838BE290E02BE230E0F90120811A
:1001B0002068FC01208300008BE290E02BE230E01D
:1001C000F90120812F77FC01208381E090E00E94DB
:1001D000650100000F90DF91CF910895CF93DF93D9
:1001E0001F92CDB7DEB7898381E00E944E018BE27A
:1001F00090E02BE230E0F90120812064FC012083B3
:1002000088E290E02981FC0120838BE290E02BE2E0
:1002100030E0F90120812068FC01208300008BE29E
:1002200090E02BE230E0F90120812F77FC01208360
:1002300081E090E00E94650100000F90DF91CF9176
:100240000895CF93DF9300D000D0CDB7DEB78A8377
:100250007C836B830E9467008A81898311C08981B6
:1002600091E0980F99830E944E018B819C819C01A3
:100270002F5F3F4F3C832B83FC0180810E94BE0097
:100280008B819C81FC018081882349F700000F90BD
:100290000F900F900F90DF91CF910895CF93DF9340
:1002A0001F92CDB7DEB789838981813128F4898196
:1002B00081580E948E0004C0898181550E948E0061
:1002C00000000F90DF91CF910895CF93DF9300D07E
:1002D00000D000D0CDB7DEB79E838D831A821982FD
:1002E00013C01C821B8206C000008B819C8101967A
:1002F0009C838B838B819C8187309340ACF3898175
:100300009A8101969A83898329813A818D819E8180
:100310002817390734F3000026960FB6F894DEBF8D
:100320000FBECDBFDF91CF910895CF93DF9300D063
:100330001F92CDB7DEB789837B836A8389818A3038
:1003400031F48A819B81BC018DE00E94950180EC93
:1003500090E0FC018081882F90E080729927892BA2
:10036000B1F386EC90E02981FC01208380E090E0ED
:100370000F900F900F90DF91CF910895CF93DF935F
:10038000CDB7DEB781E890E02BE0FC01208388E860
:1003900090E02DE730E0FC01318320838FE690E090
:1003A00022E0FC01208384E890E0FC0111821082AD
:1003B0008091130190911401A0911501B091160143
:1003C0008093210190932201A0932301B0932401F3
:1003D0008FE590E02FE530E0F90120812068FC01F5
:1003E00020830000DF91CF910895CF93DF93CDB7A5
:1003F000DEB781E890E0FC0110820000DF91CF9130
:100400000895CF93DF93CDB7DEB781E080932001CD
:100410000000DF91CF9108951F920F9200905F002E
:100420000F92112400905B000F922F933F934F93F4
:100430005F936F937F938F939F93AF93BF93EF934C
:10044000FF93CF93DF93CDB7DEB7809121019091D9
:100450002201A0912301B09124010197A109B109C2
:100460008093210190932201A0932301B093240152
:100470008091210190912201A0912301B09124014A
:10048000892B8A2B8B2B91F40E94010280911301FE
:1004900090911401A0911501B09116018093210152
:1004A00090932201A0932301B09324010000DF91D7
:1004B000CF91FF91EF91BF91AF919F918F917F91DC
:1004C0006F915F914F913F912F910F9000925B0040
:1004D0000F9000925F000F901F901895CF93DF93BD
:1004E00000D000D0CDB7DEB769837A838B839C833D
:1004F00089819A81AB81BC8180931301909314010F
:10050000A0931501B09316018091130190911401ED
:10051000A0911501B09116018093210190932201C1
:10052000A0932301B093240100000F900F900F902F
:100530000F90DF91CF910895CF93DF931F92CDB7A6
:10054000DEB7198280E290E0FC0180818983898195
:1005500080958983809126019091270181309105B2
:10056000C9F08130910530F08230910541F1039757
:10057000D9F15BC081E090E0909327018093260140
:100580001092280185E290E0FC01108285E08093C2
:10059000250150C08981882F90E081709927892B8F
:1005A00039F082E090E0909327018093260142C0C9
:1005B00081E090E090932701809326013BC08981E0
:1005C000882F90E081709927892B39F082E090E0A4
:1005D00090932701809326012DC083E090E09093B3
:1005E00027018093260126C08981882F90E08170A1
:1005F0009927892B99F08981882F90E0817099271C
:10060000892B39F080911201893019F485E08093AB
:10061000120110922701109226010CC083E090E095
:10062000909327018093260105C010922701109214
:1006300026010000809126019091270181309105CB
:1006400059F08130910508F454C08230910549F188
:10065000039709F450C050C080912801833079F489
:1006600085E290E020912801222F30E0225F3E4F6A
:10067000F9012081FC012083109228013DC085E210
:1006800090E020912801222F30E0225F3E4FF901B7
:100690002081FC012083809128018F5F80932801B5
:1006A0002BC082E090E0909327018093260185E2A1
:1006B00090E020912801222F30E0225F3E4FF90187
:1006C0002081FC01208380912801882F90E0825FA7
:1006D0009E4FFC018081823031F4809112018F5F46
:1006E0008093120109C08091120181508093120100
:1006F00003C0000001C0000080911201882369F44A
:1007000067E171E081E00E94210180911201882F50
:1007100090E0C0960E94EE0091C08091120181305D
:1007200069F467E171E081E00E942101809112018A
:10073000882F90E0C0960E94EE0080C08091120148
:10074000823069F467E171E081E00E9421018091CB
:100750001201882F90E0C0960E94EE006FC0809139
:100760001201833069F467E171E081E00E942101A8
:1007700080911201882F90E0C0960E94EE005EC02A
:1007800080911201843069F467E171E081E00E9498
:10079000210180911201882F90E0C0960E94EE0006
:1007A0004DC080911201853069F467E171E081E00C
:1007B0000E94210180911201882F90E0C0960E9432
:1007C000EE003CC080911201863069F467E171E06F
:1007D00081E00E94210180911201882F90E0C09653
:1007E0000E94EE002BC080911201873069F467E10E
:1007F00071E081E00E94210180911201882F90E038
:10080000C0960E94EE001AC080911201883069F4EF
:1008100067E171E081E00E94210180911201882F3F
:1008200090E0C0960E94EE0009C0809112018930CC
:1008300029F468E171E081E00E94210100000F903D
:10084000DF91CF910895CF93DF93CDB7DEB781E2EB
:1008500090E0FC01108282E290E02FEFFC01208307
:1008600084E290E02FEFFC01208385E290E0FC0120
:10087000108287E290E02FEFFC01208388E290E075
:10088000FC0110828AE290E02FEFFC0120838BE2D2
:1008900090E0FC0110826CE271E080E090E00E9448
:1008A0006E020E94BE010E94720085E390E00E94E9
:1008B000EE000E949C020000809120018823E1F359
:0A08C00010922001F6CFF894FFCF4C
:1008CA000000000200000000950100000000010283
:1008DA000402050100000000564943544F525900D2
:00000001FF
