:100000000C9446000C9465000C9465000C946500FB
:100010000C9465000C9465000C9465000C946500CC
:100020000C9465000C9465000C9465000C946500BC
:100030000C9465000C94DE000C9465000C94650033
:100040000C9465000C9465000C9465000C9465009C
:100050000C9465000C9465000C9465000C9465008C
:100060000C9465000C9465000C9465000C9465007C
:100070000C9465000C9465000C9465000C9465006C
:100080000C9465000C9465000C94650011241FBE4F
:10009000CFEFD0E4DEBFCDBF11E0A0E0B1E0E0E5FE
:1000A000FCE000E00BBF02C007900D92A433B10743
:1000B000D9F721E0A4E3B1E001C01D92A834B20752
:1000C000E1F70E941F050C9426060C940000CF93C4
:1000D000DF9300D01F92CDB7DEB789837B836A831D
:1000E00089818A3031F48A819B81BC018DE00E9434
:1000F000670080EC90E0FC018081882F90E08072A6
:100100009927892BB1F386EC90E02981FC012083AB
:1001100080E090E00F900F900F90DF91CF910895C5
:10012000CF93DF93CDB7DEB781E890E02BE0FC0101
:10013000208388E890E02DE730E0FC0131832083C4
:100140008FE690E022E0FC01208384E890E0FC014F
:100150001182108280910E0190910F01A0911001E7
:10016000B09111018093350190933601A09337012E
:10017000B09338018FE590E02FE530E0F901208160
:100180002068FC0120830000DF91CF910895CF9378
:10019000DF93CDB7DEB781E890E0FC01108200006C
:1001A000DF91CF910895CF93DF93CDB7DEB781E094
:1001B000809334010000DF91CF9108951F920F9238
:1001C00000905F000F92112400905B000F922F931C
:1001D0003F934F935F936F937F938F939F93AF93CF
:1001E000BF93EF93FF93CF93DF93CDB7DEB78091AB
:1001F000350190913601A0913701B09138010197F6
:10020000A109B1098093350190933601A09337017C
:10021000B09338018091350190913601A09137015A
:10022000B0913801892B8A2B8B2B91F40E94D3003B
:1002300080910E0190910F01A0911001B0911101D8
:100240008093350190933601A0933701B093380124
:100250000000DF91CF91FF91EF91BF91AF919F91FE
:100260008F917F916F915F914F913F912F910F905F
:1002700000925B000F9000925F000F901F90189506
:10028000CF93DF9300D000D0CDB7DEB769837A83F8
:100290008B839C8389819A81AB81BC8180930E0181
:1002A00090930F01A0931001B093110180910E0162
:1002B00090910F01A0911001B0911101809335012F
:1002C00090933601A0933701B093380100000F904E
:1002D0000F900F900F90DF91CF910895CF93DF9300
:1002E000CDB7DEB78CE790E020E4FC0120838AE7FD
:1002F00090E027E8FC0120830000DF91CF91089572
:10030000CF93DF931F92CDB7DEB789830E946E0132
:100310008981817089838CE790E02CE730E0F901D6
:1003200030812981232BFC0120838AE790E02AE792
:1003300030E0F90120812064FC01208300008AE77D
:1003400090E0FC018081882F90E080749927892BB0
:10035000B1F788E790E0FC01808191810F90DF91F7
:10036000CF910895CF93DF9300D000D0CDB7DEB703
:100370009A8389837C836B8389819A818D329140B2
:1003800008F43FC089819A8188359240D0F58B81ED
:100390009C8181329340A8F180913A018330B1F47D
:1003A00080913901282F30E080913A01882F90E028
:1003B000220F331F220F331F820F931F880F991FA5
:1003C0008E5E9E4FFC018081918127C280913A010F
:1003D0008F5F80933A0180913901282F30E080911E
:1003E0003A01882F90E0220F331F220F331F820F14
:1003F000931F880F991F8E5E9E4FFC018081918113
:100400000CC289819A818D35924008F444C08B8159
:100410009C818D3B924008F43EC08091390183302D
:1004200021F080913A018330B1F480913901282F75
:1004300030E080913A01882F90E0220F331F220F85
:10044000331F820F931F880F991F8E5E9E4FFC01F2
:1004500080819181E2C1809139018F5F8093390160
:1004600080913A018F5F80933A0180913901282F62
:1004700030E080913A01882F90E0220F331F220F45
:10048000331F820F931F880F991F8E5E9E4FFC01B2
:1004900080819181C2C189819A818132934008F41F
:1004A0003FC08B819C818D329140D0F18B819C81AA
:1004B00088359240A8F5809139018330B1F480915C
:1004C0003901282F30E080913A01882F90E0220FE7
:1004D000331F220F331F820F931F880F991F8E5EC9
:1004E0009E4FFC018081918198C1809139018F5F7D
:1004F0008093390180913901282F30E080913A01B1
:10050000882F90E0220F331F220F331F820F931F7B
:10051000880F991F8E5E9E4FFC01808191817DC165
:1005200089819A818132934008F444C08B819C81F7
:10053000883C910508F03EC080913901833021F05C
:1005400080913A018823B1F480913901282F30E05D
:1005500080913A01882F90E0220F331F220F331F22
:10056000820F931F880F991F8E5E9E4FFC01808122
:10057000918153C1809139018F5F809339018091BE
:100580003A01815080933A0180913901282F30E05F
:1005900080913A01882F90E0220F331F220F331FE2
:1005A000820F931F880F991F8E5E9E4FFC018081E2
:1005B000918133C189819A818D32914008F43FC085
:1005C00089819A8188359240D0F58B819C81883CC5
:1005D0009105A8F580913A018823B1F48091390101
:1005E000282F30E080913A01882F90E0220F331FAE
:1005F000220F331F820F931F880F991F8E5E9E4F0D
:10060000FC018081918109C180913A0181508093E0
:100610003A0180913901282F30E080913A01882FEA
:1006200090E0220F331F220F331F820F931F880F7A
:10063000991F8E5E9E4FFC0180819181EEC0898161
:100640009A81883C910508F044C08B819C81883C4C
:10065000910508F03EC080913901882321F08091F6
:100660003A018823B1F480913901282F30E080913C
:100670003A01882F90E0220F331F220F331F820F81
:10068000931F880F991F8E5E9E4FFC018081918180
:10069000C4C08091390181508093390180913A0121
:1006A000815080933A0180913901282F30E0809168
:1006B0003A01882F90E0220F331F220F331F820F41
:1006C000931F880F991F8E5E9E4FFC018081918140
:1006D000A4C089819A81883C910508F03FC08B8134
:1006E0009C818D329140D0F18B819C8188359240E4
:1006F000A8F5809139018823B1F480913901282F20
:1007000030E080913A01882F90E0220F331F220FB2
:10071000331F820F931F880F991F8E5E9E4FFC011F
:10072000808191817AC08091390181508093390113
:1007300080913901282F30E080913A01882F90E094
:10074000220F331F220F331F820F931F880F991F11
:100750008E5E9E4FFC01808191815FC089819A816C
:10076000883C910508F044C08B819C818132934084
:1007700008F43EC080913901882321F080913A012C
:100780008330B1F480913901282F30E080913A0113
:10079000882F90E0220F331F220F331F820F931FE9
:1007A000880F991F8E5E9E4FFC018081918135C01C
:1007B0008091390181508093390180913A018F5F96
:1007C00080933A0180913901282F30E080913A01DD
:1007D000882F90E0220F331F220F331F820F931FA9
:1007E000880F991F8E5E9E4FFC018081918115C0FC
:1007F00080913901282F30E080913A01882F90E0D4
:10080000220F331F220F331F820F931F880F991F50
:100810008E5E9E4FFC01808191810F900F900F9012
:100820000F90DF91CF910895CF93DF93CDB7DEB7CF
:100830002C970FB6F894DEBF0FBECDBF9C878B8779
:1008400080E00E9480019E838D8381E00E94800170
:1008500098878F832F8138858D819E81B9010E9471
:10086000B20190933C0180933B018B859C85813044
:10087000910589F0823091051CF4892B39F033C041
:100880008230910559F1039759F12DC081E090E034
:100890009C878B8728C02091320130913301809151
:1008A0003B0190913C012817390729F481E090E041
:1008B0009C878B8704C082E090E09C878B8789E2CD
:1008C00090E0FC018081882F90E081709927892B2E
:1008D00049F483E090E09C878B8704C0000003C04C
:1008E000000001C000008B859C858130910509F4D2
:1008F00098C08230910524F4892B09F494C094C0E7
:100900008230910521F0039709F449C08DC088E237
:1009100090E0FC0110821A82198227C088E290E0E0
:1009200028E0FC01208388E290E028E230E0F90131
:10093000408120913B0130913C01098002C03695F5
:1009400027950A94E2F72170242BFC01208388E28A
:1009500090E028E230E0F90120812260FC01208350
:1009600089819A8101969A83898389819A810897DE
:10097000ACF288E290E028E230E0F90120812460C6
:10098000FC01208380913B0190913C0190933301C5
:100990008093320181E090E09C878B8745C086E997
:1009A00090E09A87898788E290E0FC0110821C829F
:1009B0001B8225C088E290E028E0FC01208388E2C9
:1009C00090E028E230E0F901408129853A850B80EA
:1009D00002C0369527950A94E2F72170242BFC017A
:1009E000208388E290E028E230E0F9012081226053
:1009F000FC0120838B819C8101969C838B838B815E
:100A00009C810897BCF288E290E028E230E0F9018E
:100A100020812460FC01208381E090E09C878B870B
:100A200003C0000001C000008B859C852C960FB68A
:100A3000F894DEBF0FBECDBFDF91CF9108950F9325
:100A40001F93CF93DF9300D000D000D0CDB7DEB797
:100A500081E290E0FC01108282E290E02FEFFC0145
:100A6000208387E290E02FE0FC01208388E290E081
:100A700020EFFC0120838AE290E0FC0110828BE2EF
:100A800090E02FEFFC0120838DE391E09E838D8326
:100A900081E090E09C838B8310923D0186E990E099
:100AA000A0E0B0E080933E0190933F01A09340010D
:100AB000B093410180913E0190913F01A09140018E
:100AC000B09141018093420190934301A09344016E
:100AD000B093450184E194E09093470180934601EF
:100AE00062E370E080E090E00E9440010E9490008C
:100AF0001A821982A2C089819A81880F991F9E014A
:100B00002F5F3F4F820F931F0496FC0180819181DC
:100B1000FC01258136814781508589819A81880F22
:100B2000991FBE016F5F7F4F860F971F0496FC01D0
:100B300080819181FC0181819281A381B4812817F8
:100B400039074A075B0708F445C089819A81880FF5
:100B5000991F9E012F5F3F4F820F931F0496FC0148
:100B60000081118189819A81880F991F9E012F5FD1
:100B70003F4F820F931F0496FC0180819181FC01FD
:100B80002185328589819A81880F991FAE014F5F37
:100B90005F4F840F951F0496FC0180819181FC01B9
:100BA0008081082E000C990BF9010995F8018083CA
:100BB00089819A81880F991F9E012F5F3F4F820F75
:100BC000931F0496FC0180819181FC01158216829D
:100BD0001782108689819A81880F991F9E012F5F45
:100BE0003F4F820F931F0496FC0120813181898140
:100BF0009A81880F991FAE014F5F5F4F840F951F39
:100C00000496FC0180819181FC0185819681A781F8
:100C1000B085C296A11DB11DF90185839683A78376
:100C2000B0870000809134018823E1F310923401F1
:100C300089819A8101969A83898329813A818B815E
:100C40009C812817390708F456CF52CFF894FFCF6C
:100C5000000000020000000067000000000001002A
:100C6000000087008B008D008E0047004B004D0078
:100C70004E0027002B002D002E0017001B001D002A
:040C80001E009600BC
:00000001FF
