:100000000C946A000C9489000C9489000C9489006B
:100010000C9489000C9489000C9489000C9489003C
:100020000C9489000C9489000C9489000C9489002C
:100030000C9489000C9402010C9489000C948900A2
:100040000C9489000C9489000C9489000C9489000C
:100050000C9489000C9489000C9489000C948900FC
:100060000C9489000C9489000C9489000C948900EC
:100070000C9489000C9489000C9489000C948900DC
:100080000C9489000C9489000C9489006F07740704
:10009000AB07E307BD07E307CF07E30740084008C6
:1000A0004008FB074008120840082908690876083C
:1000B0000C090C0984080C0998080C090C090C0996
:1000C000C20AC20A2409AB09C20A860AC20AC20AC3
:1000D000AE0A9A0A11241FBECFEFD0E4DEBFCDBF17
:1000E00014E0A0E0B1E0E8E0FFE100E00BBF02C0F7
:1000F00007900D92A637B107D9F724E0A6E7B4E040
:1001000001C01D92AE3DB207E1F70E94DA0A0C94DD
:10011000820F0C940000CF93DF9300D01F92CDB7D5
:10012000DEB789837B836A8389818A3031F48A814F
:100130009B81BC018DE00E948B0080EC90E0FC0173
:100140008081882F90E080729927892BB1F386EC0B
:1001500090E02981FC01208380E090E00F900F90D7
:100160000F90DF91CF910895CF93DF93CDB7DEB796
:1001700081E890E02BE0FC01208388E890E02DE707
:1001800030E0FC01318320838FE690E022E0FC0127
:10019000208384E890E0FC011182108280910E019E
:1001A00090910F01A0911001B091110180937704FB
:1001B00090937804A0937904B0937A048FE590E04B
:1001C0002FE530E0F90120812068FC012083000048
:1001D000DF91CF910895CF93DF93CDB7DEB781E85C
:1001E00090E0FC0110820000DF91CF910895CF9341
:1001F000DF93CDB7DEB781E0809376040000DF9116
:10020000CF9108951F920F9200905F000F921124DA
:1002100000905B000F922F933F934F935F936F93E8
:100220007F938F939F93AF93BF93EF93FF93CF935E
:10023000DF93CDB7DEB78091770490917804A091D9
:100240007904B0917A040197A109B10980937704E8
:1002500090937804A0937904B0937A048091770402
:1002600090917804A0917904B0917A04892B8A2B1B
:100270008B2B91F40E94F70080910E0190910F0159
:10028000A0911001B09111018093770490937804AC
:10029000A0937904B0937A040000DF91CF91FF918D
:1002A000EF91BF91AF919F918F917F916F915F91EE
:1002B0004F913F912F910F9000925B000F90009211
:1002C0005F000F901F901895CF93DF9300D000D060
:1002D000CDB7DEB769837A838B839C8389819A81CA
:1002E000AB81BC8180930E0190930F01A09310010C
:1002F000B093110180910E0190910F01A091100116
:10030000B09111018093770490937804A0937904BD
:10031000B0937A0400000F900F900F900F90DF9130
:10032000CF910895CF93DF93CDB7DEB78CE490E003
:1003300021E5FC0120830000DF91CF910895CF9348
:10034000DF931F92CDB7DEB789838EE490E02981D9
:10035000FC01208300008DE490E0FC018081882373
:10036000D4F700000F90DF91CF910895CF93DF93E2
:100370001F92CDB7DEB7898385E290E025E230E0B9
:10038000F90120812D7FFC01208385E290E025E2A8
:1003900030E0F90120812F7EFC01208389810E94B9
:1003A0009F0185E290E025E230E0F90120812061A3
:1003B000FC01208300000F90DF91CF910895CF932F
:1003C000DF93CDB7DEB72B970FB6F894DEBF0FBE25
:1003D000CDBF998788877B876A871D8285E290E0F9
:1003E00025E230E0F90120812260FC01208385E2D2
:1003F00090E025E230E0F90120812F7EFC0120838E
:10040000888599850E94160F9F838E831A82198290
:1004100056C01C821B8249C08A859B85892BF9F0B6
:1004200089819A8128853985820F931FFC018081FB
:10043000082E000C990B9C0120523109C901880F2C
:10044000991F820F931F880F991F2B813C81820F68
:10045000931F855C9E4FFC01808180951DC0898122
:100460009A8128853985820F931FFC018081082E8F
:10047000000C990B9C0120523109C901880F991F6A
:10048000820F931F880F991F2B813C81820F931F2E
:10049000855C9E4FFC0180818D838D810E949F0130
:1004A0008B819C8101969C838B838B819C81069799
:1004B0000CF4B2CF89819A8101969A83898329812C
:1004C0003A818E819F81281739070CF4A2CF85E2EB
:1004D00090E025E230E0F90120812061FC012083D9
:1004E00000002B960FB6F894DEBF0FBECDBFDF9194
:1004F000CF910895CF93DF93CDB7DEB72E970FB688
:10050000F894DEBF0FBECDBF85E290E025E230E07B
:10051000F90120812E7FFC01208380E090E0ACED8A
:10052000B2E489839A83AB83BC8320E030E04AE75E
:1005300053E469817A818B819C810E94270EDC01C2
:10054000CB018D839E83AF83B88720E030E040E805
:100550005FE36D817E818F8198850E94A10D882344
:100560002CF481E090E09A8789873FC020E03FEF3C
:100570004FE757E46D817E818F8198850E94220E1E
:1005800018164CF520E030E040E251E469817A81B0
:100590008B819C810E94270EDC01CB01BC01CD0127
:1005A0000E94A60DDC01CB019A8789870FC089E1E3
:1005B00090E09C878B878B859C850197F1F79C87C2
:1005C0008B8789859A8501979A87898789859A85F6
:1005D000892B69F714C06D817E818F8198850E9477
:1005E000A60DDC01CB019A87898789859A859E872C
:1005F0008D878D859E850197F1F79E878D8785E292
:1006000090E025E230E0F90120812160FC012083A7
:1006100081E20E94B60180EC0E94B60183E10E9453
:10062000B60180E20E94B6018CE00E94B601000093
:100630002E960FB6F894DEBF0FBECDBFDF91CF91DF
:100640000895CF93DF9300D0CDB7DEB785E290E079
:1006500025E230E0F90120812F7EFC01208385E234
:1006600090E025E230E0F90120812260FC01208346
:100670001A82198208C080E00E949F0189819A81B4
:1006800001969A83898389819A81883F91409CF35E
:1006900085E290E025E230E0F90120812D7FFC0128
:1006A000208385E290E025E230E0F901208120619D
:1006B000FC01208300000F900F90DF91CF910895EF
:1006C000CF93DF93CDB7DEB78CE790E020E4FC0159
:1006D00020838AE790E027E8FC0120830000DF9177
:1006E000CF910895CF93DF931F92CDB7DEB7898363
:1006F0000E9460038981817089838CE790E02CE7F8
:1007000030E0F90130812981232BFC0120838AE725
:1007100090E02AE730E0F90120812064FC01208389
:1007200000008AE790E0FC018081882F90E08074CF
:100730009927892BB1F788E790E0FC0180819181AE
:100740000F90DF91CF910895CF93DF9300D000D029
:10075000CDB7DEB79A8389837C836B8389819A8145
:100760008D32914008F43FC089819A81883592404A
:10077000D0F58B819C8181329340A8F180917C04DB
:100780008330B1F480917B04282F30E080917C0489
:10079000882F90E0220F331F220F331F820F931FE9
:1007A000880F991F8E5E9E4FFC018081918127C228
:1007B00080917C048F5F80937C0480917B04282F40
:1007C00030E080917C04882F90E0220F331F220FAD
:1007D000331F820F931F880F991F8E5E9E4FFC015F
:1007E000808191810CC289819A818D35924008F473
:1007F00044C08B819C818D3B924008F43EC0809127
:100800007B04833021F080917C048330B1F48091AB
:100810007B04282F30E080917C04882F90E0220F09
:10082000331F220F331F820F931F880F991F8E5E75
:100830009E4FFC0180819181E2C180917B048F5F9A
:1008400080937B0480917C048F5F80937C048091F3
:100850007B04282F30E080917C04882F90E0220FC9
:10086000331F220F331F820F931F880F991F8E5E35
:100870009E4FFC0180819181C2C189819A81813220
:10088000934008F43FC08B819C818D329140D0F120
:100890008B819C8188359240A8F580917B048330C0
:1008A000B1F480917B04282F30E080917C04882F64
:1008B00090E0220F331F220F331F820F931F880FE8
:1008C000991F8E5E9E4FFC018081918198C180911D
:1008D0007B048F5F80937B0480917B04282F30E022
:1008E00080917C04882F90E0220F331F220F331F4A
:1008F000820F931F880F991F8E5E9E4FFC0180818F
:1009000091817DC189819A818132934008F444C0EC
:100910008B819C81883C910508F03EC080917B04CE
:10092000833021F080917C048823B1F480917B0492
:10093000282F30E080917C04882F90E0220F331F15
:10094000220F331F820F931F880F991F8E5E9E4FB9
:10095000FC018081918153C180917B048F5F8093E2
:100960007B0480917C04815080937C0480917B0483
:10097000282F30E080917C04882F90E0220F331FD5
:10098000220F331F820F931F880F991F8E5E9E4F79
:10099000FC018081918133C189819A818D3291409E
:1009A00008F43FC089819A8188359240D0F58B81C7
:1009B0009C81883C9105A8F580917C048823B1F442
:1009C00080917B04282F30E080917C04882F90E078
:1009D000220F331F220F331F820F931F880F991F7F
:1009E0008E5E9E4FFC018081918109C180917C04C3
:1009F000815080937C0480917B04282F30E080918B
:100A00007C04882F90E0220F331F220F331F820FA8
:100A1000931F880F991F8E5E9E4FFC0180819181EC
:100A2000EEC089819A81883C910508F044C08B8191
:100A30009C81883C910508F03EC080917B0488230E
:100A400021F080917C048823B1F480917B04282FCD
:100A500030E080917C04882F90E0220F331F220F1A
:100A6000331F820F931F880F991F8E5E9E4FFC01CC
:100A700080819181C4C080917B04815080937B04EC
:100A800080917C04815080937C0480917B04282F8A
:100A900030E080917C04882F90E0220F331F220FDA
:100AA000331F820F931F880F991F8E5E9E4FFC018C
:100AB00080819181A4C089819A81883C910508F048
:100AC0003FC08B819C818D329140D0F18B819C8184
:100AD00088359240A8F580917B048823B1F48091F9
:100AE0007B04282F30E080917C04882F90E0220F37
:100AF000331F220F331F820F931F880F991F8E5EA3
:100B00009E4FFC01808191817AC080917B0481504D
:100B100080937B0480917B04282F30E080917C04BB
:100B2000882F90E0220F331F220F331F820F931F55
:100B3000880F991F8E5E9E4FFC01808191815FC05E
:100B400089819A81883C910508F044C08B819C8101
:100B50008132934008F43EC080917B04882321F0C9
:100B600080917C048330B1F480917B04282F30E0A5
:100B700080917C04882F90E0220F331F220F331FB7
:100B8000820F931F880F991F8E5E9E4FFC018081FC
:100B9000918135C080917B04815080937B0480914A
:100BA0007C048F5F80937C0480917B04282F30E04D
:100BB00080917C04882F90E0220F331F220F331F77
:100BC000820F931F880F991F8E5E9E4FFC018081BC
:100BD000918115C080917B04282F30E080917C04A6
:100BE000882F90E0220F331F220F331F820F931F95
:100BF000880F991F8E5E9E4FFC01808191810F901E
:100C00000F900F900F90DF91CF910895CF93DF93C6
:100C1000CDB7DEB72A970FB6F894DEBF0FBECDBFB3
:100C20009A87898780E00E9472039E838D8381E08A
:100C30000E94720398878F832F8138858D819E81D2
:100C4000B9010E94A40390937E0480937D0489855A
:100C50009A858230910509F452C0833091052CF4B5
:100C6000009751F0019769F04FC083309105A9F1C9
:100C7000049709F446C048C081E090E09A878987CC
:100C800043C080913401882309F03DC080918004E5
:100C90008130C9F5209132013091330180917D047A
:100CA00090917E042817390729F481E090E09A8713
:100CB000898704C082E090E09A87898789E290E082
:100CC000FC018081882F90E088709927892BD9F4C6
:100CD00083E090E09A87898716C089E290E0FC0162
:100CE0008081882F90E088709927892B19F483E000
:100CF00090E002C084E090E09A87898705C00000F8
:100D000003C0000001C0000089859A8582309105EA
:100D100091F0833091053CF4009709F4A8C0019745
:100D200009F4A7C0A9C08330910509F4A4C00497B1
:100D300009F449C0A1C088E290E0FC0110821A8247
:100D4000198227C088E290E028E0FC01208388E235
:100D500090E028E230E0F901408120917D0430915B
:100D60007E04098002C0369527950A94E2F7217027
:100D7000242BFC01208388E290E028E230E0F90196
:100D800020812260FC01208389819A8101969A83C7
:100D9000898389819A810897ACF288E290E028E201
:100DA00030E0F90120812460FC01208380917D04E2
:100DB00090917E04909333018093320181E090E022
:100DC0009A87898759C080E40E94B60180E80E9412
:100DD000B60160E070E08BE793E00E94DF0161E024
:100DE00070E08AE893E00E94DF0181E090E09A875A
:100DF000898781E08093340188E290E0FC011082D1
:100E00001C821B8226C088E290E028E0FC0120833F
:100E100088E290E028E230E0F9012081422F2FE0C3
:100E200030E00B8002C0359527950A94E2F72170D7
:100E3000242BFC01208388E290E028E230E0F901D5
:100E400020812260FC0120838B819C8101969C8300
:100E50008B838B819C810897B4F288E290E028E232
:100E600030E0F90120812460FC01208305C00000EE
:100E700003C0000001C0000089859A852A960FB63C
:100E8000F894DEBF0FBECDBFDF91CF910895CF9311
:100E9000DF9300D0CDB7DEB79A83898389E290E0F3
:100EA000FC018081882F90E088709927892B11F4AC
:100EB0000E94800C89819A81092E000CAA0BBB0B21
:100EC00040E050E027E030E0841B950B28173907FD
:100ED00008F477C08A5B9F4FFC010C94840D81E07D
:100EE00090E09A83898372C080913401813009F047
:100EF0006CC089E290E0FC018081882F90E08170D5
:100F00009927892B29F482E090E09A8389835DC038
:100F100089E290E0FC018081882F90E0827099271F
:100F2000892B29F484E090E09A8389834EC089E27A
:100F300090E0FC018081882F90E084709927892BB4
:100F400029F486E090E09A8389833FC081E090E0B5
:100F50009A8389833AC089E290E0FC018081882FDE
:100F600090E081709927892B19F482E090E002C00B
:100F700083E090E09A83898329C089E290E0FC01B4
:100F80008081882F90E082709927892B19F484E062
:100F900090E002C085E090E09A83898317C089E2DF
:100FA00090E0FC018081882F90E084709927892B44
:100FB00019F486E090E002C087E090E09A8389838C
:100FC00005C0000003C0000001C0000089819A81B3
:100FD000092E000CAA0BBB0B40E050E027E030E0EC
:100FE000841B950B2817390708F448C0825B9F4F74
:100FF000FC010C94840D80E40E94B60180E80E94FC
:10100000B60161E070E08BE793E00E94DF0160E0F1
:1010100070E08AE893E00E94DF0181E090E09A832B
:1010200089832FC080E40E94B60180E80E94B60147
:1010300060E070E08BE793E00E94DF0161E070E028
:101040008AE893E00E94DF0181E090E09A8389833F
:1010500018C0109234010E94210380E40E94B6015E
:1010600080E80E94B60180913501909136010E947E
:10107000B80C81E090E09A83898303C0000001C02E
:10108000000089819A810F900F90DF91CF91089590
:10109000CF93DF93CDB7DEB728970FB6F894DEBFB6
:1010A0000FBECDBF98878F838F819885092E000C46
:1010B000AA0BBB0B40E050E029E030E0841B950B0D
:1010C0002817390708F4A8C08A5A9F4FFC010C94CE
:1010D000840D0E94FD0C81E090E090933601809396
:1010E000350181E090E098878F8399C08091340129
:1010F000882329F482E090E098878F8390C081E074
:1011000090E098878F838BC089E290E0FC0180811A
:10111000882F90E084709927892B29F485E090E04E
:1011200098878F837CC084E090E098878F8377C016
:101130008091B1049091B204181619060CF06EC09B
:1011400084E090E098878F838091B1049091B204FD
:101150000197880F991F880F991F8D559B4FFC0190
:101160002081318180917B04882F90E028173907F6
:1011700019F58091B1049091B2040197880F991FDD
:10118000880F991F8B559B4FFC01208131818091E5
:101190007C04882F90E02817390771F48091B104FE
:1011A0009091B20401979093B2048093B10484E0CB
:1011B00090E098878F8304C088E090E098878F83C1
:1011C0008091B1049091B204892B79F4809135011A
:1011D000909136010196909336018093350181E01C
:1011E00090E098878F830E94FD0C8091B1049091CC
:1011F000B204892B51F48091350190913601049706
:1012000021F489E090E098878F8380913501909157
:1012100036010E94B80C02C0000001C000008F819E
:101220009885092E000CAA0BBB0B40E050E029E08A
:1012300030E0841B950B2817390708F4A3C1805AA6
:101240009F4FFC010C94840D1A8219826DC00E947C
:10125000070F25E030E0B9010E94700D9093B604AD
:101260008093B5040E94070F25E030E0B9010E9489
:10127000700D9093B8048093B7042091B504309119
:10128000B6048091B7049091B804220F331F220F47
:10129000331F820F931F880F991F8D579B4FFC019F
:1012A00080819181019731F489819A8101979A8394
:1012B000898335C02091B5043091B60489819A8123
:1012C000880F991F880F991F8D559B4FFC01318303
:1012D00020832091B7043091B80489819A81880FC6
:1012E000991F880F991F8B559B4FFC0131832083D9
:1012F0002091B5043091B6048091B7049091B80460
:10130000220F331F220F331F820F931F880F991F45
:101310008D579B4F21E030E0FC0131832083898190
:101320009A8101969A838983809135019091360143
:1013300029813A81281739070CF489CF83E090E09E
:1013400098878F8380913501909136019093B204F4
:101350008093B1041EC18091AF049091B0040B97AB
:10136000BCF01092B0041092AF048091B30490913D
:10137000B40401969093B4048093B3048091B104B3
:101380009091B20401979093B2048093B1046DC020
:101390008091AF049091B00401969093B004809333
:1013A000AF0488E290E0FC0110821C821B824FC0D7
:1013B00088E290E028E0FC01208388E290E028E2C7
:1013C00030E0F9012081622F2091B1043091B20404
:1013D00021503109220F331F220F331F2D553B4F50
:1013E000F901408151812091B1043091B204215022
:1013F0003109220F331F220F331F2B553B4FF901A9
:1014000020813181440F551F440F551F240F351F74
:10141000220F331F2E5E3E4FF901208131810B8058
:1014200002C0359527950A94E2F72170262BFC011E
:10143000208388E290E028E230E0F90120812260F8
:10144000FC0120838B819C8101969C838B838B8103
:101450009C8108970CF4ACCF88E290E028E230E061
:10146000F90120812460FC0120838091B1049091D6
:10147000B204892B09F088C084E090E098878F83BC
:1014800081E08093800488E290E0FC0110821E825B
:101490001D8226C088E290E028E0FC01208388E2DB
:1014A00090E028E230E0F9012081422F27E830E087
:1014B0000D8002C0359527950A94E2F72170242B00
:1014C000FC01208388E290E028E230E0F9012081ED
:1014D0002260FC0120838D819E8101969E838D83F5
:1014E0008D819E810897B4F288E290E028E230E096
:1014F000F90120812460FC012083809135019091C5
:1015000036019093B2048093B1043EC089E290E02A
:10151000FC018081882F90E084709927892B29F421
:1015200085E090E098878F8334C086E090E09887CC
:101530008F832FC00E94640C81E08093820489E233
:1015400090E0FC018081882F90E088709927892B9A
:10155000E9F40E94800C18861F8218C00E94480C73
:1015600081E08093820489E290E0FC018081882FF1
:1015700090E088709927892B59F40E94800C188676
:101580001F8206C0000005C0000003C0000001C0AB
:10159000000080913401813011F418861F828F8100
:1015A000988528960FB6F894DEBF0FBECDBFDF91A9
:1015B000CF9108950F931F93CF93DF93CDB7DEB7ED
:1015C0002A970FB6F894DEBF0FBECDBF80E090E043
:1015D0000E945D0DDC01CB010E940B0F81E290E0C7
:1015E000FC01108282E290E02FEFFC01208387E271
:1015F00090E02FE0FC01208388E290E020EFFC01E6
:10160000208384E290E02FEFFC01208385E290E0CC
:10161000FC0110828AE290E0FC0110828BE290E0F3
:101620002FEFFC01208386E0E9E9F3E0DE01159667
:1016300001900D928A95E1F783E090E09C838B8383
:101640001092B90484E690E0A0E0B0E08093BA0480
:101650009093BB04A093BC04B093BD048091BA04E2
:101660009091BB04A091BC04B091BD048093BE04D2
:101670009093BF04A093C004B093C10486E096E0A9
:101680009093C3048093C2041092C40482E390E058
:10169000A0E0B0E08093C5049093C604A093C70473
:1016A000B093C8048091C5049091C604A091C7046A
:1016B000B091C8048093C9049093CA04A093CB044A
:1016C000B093CC0487E497E09093CE048093CD044C
:1016D0001092CF0482E390E0A0E0B0E08093D004C9
:1016E0009093D104A093D204B093D3048091D004FA
:1016F0009091D104A091D204B091D3048093D404EA
:101700009093D504A093D604B093D70488E498E0CE
:101710009093D9048093D8040E9492010E947A0287
:101720000E94800C62E370E080E090E00E9464011F
:101730000E94B4001A821982A2C089819A81880FFE
:10174000991F9E012F5F3F4F820F931F0496FC014C
:1017500080819181FC012581368147815085898175
:101760009A81880F991FBE016F5F7F4F860F971F69
:101770000496FC0180819181FC0181819281A38189
:10178000B481281739074A075B0708F445C08981E7
:101790009A81880F991F9E012F5F3F4F820F931FE1
:1017A0000496FC010081118189819A81880F991F1B
:1017B0009E012F5F3F4F820F931F0496FC01808193
:1017C0009181FC012185328589819A81880F991F39
:1017D000AE014F5F5F4F840F951F0496FC0180811F
:1017E0009181FC018081082E000C990BF90109956B
:1017F000F801808389819A81880F991F9E012F5F4C
:101800003F4F820F931F0496FC0180819181FC0160
:10181000158216821782108689819A81880F991FF6
:101820009E012F5F3F4F820F931F0496FC01208182
:10183000318189819A81880F991FAE014F5F5F4F77
:10184000840F951F0496FC0180819181FC018581A4
:101850009681A781B085C296A11DB11DF90185832E
:101860009683A783B0870000809176048823E1F3F4
:101870001092760489819A8101969A8389832981BD
:101880003A818B819C812817390708F456CF52CFB3
:10189000CF93DF93CDB7DEB70E94210380E40E948F
:1018A000B60180E80E94B60161E070E08FE993E044
:1018B0000E94DF0160E070E08EEA93E00E94DF01A9
:1018C0000000DF91CF910895CF93DF93CDB7DEB7BE
:1018D0000E94210380E40E94B60180E80E94B601C4
:1018E00061E070E082ED93E00E94DF0160E070E073
:1018F00081EE93E00E94DF010000DF91CF91089517
:10190000CF93DF93CDB7DEB70E94210380E40E941E
:10191000B60180E80E94B60161E070E08BE793E0D9
:101920000E94DF0160E070E085E194E00E94DF0149
:101930000000DF91CF910895CF93DF93CDB7DEB74D
:101940000E94210380E40E94B60180E80E94B60153
:1019500060E070E085E294E00E94DF0160E070E00A
:1019600084E394E00E94DF010000DF91CF910895AD
:10197000CF93DF9300D0CDB7DEB79A8389830E94DF
:10198000210380E40E94B60180E80E94B6018981AB
:101990009A81019761F460E070E085E294E00E9432
:1019A000DF0160E070E080E494E00E94DF01898163
:1019B0009A81029761F460E070E08CE494E00E9408
:1019C000DF0160E070E084E394E00E94DF01898140
:1019D0009A81039761F460E070E08BE594E00E94E7
:1019E000DF0160E070E08AE694E00E94DF01000021
:1019F0000F900F90DF91CF910895CF93DF93CDB7E4
:101A0000DEB7109284041092830410928604109220
:101A10008504109288041092870410928A04109210
:101A2000890410928C0410928B0410928E041092F0
:101A30008D041092900410928F04109292041092D0
:101A400091041092940410929304109296041092B0
:101A50009504109298041092970410929A04109290
:101A6000990410929C0410929B0410929E04109270
:101A70009D041092A00410929F041092A204109250
:101A8000A1041092A4041092A3041092A604109230
:101A9000A5041092A8041092A7041092AA04109210
:101AA000A9041092AC041092AB041092AE041092F0
:101AB000AD040000DF91CF910895FC010FB6F894BA
:101AC0006091DA047091DB048091DC049091DD0474
:101AD0000FBE309721F060837183828393830895D2
:101AE00097FB072E16F4009407D077FD09D00E94CB
:101AF0008D0D07FC05D03EF4909581959F4F08957C
:101B0000709561957F4F0895EE0FFF1F0024001C14
:101B10000BBE0790F691E02D0994AA1BBB1B51E167
:101B200007C0AA1FBB1FA617B70710F0A61BB70B4D
:101B3000881F991F5A95A9F780959095BC01CD01F2
:101B400008950E94D50D08F481E008950E94010EC9
:101B500088F09F5798F0B92F9927B751B0F0E1F06E
:101B6000660F771F881F991F1AF0BA95C9F714C01E
:101B7000B13091F00E941B0EB1E008950C941B0E41
:101B8000672F782F8827B85F39F0B93FCCF3869557
:101B900077956795B395D9F73EF4909580957095B4
:101BA00061957F4F8F4F9F4F0895990F0008550FF4
:101BB000AA0BE0E8FEEF16161706E807F907C0F0D3
:101BC00012161306E407F50798F0621B730B840BDB
:101BD000950B39F40A2661F0232B242B252B21F4B5
:101BE00008950A2609F4A140A6958FEF811D811D55
:101BF000089557FD9058440F551F59F05F3F71F0FD
:101C00004795880F97FB991F61F09F3F79F0879563
:101C10000895121613061406551FF2CF4695F1DFEC
:101C200008C0161617061806991FF1CF869571057C
:101C3000610508940895E894BB2766277727CB01B0
:101C400097F908950E94D50D08F48FEF08950E942A
:101C50003A0E0C94AB0E0E949D0E38F00E94A40E1A
:101C600020F0952311F00C94940E0C949A0E1124EC
:101C70000C941C0E0E94F90D70F3959FC1F3950F03
:101C800050E0551F629FF001729FBB27F00DB11D00
:101C9000639FAA27F00DB11DAA1F649F6627B00D90
:101CA000A11D661F829F2227B00DA11D621F739F79
:101CB000B00DA11D621F839FA00D611D221F749F87
:101CC0003327A00D611D231F849F600D211D822FCE
:101CD000762F6A2F11249F5750409AF0F1F08823F5
:101CE0004AF0EE0FFF1FBB1F661F771F881F915022
:101CF0005040A9F79E3F510580F00C94940E0C942F
:101D00001C0E5F3FE4F3983ED4F386957795679574
:101D1000B795F795E7959F5FC1F7FE2B880F911D4B
:101D20009695879597F9089597F99F6780E870E0F1
:101D300060E008959FEF80EC089500240A94161641
:101D4000170618060906089500240A9412161306A9
:101D5000140605060895092E0394000C11F4882337
:101D600052F0BB0F40F4BF2B11F460FF04C06F5F53
:101D70007F4F8F4F9F4F08958F929F92AF92BF9248
:101D8000CF92DF92EF92FF92CF93DF93EC016881C5
:101D900079818A819B81611571058105910521F405
:101DA00064E279ED8BE597E02DE133EF41E050E01F
:101DB0000E941F0F49015A019B01AC01A7EAB1E43F
:101DC0000E943E0F6B017C01ACEEB4EFA5019401C3
:101DD0000E944C0FDC01CB018C0D9D1DAE1DBF1D63
:101DE000B7FF03C00197A109B04888839983AA83EC
:101DF000BB839F77DF91CF91FF90EF90DF90CF90E3
:101E0000BF90AF909F908F9008950C94BC0E87E385
:101E100091E00C94BC0EA0E0B0E080933701909369
:101E20003801A0933901B0933A010895FC01019063
:101E30000020E9F7809590958E0F9F1F0895052E3D
:101E400097FB1EF400940E94360F57FD07D00E94A6
:101E5000510F07FC03D04EF40C94360F509540956B
:101E6000309521953F4F4F4F5F4F08959095809546
:101E7000709561957F4F8F4F9F4F08950E94730F0C
:101E8000A59F900DB49F900DA49F800D911D1124CE
:101E90000895B7FF0C943E0F0E943E0F821B930BD8
:101EA0000895A1E21A2EAA1BBB1BFD010DC0AA1F9B
:101EB000BB1FEE1FFF1FA217B307E407F50720F0B3
:101EC000A21BB30BE40BF50B661F771F881F991F2E
:101ED0001A9469F760957095809590959B01AC0177
:101EE000BD01CF010895A29FB001B39FC001A39F80
:101EF000700D811D1124911DB29F700D811D112443
:081F0000911D0895F894FFCF34
:101F080000000002000000008B000000000001003B
:101F1800000087008B008D008E0047004B004D00AD
:101F28004E0027002B002D002E0017001B001D005F
:101F38001E009600010100010000000000000000E2
:101F48000000005F000000000700070000147F1475
:101F58007F1400242A7F2A120023130864620036A3
:101F68004955225000000503000000001C224100D2
:101F7800000041221C000014083E08140008083E16
:101F88000808000050300000000808080808000091
:101F980060600000002010080402003E5149453EE0
:101FA8000000427F400000426151494600214145FE
:101FB8004B31001814127F10002745454539003C65
:101FC8004A49493000017109050300364949493633
:101FD80000064949291E0000363600000000563622
:101FE8000000000814224100001414141414000006
:101FF8004122140800020151090600324979413E84
:10200800007E1111117E007F49494936003E414149
:102018004122007F4141221C007F49494941007FFC
:1020280009090901003E4149497A007F0808087FEB
:102038000000417F4100002040413F01007F08141B
:102048002241007F40404040007F020C027F007F19
:102058000408107F003E4141413E007F09090906FE
:10206800003E4151215E007F091929460046494931
:1020780049310001017F0101003F4040403F001FFE
:102088002040201F003F4038403F0063140814637D
:1020980000070870080700615149454300007F4167
:1020A8004100000204081020000041417F000004A4
:1020B80002010204004040404040000001020400C8
:1020C800002054545478007F48444438003844442D
:1020D800442000384444487F0038545454180008B9
:1020E8007E090102000C5252523E007F0804047817
:1020F8000000447D4000002040443D00007F10283F
:1021080044000000417F4000007C04180478007CF3
:1021180008040478003844444438007C1414140833
:1021280000081414187C007C08040408004854545F
:10213800542000043F444020003C4040207C001CC8
:102148002040201C003C4030403C004428102844DB
:10215800000C5050503C004464544C440000083675
:1021680041000000007F0000000041360800001018
:102178000808100800784641467800312E2053742C
:102188006172742047616D652000322E204C6967AA
:1021980068742053686F772000B904C404CF0431F1
:1021A8002E20596F75204C4F534521212000322E87
:1021B8002050726573732052656420427574746F81
:1021C8006E20746F20706C617920616761696E2080
:1021D8002000312E20596F752057494E212121208A
:1021E80000322E2053636F72653A2033202020205E
:1021F8002020202050726573732052656420427538
:1022080074746F6E20746F20706C617920616761DF
:10221800696E202000322E204C696768742053684C
:102228006F77202000312E204C564C312020202062
:1022380020202000322E2053636F72653A2031002F
:10224800322E2053636F72653A203000312E204CB5
:10225800564C322020202020202000312E204C56A1
:102268004C332020202020202000322E2053636F62
:0622780072653A203200FD
:00000001FF
