:100000000C9456000C9475000C9475000C947500BB
:100010000C9475000C9475000C9475000C9475008C
:100020000C9475000C9475000C9475000C9475007C
:100030000C9475000C94EE000C9475000C947500F3
:100040000C9475000C9475000C9475000C9475005C
:100050000C9475000C9475000C9475000C9475004C
:100060000C9475000C9475000C9475000C9475003C
:100070000C9475000C9475000C9475000C9475002C
:100080000C9475000C9475000C94750087078C0710
:10009000C307FB07D507FB07E707FB075E085E08FA
:1000A0005E0813085E082A085E08410811241FBE76
:1000B000CFEFD0E4DEBFCDBF13E0A0E0B1E0ECE1D4
:1000C000F6E100E00BBF02C007900D92A83CB1071B
:1000D000D9F723E0A8ECB3E001C01D92A93EB20716
:1000E000E1F70E9466080C940C0B0C940000CF936F
:1000F000DF9300D01F92CDB7DEB789837B836A83FD
:1001000089818A3031F48A819B81BC018DE00E9413
:10011000770080EC90E0FC018081882F90E0807275
:100120009927892BB1F386EC90E02981FC0120838B
:1001300080E090E00F900F900F90DF91CF910895A5
:10014000CF93DF93CDB7DEB781E890E02BE0FC01E1
:10015000208388E890E02DE730E0FC0131832083A4
:100160008FE690E022E0FC01208384E890E0FC012F
:100170001182108280910E0190910F01A0911001C7
:10018000B09111018093C9039093CA03A093CB034C
:10019000B093CC038FE590E02FE530E0F9012081AA
:1001A0002068FC0120830000DF91CF910895CF9358
:1001B000DF93CDB7DEB781E890E0FC01108200004C
:1001C000DF91CF910895CF93DF93CDB7DEB781E074
:1001D0008093C8030000DF91CF9108951F920F9282
:1001E00000905F000F92112400905B000F922F93FC
:1001F0003F934F935F936F937F938F939F93AF93AF
:10020000BF93EF93FF93CF93DF93CDB7DEB780918A
:10021000C9039091CA03A091CB03B091CC0301977D
:10022000A109B1098093C9039093CA03A093CB039A
:10023000B093CC038091C9039091CA03A091CB03E2
:10024000B091CC03892B8A2B8B2B91F40E94E30075
:1002500080910E0190910F01A0911001B0911101B8
:100260008093C9039093CA03A093CB03B093CC03AC
:100270000000DF91CF91FF91EF91BF91AF919F91DE
:100280008F917F916F915F914F913F912F910F903F
:1002900000925B000F9000925F000F901F901895E6
:1002A000CF93DF9300D000D0CDB7DEB769837A83D8
:1002B0008B839C8389819A81AB81BC8180930E0161
:1002C00090930F01A0931001B093110180910E0142
:1002D00090910F01A0911001B09111018093C90379
:1002E0009093CA03A093CB03B093CC0300000F906C
:1002F0000F900F900F90DF91CF910895CF93DF93E0
:10030000CDB7DEB78CE490E021E5FC01208300004E
:10031000DF91CF910895CF93DF931F92CDB7DEB7D2
:1003200089838EE490E02981FC01208300008DE424
:1003300090E0FC0180818823D4F700000F90DF91CA
:10034000CF910895CF93DF931F92CDB7DEB7898306
:1003500085E290E025E230E0F90120812D7FFC016B
:10036000208385E290E025E230E0F90120812F7EB4
:10037000FC01208389810E948B0185E290E025E2C7
:1003800030E0F90120812061FC01208300000F9002
:10039000DF91CF910895CF93DF93CDB7DEB72B9741
:1003A0000FB6F894DEBF0FBECDBF998788877B87D5
:1003B0006A871D8285E290E025E230E0F901208124
:1003C0002260FC01208385E290E025E230E0F90123
:1003D00020812F7EFC012083888599850E94030B54
:1003E0009F838E831A82198256C01C821B8249C049
:1003F0008A859B85892BF9F089819A8128853985A1
:10040000820F931FFC018081082E000C990B9C0128
:1004100020523109C901880F991F820F931F880F3D
:10042000991F2B813C81820F931F8B5C9E4FFC0197
:10043000808180951DC089819A8128853985820FA8
:10044000931FFC018081082E000C990B9C01205207
:100450003109C901880F991F820F931F880F991FB7
:100460002B813C81820F931F8B5C9E4FFC0180810E
:100470008D838D810E948B018B819C8101969C8351
:100480008B838B819C8106970CF4B2CF89819A81F2
:1004900001969A83898329813A818E819F812817C9
:1004A00039070CF4A2CF85E290E025E230E0F901B3
:1004B00020812061FC01208300002B960FB6F89468
:1004C000DEBF0FBECDBFDF91CF910895CF93DF93F5
:1004D000CDB7DEB72E970FB6F894DEBF0FBECDBFF7
:1004E00085E290E025E230E0F90120812E7FFC01D9
:1004F000208380E090E0ACEDB2E489839A83AB8303
:10050000BC8320E030E04AE753E469817A818B8143
:100510009C810E946E0ADC01CB018D839E83AF8398
:10052000B88720E030E040E85FE36D817E818F8115
:1005300098850E94E80988232CF481E090E09A874E
:1005400089873FC020E03FEF4FE757E46D817E8110
:100550008F8198850E94690A18164CF520E030E0DA
:1005600040E251E469817A818B819C810E946E0A0C
:10057000DC01CB01BC01CD010E94ED09DC01CB0106
:100580009A8789870FC089E190E09C878B878B854C
:100590009C850197F1F79C878B8789859A850197C0
:1005A0009A87898789859A85892B69F714C06D8117
:1005B0007E818F8198850E94ED09DC01CB019A87AD
:1005C000898789859A859E878D878D859E850197E8
:1005D000F1F79E878D8785E290E025E230E0F90112
:1005E00020812160FC01208381E20E94A20180EC35
:1005F0000E94A20183E10E94A20180E20E94A20166
:100600008CE00E94A20100002E960FB6F894DEBF87
:100610000FBECDBFDF91CF910895CF93DF9300D070
:10062000CDB7DEB785E290E025E230E0F901208128
:100630002F7EFC01208385E290E025E230E0F90185
:1006400020812260FC0120831A82198208C080E088
:100650000E948B0189819A8101969A83898389817D
:100660009A81883F91409CF385E290E025E230E05A
:10067000F90120812D7FFC01208385E290E025E2B5
:1006800030E0F90120812061FC01208300000F90FF
:100690000F90DF91CF910895CF93DF93CDB7DEB761
:1006A0008CE790E020E4FC0120838AE790E027E8D3
:1006B000FC0120830000DF91CF910895CF93DF9359
:1006C0001F92CDB7DEB789830E944C038981817068
:1006D00089838CE790E02CE730E0F90130812981B3
:1006E000232BFC0120838AE790E02AE730E0F90120
:1006F00020812064FC01208300008AE790E0FC0157
:100700008081882F90E080749927892BB1F788E742
:1007100090E0FC01808191810F90DF91CF9108954D
:10072000CF93DF9300D000D0CDB7DEB79A83898313
:100730007C836B8389819A818D32914008F43FC01C
:1007400089819A8188359240D0F58B819C81813254
:100750009340A8F18091CE038330B1F48091CD0312
:10076000282F30E08091CE03882F90E0220F331F96
:10077000220F331F820F931F880F991F8E5E9E4F8B
:10078000FC018081918127C28091CE038F5F80938D
:10079000CE038091CD03282F30E08091CE03882FA7
:1007A00090E0220F331F220F331F820F931F880FF9
:1007B000991F8E5E9E4FFC01808191810CC28981C0
:1007C0009A818D35924008F444C08B819C818D3B89
:1007D000924008F43EC08091CD03833021F0809197
:1007E000CE038330B1F48091CD03282F30E0809187
:1007F000CE03882F90E0220F331F220F331F820F6A
:10080000931F880F991F8E5E9E4FFC0180819181FE
:10081000E2C18091CD038F5F8093CD038091CE03A1
:100820008F5F8093CE038091CD03282F30E080919D
:10083000CE03882F90E0220F331F220F331F820F29
:10084000931F880F991F8E5E9E4FFC0180819181BE
:10085000C2C189819A818132934008F43FC08B8163
:100860009C818D329140D0F18B819C818835924062
:10087000A8F58091CD038330B1F48091CD03282F6A
:1008800030E08091CE03882F90E0220F331F220F9B
:10089000331F820F931F880F991F8E5E9E4FFC019E
:1008A0008081918198C18091CD038F5F8093CD032A
:1008B0008091CD03282F30E08091CE03882F90E0E7
:1008C000220F331F220F331F820F931F880F991F90
:1008D0008E5E9E4FFC01808191817DC189819A81CC
:1008E0008132934008F444C08B819C81883C9105FF
:1008F00008F03EC08091CD03833021F08091CE037B
:100900008823B1F48091CD03282F30E08091CE036D
:10091000882F90E0220F331F220F331F820F931F67
:10092000880F991F8E5E9E4FFC018081918153C17B
:100930008091CD038F5F8093CD038091CE03815052
:100940008093CE038091CD03282F30E08091CE0399
:10095000882F90E0220F331F220F331F820F931F27
:10096000880F991F8E5E9E4FFC018081918133C15B
:1009700089819A818D32914008F43FC089819A81A2
:1009800088359240D0F58B819C81883C9105A8F5F3
:100990008091CE038823B1F48091CD03282F30E0DD
:1009A0008091CE03882F90E0220F331F220F331F38
:1009B000820F931F880F991F8E5E9E4FFC018081CE
:1009C000918109C18091CE0381508093CE038091A3
:1009D000CD03282F30E08091CE03882F90E0220FA6
:1009E000331F220F331F820F931F880F991F8E5EB4
:1009F0009E4FFC0180819181EEC089819A81883C63
:100A0000910508F044C08B819C81883C910508F0D9
:100A10003EC08091CD03882321F08091CE038823AE
:100A2000B1F48091CD03282F30E08091CE03882F40
:100A300090E0220F331F220F331F820F931F880F66
:100A4000991F8E5E9E4FFC0180819181C4C0809170
:100A5000CD0381508093CD038091CE03815080934C
:100A6000CE038091CD03282F30E08091CE03882FD4
:100A700090E0220F331F220F331F820F931F880F26
:100A8000991F8E5E9E4FFC0180819181A4C0898157
:100A90009A81883C910508F03FC08B819C818D3202
:100AA0009140D0F18B819C8188359240A8F580914E
:100AB000CD038823B1F48091CD03282F30E08091BD
:100AC000CE03882F90E0220F331F220F331F820F97
:100AD000931F880F991F8E5E9E4FFC01808191812C
:100AE0007AC08091CD0381508093CD038091CD0356
:100AF000282F30E08091CE03882F90E0220F331F03
:100B0000220F331F820F931F880F991F8E5E9E4FF7
:100B1000FC01808191815FC089819A81883C910527
:100B200008F044C08B819C818132934008F43EC020
:100B30008091CD03882321F08091CE038330B1F4DE
:100B40008091CD03282F30E08091CE03882F90E054
:100B5000220F331F220F331F820F931F880F991FFD
:100B60008E5E9E4FFC018081918135C08091CD03C6
:100B700081508093CD038091CE038F5F8093CE030D
:100B80008091CD03282F30E08091CE03882F90E014
:100B9000220F331F220F331F820F931F880F991FBD
:100BA0008E5E9E4FFC018081918115C08091CD03A6
:100BB000282F30E08091CE03882F90E0220F331F42
:100BC000220F331F820F931F880F991F8E5E9E4F37
:100BD000FC01808191810F900F900F900F90DF9119
:100BE000CF910895CF93DF93CDB7DEB72C970FB693
:100BF000F894DEBF0FBECDBF9C878B8780E00E943C
:100C00005E0398878F8381E00E945E039A878987BD
:100C100029853A858F819885B9010E949003909328
:100C2000D0038093CF038B859C858230910509F496
:100C30008AC0833091052CF4009759F0019771F028
:100C400087C08330910509F46CC0049709F47DC016
:100C50007FC081E090E09C878B877AC080913401CF
:100C6000882321F520913201309133018091CF0307
:100C70009091D0032817390729F481E090E09C87F0
:100C80008B8704C082E090E09C878B8789E290E0AC
:100C9000FC018081882F90E088709927892B09F0CA
:100CA00056C083E090E09C878B8751C088E290E03B
:100CB000FC0110821A82198226C088E290E028E0A6
:100CC000FC01208388E290E028E230E0F9012081F5
:100CD000422F2FE030E0098002C0359527950A9415
:100CE000E2F72170242BFC01208388E290E028E2C7
:100CF00030E0F90120812260FC01208389819A8102
:100D000001969A83898389819A810897B4F288E24F
:100D100090E028E230E0F90120812460FC0120838A
:100D200016C089E290E0FC018081882F90E08870F5
:100D30009927892B19F483E090E002C084E090E0C9
:100D40009C878B8705C0000003C0000001C0000025
:100D50008B859C858230910591F0833091053CF420
:100D6000009709F4A8C0019709F4A7C0A9C083306F
:100D7000910509F4A4C0049709F449C0A1C088E210
:100D800090E0FC0110821C821B8227C088E290E068
:100D900028E0FC01208388E290E028E230E0F901BD
:100DA00040812091CF033091D0030B8002C0369553
:100DB00027950A94E2F72170242BFC01208388E216
:100DC00090E028E230E0F90120812260FC012083DC
:100DD0008B819C8101969C838B838B819C8108975E
:100DE000ACF288E290E028E230E0F9012081246052
:100DF000FC0120838091CF039091D0039093330125
:100E00008093320181E090E09C878B8759C080E419
:100E10000E94A20180E80E94A20160E070E085E7E4
:100E200093E00E94CB0161E070E084E893E00E94CF
:100E3000CB0181E090E09C878B8781E08093340137
:100E400088E290E0FC0110821E821D8226C088E2AA
:100E500090E028E0FC01208388E290E028E230E086
:100E6000F9012081422F2FE030E00D8002C035953E
:100E700027950A94E2F72170242BFC01208388E255
:100E800090E028E230E0F90120812260FC0120831B
:100E90008D819E8101969E838D838D819E81089791
:100EA000B4F288E290E028E230E0F9012081246089
:100EB000FC01208305C0000003C0000001C0000049
:100EC0008B859C852C960FB6F894DEBF0FBECDBFE8
:100ED000DF91CF910895CF93DF9300D0CDB7DEB7E8
:100EE0009A83898389819A81092E000CAA0BBB0BF6
:100EF00040E050E027E030E0841B950B28173907CD
:100F000008F477C08A5B9F4FFC010C94DF0981E0F5
:100F100090E09A83898372C080913401813009F016
:100F20006CC089E290E0FC018081882F90E08170A4
:100F30009927892B29F482E090E09A8389835DC008
:100F400089E290E0FC018081882F90E082709927EF
:100F5000892B29F484E090E09A8389834EC089E24A
:100F600090E0FC018081882F90E084709927892B84
:100F700029F486E090E09A8389833FC081E090E085
:100F80009A8389833AC089E290E0FC018081882FAE
:100F900090E081709927892B19F482E090E002C0DB
:100FA00083E090E09A83898329C089E290E0FC0184
:100FB0008081882F90E082709927892B19F484E032
:100FC00090E002C085E090E09A83898317C089E2AF
:100FD00090E0FC018081882F90E084709927892B14
:100FE00019F486E090E002C087E090E09A8389835C
:100FF00005C0000003C0000001C0000089819A8183
:10100000092E000CAA0BBB0B40E050E027E030E0BB
:10101000841B950B2817390708F44EC0825B9F4F3D
:10102000FC010C94DF0980E40E94A20180E80E9488
:10103000A20161E070E085E793E00E94CB0160E0EF
:1010400070E084E893E00E94CB0181E090E09A8315
:10105000898335C080E40E94A20180E80E94A20139
:1010600060E070E085E793E00E94CB0161E070E012
:1010700084E893E00E94CB0181E090E09A83898329
:101080001EC0109234010E940D0380E40E94A20150
:1010900080E80E94A20160E070E083E993E00E9492
:1010A000CB0160E070E082EA93E00E94CB0181E036
:1010B00090E09A83898303C0000001C00000898109
:1010C0009A810F900F90DF91CF9108950F931F9306
:1010D000CF93DF93CDB7DEB728970FB6F894DEBF76
:1010E0000FBECDBF81E290E0FC01108282E290E071
:1010F0002FEFFC01208387E290E02FE0FC012083AA
:1011000088E290E020EFFC01208384E290E02FEF62
:10111000FC01208385E290E0FC0110828AE290E0ED
:10112000FC0110828BE290E02FEFFC01208383ED25
:1011300093E09E838D838EED93E098878F8382E08A
:1011400090E09C838B831092D30386E990E0A0E02B
:10115000B0E08093D4039093D503A093D603B093CB
:10116000D7038091D4039091D503A091D603B09179
:10117000D7038093D8039093D903A093DA03B09355
:10118000DB0382EF95E09093DD038093DC03109204
:10119000DE0382E390E0A0E0B0E08093DF03909371
:1011A000E003A093E103B093E2038091DF03909109
:1011B000E003A091E103B091E2038093E3039093F5
:1011C000E403A093E503B093E6038BE697E09093E6
:1011D000E8038093E7030E947E010E9466020E945A
:1011E000A70962E370E080E090E00E9450010E9455
:1011F000A0001A821982A2C089819A81880F991F42
:101200009E012F5F3F4F820F931F0496FC01808148
:101210009181FC01258136814781508589819A81A0
:10122000880F991FBE016F5F7F4F860F971F04962F
:10123000FC0180819181FC0181819281A381B48133
:10124000281739074A075B0708F445C089819A8146
:10125000880F991F9E012F5F3F4F820F931F0496A7
:10126000FC010081118189819A81880F991F9E015B
:101270002F5F3F4F820F931F0496FC018081918165
:10128000FC012185328589819A81880F991FAE01E1
:101290004F5F5F4F840F951F0496FC018081918101
:1012A000FC018081082E000C990BF9010995F801C9
:1012B000808389819A81880F991F9E012F5F3F4FFC
:1012C000820F931F0496FC0180819181FC0115829D
:1012D00016821782108689819A81880F991F9E0134
:1012E0002F5F3F4F820F931F0496FC0120813181B5
:1012F00089819A81880F991FAE014F5F5F4F840FDC
:10130000951F0496FC0180819181FC018581968165
:10131000A781B085C296A11DB11DF9018583968371
:10132000A783B08700008091C8038823E1F310925F
:10133000C80389819A8101969A83898329813A8198
:101340008B819C812817390708F456CF52CFCF9351
:10135000DF93CDB7DEB70E940D0380E40E94A201A7
:1013600080E80E94A20161E070E085E793E00E94BE
:10137000CB0160E070E08EEA93E00E94CB010000B8
:10138000DF91CF910895CF93DF93CDB7DEB70E9461
:101390000D0380E40E94A20180E80E94A20160E0A7
:1013A00070E08EEB93E00E94CB0160E070E082EA97
:1013B00093E00E94CB010000DF91CF910895EE0FE2
:1013C000FF1F0024001C0BBE0790F691E02D09942E
:1013D0000E941C0A08F481E008950E94480A88F0DF
:1013E0009F5798F0B92F9927B751B0F0E1F0660FE9
:1013F000771F881F991F1AF0BA95C9F714C0B1302A
:1014000091F00E94620AB1E008950C94620A672F7D
:10141000782F8827B85F39F0B93FCCF38695779558
:101420006795B395D9F73EF4909580957095619541
:101430007F4F8F4F9F4F0895990F0008550FAA0BAC
:10144000E0E8FEEF16161706E807F907C0F01216D7
:101450001306E407F50798F0621B730B840B950BDA
:1014600039F40A2661F0232B242B252B21F408952F
:101470000A2609F4A140A6958FEF811D811D0895CC
:1014800057FD9058440F551F59F05F3F71F0479535
:10149000880F97FB991F61F09F3F79F0879508951A
:1014A000121613061406551FF2CF4695F1DF08C039
:1014B000161617061806991FF1CF86957105610556
:1014C00008940895E894BB2766277727CB0197F9FE
:1014D00008950E941C0A08F48FEF08950E94810A63
:1014E0000C94F20A0E94E40A38F00E94EB0A20F001
:1014F000952311F00C94DB0A0C94E10A11240C944E
:10150000630A0E94400A70F3959FC1F3950F50E063
:10151000551F629FF001729FBB27F00DB11D639FA5
:10152000AA27F00DB11DAA1F649F6627B00DA11D4B
:10153000661F829F2227B00DA11D621F739FB00DF1
:10154000A11D621F839FA00D611D221F749F332761
:10155000A00D611D231F849F600D211D822F762FFA
:101560006A2F11249F5750409AF0F1F088234AF0D7
:10157000EE0FFF1FBB1F661F771F881F9150504043
:10158000A9F79E3F510580F00C94DB0A0C94630A86
:101590005F3FE4F3983ED4F3869577956795B795CA
:1015A000F795E7959F5FC1F7FE2B880F911D9695E4
:1015B000879597F9089597F99F6780E870E060E054
:1015C00008959FEF80EC089500240A9416161706DC
:1015D00018060906089500240A9412161306140624
:1015E00005060895092E0394000C11F4882352F087
:1015F000BB0F40F4BF2B11F460FF04C06F5F7F4F3F
:101600008F4F9F4F0895FC0101900020E9F78095CE
:0C16100090958E0F9F1F0895F894FFCF57
:10161C000000000200000000770000000000010044
:10162C00000087008B008D008E0047004B004D00A2
:10163C004E0027002B002D002E0017001B001D0054
:10164C001E0096000100000000000000005F00007A
:10165C0000000700070000147F147F1400242A7F69
:10166C002A120023130864620036495522500000E8
:10167C000503000000001C224100000041221C0058
:10168C000014083E08140008083E080800005030FA
:10169C000000000808080808000060600000002036
:1016AC0010080402003E5149453E0000427F4000B4
:1016BC00004261514946002141454B31001814123A
:1016CC007F10002745454539003C4A494930000107
:1016DC007109050300364949493600064949291E56
:1016EC0000003636000000005636000000081422B8
:1016FC0041000014141414140000412214080002B8
:10170C000151090600324979413E007E1111117ECA
:10171C00007F49494936003E41414122007F414109
:10172C00221C007F49494941007F09090901003EFB
:10173C004149497A007F0808087F0000417F410039
:10174C00002040413F01007F08142241007F4040AF
:10175C004040007F020C027F007F0408107F003E97
:10176C004141413E007F09090906003E4151215E7D
:10177C00007F091929460046494949310001017F7A
:10178C000101003F4040403F001F2040201F003F10
:10179C004038403F006314081463000708700807C2
:1017AC0000615149454300007F414100000204089B
:1017BC001020000041417F0000040201020400409F
:1017CC004040404000000102040000205454547872
:1017DC00007F484444380038444444200038444492
:1017EC00487F00385454541800087E090102000C3C
:1017FC005252523E007F080404780000447D4000A1
:10180C00002040443D00007F102844000000417F30
:10181C004000007C04180478007C0804047800382C
:10182C0044444438007C1414140800081414187C24
:10183C00007C0804040800485454542000043F441D
:10184C004020003C4040207C001C2040201C003CE0
:10185C004030403C004428102844000C5050503C70
:10186C00004464544C440000083641000000007FE2
:10187C00000000004136080000100808100800782D
:10188C004641467800312E205374617274204761B2
:10189C006D652000322E204C696768742053686F88
:1018AC00772000312E204C564C3120202020202037
:1018BC002000322E2053636F72653A203100322E95
:1018CC00204C696768742053686F77202000312E94
:0818DC00204C564C31200000A5
:00000001FF
