:100000000C946C000C948B000C948B000C948B0063
:100010000C948B000C948B000C948B000C948B0034
:100020000C948B000C948B000C948B000C948B0024
:100030000C948B000C9404010C948B000C948B009A
:100040000C948B000C948B000C948B000C948B0004
:100050000C948B000C948B000C948B000C948B00F4
:100060000C948B000C948B000C948B000C948B00E4
:100070000C948B000C948B000C948B000C948B00D4
:100080000C948B000C948B000C948B00EF06F40600
:10009000430785075A078507710785078507010804
:1000A000010801089D070108B4070108CB07D8071C
:1000B00026083308DB08DB084108DB085B08DB089F
:1000C000DB08DB08390A390AF3087A09390AF70923
:1000D000390A390A220A0B0A11241FBECFEFD0E4D5
:1000E000DEBFCDBF14E0A0E0B1E0E4E8FEE100E057
:1000F0000BBF02C007900D92A63AB107D9F725E0D1
:10010000A6EAB4E001C01D92A231B207E1F70E9455
:100110004F0A0C94400F0C940000CF93DF9300D053
:100120001F92CDB7DEB789837B836A8389818A304A
:1001300031F48A819B81BC018DE00E948D0080ECAE
:1001400090E0FC018081882F90E080729927892BB4
:10015000B1F386EC90E02981FC01208380E090E0FF
:100160000F900F900F90DF91CF910895CF93DF9371
:10017000CDB7DEB781E890E02BE0FC01208388E872
:1001800090E02DE730E0FC01318320838FE690E0A2
:1001900022E0FC01208384E890E0FC0111821082BF
:1001A00080910E0190910F01A0911001B091110169
:1001B0008093A7049093A804A093A904B093AA04E1
:1001C0008FE590E02FE530E0F90120812068FC0107
:1001D00020830000DF91CF910895CF93DF93CDB7B7
:1001E000DEB781E890E0FC0110820000DF91CF9142
:1001F0000895CF93DF93CDB7DEB781E08093A60457
:100200000000DF91CF9108951F920F9200905F0040
:100210000F92112400905B000F922F933F934F9306
:100220005F936F937F938F939F93AF93BF93EF935E
:10023000FF93CF93DF93CDB7DEB78091A704909162
:10024000A804A091A904B091AA040197A109B10939
:100250008093A7049093A804A093A904B093AA0440
:100260008091A7049091A804A091A904B091AA0438
:10027000892B8A2B8B2B91F40E94F90080910E011F
:1002800090910F01A0911001B09111018093A704EA
:100290009093A804A093A904B093AA040000DF914E
:1002A000CF91FF91EF91BF91AF919F918F917F91EE
:1002B0006F915F914F913F912F910F9000925B0052
:1002C0000F9000925F000F901F901895CF93DF93CF
:1002D00000D000D0CDB7DEB769837A838B839C834F
:1002E00089819A81AB81BC8180930E0190930F012B
:1002F000A0931001B093110180910E0190910F0114
:10030000A0911001B09111018093A7049093A804CB
:10031000A093A904B093AA0400000F900F900F902F
:100320000F90DF91CF910895CF93DF93CDB7DEB7D4
:100330008CE490E021E5FC0120830000DF91CF9167
:100340000895CF93DF931F92CDB7DEB789838EE4F4
:1003500090E02981FC01208300008DE490E0FC0105
:1003600080818823D4F700000F90DF91CF9108950A
:10037000CF93DF931F92CDB7DEB7898385E290E0FC
:1003800025E230E0F90120812D7FFC01208385E208
:1003900090E025E230E0F90120812F7EFC012083EE
:1003A00089810E94A10185E290E025E230E0F90117
:1003B00020812061FC01208300000F90DF91CF910C
:1003C0000895CF93DF93CDB7DEB72B970FB6F89490
:1003D000DEBF0FBECDBF998788877B876A871D8266
:1003E00085E290E025E230E0F90120812260FC0105
:1003F000208385E290E025E230E0F90120812F7E24
:10040000FC012083888599850E94D40E9F838E836A
:100410001A82198256C01C821B8249C08A859B851C
:10042000892BF9F089819A8128853985820F931F5C
:10043000FC018081082E000C990B9C01205231098F
:10044000C901880F991F820F931F880F991F2B8155
:100450003C81820F931F85599E4FFC0180818095BE
:100460001DC089819A8128853985820F931FFC01DF
:100470008081082E000C990B9C0120523109C90182
:10048000880F991F820F931F880F991F2B813C8122
:10049000820F931F85599E4FFC0180818D838D8132
:1004A0000E94A1018B819C8101969C838B838B810F
:1004B0009C8106970CF4B2CF89819A8101969A8328
:1004C000898329813A818E819F81281739070CF40D
:1004D000A2CF85E290E025E230E0F90120812061A1
:1004E000FC01208300002B960FB6F894DEBF0FBEF0
:1004F000CDBFDF91CF910895CF93DF93CDB7DEB716
:100500002E970FB6F894DEBF0FBECDBF85E290E008
:1005100025E230E0F90120812E7FFC01208380E07C
:1005200090E0ACEDB2E489839A83AB83BC8320E096
:1005300030E04AEF54E469817A818B819C810E948A
:10054000E50DDC01CB018D839E83AF83B88720E06E
:1005500030E040E85FE36D817E818F8198850E9465
:100560005F0D88232CF481E090E09A8789873FC053
:1005700020E03FEF4FE757E46D817E818F819885C2
:100580000E94E00D18164CF520E030E040E251E406
:1005900069817A818B819C810E94E50DDC01CB0110
:1005A000BC01CD010E94640DDC01CB019A878987D3
:1005B0000FC088EC90E09C878B878B859C8501978A
:1005C000F1F79C878B8789859A8501979A87898718
:1005D00089859A85892B69F714C06D817E818F8109
:1005E00098850E94640DDC01CB019A8789878985F3
:1005F0009A859E878D878D859E850197F1F79E87C9
:100600008D8785E290E025E230E0F90120812160CC
:10061000FC01208381E20E94B80180EC0E94B801B5
:1006200083E10E94B80180E20E94B8018CE00E9440
:10063000B80100002E960FB6F894DEBF0FBECDBFF6
:10064000DF91CF910895CF93DF9300D0CDB7DEB780
:1006500085E290E025E230E0F90120812F7EFC0167
:10066000208385E290E025E230E0F90120812260DC
:10067000FC0120831A82198208C080E00E94A10137
:1006800089819A8101969A83898389819A81883F99
:1006900091409CF385E290E025E230E0F901208171
:1006A0002D7FFC01208385E290E025E230E0F90116
:1006B00020812061FC01208300000F900F90DF91CA
:1006C000CF910895CF93DF93CDB7DEB78CE790E05D
:1006D00020E4FC0120838AE790E027E8FC012083E6
:1006E0000000DF91CF910895CF93DF931F92CDB794
:1006F000DEB789830E9462038981817089838CE7D8
:1007000090E02CE730E0F90130812981232BFC01B6
:1007100020838AE790E02AE730E0F9012081206415
:10072000FC01208300008AE790E0FC018081882F93
:1007300090E080749927892BB1F788E790E0FC015D
:10074000808191810F90DF91CF910895CF93DF93B6
:1007500000D000D0CDB7DEB79A8389837C836B83CA
:1007600089819A818D32914008F43FC089819A81B4
:1007700088359240D0F58B819C8181329340A8F1DD
:100780008091AC048330B1F48091AB04282F30E029
:100790008091AC04882F90E0220F331F220F331F6B
:1007A000820F931F880F991F8E5E9E4FFC018081E0
:1007B000918127C28091AC048F5F8093AC048091BB
:1007C000AB04282F30E08091AC04882F90E0220FFA
:1007D000331F220F331F820F931F880F991F8E5EC6
:1007E0009E4FFC01808191810CC289819A818D3557
:1007F000924008F444C08B819C818D3B924008F468
:100800003EC08091AB04833021F08091AC048330F2
:10081000B1F48091AB04282F30E08091AC04882F94
:1008200090E0220F331F220F331F820F931F880F78
:10083000991F8E5E9E4FFC0180819181E2C1809163
:10084000AB048F5F8093AB048091AC048F5F809387
:10085000AC048091AB04282F30E08091AC04882F49
:1008600090E0220F331F220F331F820F931F880F38
:10087000991F8E5E9E4FFC0180819181C2C189814A
:100880009A818132934008F43FC08B819C818D32E4
:100890009140D0F18B819C8188359240A8F5809160
:1008A000AB048330B1F48091AB04282F30E0809109
:1008B000AC04882F90E0220F331F220F331F820FCA
:1008C000931F880F991F8E5E9E4FFC01808191813E
:1008D00098C18091AB048F5F8093AB048091AB048F
:1008E000282F30E08091AC04882F90E0220F331F36
:1008F000220F331F820F931F880F991F8E5E9E4F0A
:10090000FC01808191817DC189819A8181329340EE
:1009100008F444C08B819C81883C910508F03EC05E
:100920008091AB04833021F08091AC048823B1F432
:100930008091AB04282F30E08091AC04882F90E0A8
:10094000220F331F220F331F820F931F880F991F0F
:100950008E5E9E4FFC018081918153C18091AB04DA
:100960008F5F8093AB048091AC0481508093AC0482
:100970008091AB04282F30E08091AC04882F90E068
:10098000220F331F220F331F820F931F880F991FCF
:100990008E5E9E4FFC018081918133C189819A8155
:1009A0008D32914008F43FC089819A818835924008
:1009B000D0F58B819C81883C9105A8F58091AC0491
:1009C0008823B1F48091AB04282F30E08091AC04EF
:1009D000882F90E0220F331F220F331F820F931FA7
:1009E000880F991F8E5E9E4FFC018081918109C105
:1009F0008091AC0481508093AC048091AB04282F8B
:100A000030E08091AC04882F90E0220F331F220F3A
:100A1000331F820F931F880F991F8E5E9E4FFC011C
:100A200080819181EEC089819A81883C910508F08E
:100A300044C08B819C81883C910508F03EC0809128
:100A4000AB04882321F08091AC048823B1F4809119
:100A5000AB04282F30E08091AC04882F90E0220F67
:100A6000331F220F331F820F931F880F991F8E5E33
:100A70009E4FFC0180819181C4C08091AB04815064
:100A80008093AB048091AC0481508093AC0480913E
:100A9000AB04282F30E08091AC04882F90E0220F27
:100AA000331F220F331F820F931F880F991F8E5EF3
:100AB0009E4FFC0180819181A4C089819A81883CEC
:100AC000910508F03FC08B819C818D329140D0F11F
:100AD0008B819C8188359240A8F58091AB04882356
:100AE000B1F48091AB04282F30E08091AC04882FC2
:100AF00090E0220F331F220F331F820F931F880FA6
:100B0000991F8E5E9E4FFC01808191817AC08091F9
:100B1000AB0481508093AB048091AB04282F30E06C
:100B20008091AC04882F90E0220F331F220F331FD7
:100B3000820F931F880F991F8E5E9E4FFC0180814C
:100B400091815FC089819A81883C910508F044C0F9
:100B50008B819C818132934008F43EC08091AB042C
:100B6000882321F08091AC048330B1F48091AB04F0
:100B7000282F30E08091AC04882F90E0220F331FA3
:100B8000220F331F820F931F880F991F8E5E9E4F77
:100B9000FC018081918135C08091AB0481508093AC
:100BA000AB048091AC048F5F8093AC048091AB0464
:100BB000282F30E08091AC04882F90E0220F331F63
:100BC000220F331F820F931F880F991F8E5E9E4F37
:100BD000FC018081918115C08091AB04282F30E009
:100BE0008091AC04882F90E0220F331F220F331F17
:100BF000820F931F880F991F8E5E9E4FFC0180818C
:100C000091810F900F900F900F90DF91CF910895E9
:100C1000CF93DF9300D000D000D0CDB7DEB79E8356
:100C20008D8380E00E9474039A83898381E00E940F
:100C300074039C838B832B813C8189819A81B901C8
:100C40000E94A6039093AE048093AD048D819E8193
:100C50008230910509F452C0833091052CF400973D
:100C600051F0019769F04FC083309105A9F10497C5
:100C700009F446C048C081E090E09E838D8343C064
:100C800080913401882309F03DC08091B004813007
:100C9000C9F520913201309133018091AD049091DA
:100CA000AE042817390729F481E090E09E838D83F4
:100CB00004C082E090E09E838D8389E290E0FC0195
:100CC0008081882F90E088709927892BD9F483E060
:100CD00090E09E838D8316C089E290E0FC018081C4
:100CE000882F90E088709927892B19F483E090E091
:100CF00002C084E090E09E838D8305C0000003C0A5
:100D0000000001C000008D819E818230910571F04C
:100D1000833091052CF4009751F1019751F12CC0CB
:100D20008330910541F10497A1F026C08091AD0474
:100D30009091AE040E94BD0B8091AD049091AE04E1
:100D4000909333018093320181E090E09E838D8304
:100D500013C00E943E0C81E090E09E838D8381E071
:100D6000809334018FE090E00E94BD0B05C000002D
:100D700003C0000001C000008D819E8126960FB641
:100D8000F894DEBF0FBECDBFDF91CF910895CF9312
:100D9000DF9300D0CDB7DEB79A83898389E290E0F4
:100DA000FC018081882F90E088709927892B11F4AD
:100DB0000E943E0C89819A81092E000CAA0BBB0B64
:100DC00040E050E028E030E0841B950B28173907FD
:100DD00008F499C08A5B9F4FFC010C94420D81E09E
:100DE00090E09A83898394C080913401813009F026
:100DF0008EC089E290E0FC018081882F90E08170B4
:100E00009927892B29F482E090E09A8389837FC017
:100E100089E290E0FC018081882F90E08270992720
:100E2000892B29F484E090E09A83898370C089E259
:100E300090E0FC018081882F90E084709927892BB5
:100E400049F480916601813029F486E090E09A832C
:100E5000898318C089E290E0FC018081882F90E0AE
:100E600084709927892B49F48091B504813029F445
:100E700088E090E09A83898305C081E090E09A83BE
:100E8000898345C044C089E290E0FC018081882FBD
:100E900090E081709927892B19F482E090E002C0DC
:100EA00083E090E09A83898381E0809366011092C9
:100EB000B5042EC089E290E0FC018081882F90E08B
:100EC00082709927892B19F484E090E002C085E0B4
:100ED00090E09A8389831092660181E08093B50443
:100EE00017C089E290E0FC018081882F90E0847037
:100EF0009927892B19F486E090E002C087E090E002
:100F00009A83898305C0000003C0000001C000006F
:100F100089819A81092E000CAA0BBB0B40E050E09E
:100F200028E030E0841B950B2817390708F467C0C8
:100F3000815B9F4FFC010C94420D80E40E94B8013C
:100F400080E80E94B80161E070E08BEA93E00E94C3
:100F5000E10160E070E08AEB93E00E94E10181E052
:100F600090E09A8389834EC080E40E94B80180E8B3
:100F70000E94B80160E070E08BEA93E00E94E1011A
:100F800061E070E08AEB93E00E94E10181E090E093
:100F90009A83898337C010923401809135019091F2
:100FA00036010E94760C81E090E09A8389832AC002
:100FB0008091B404882F90E0895C9E4FFC01808171
:100FC000882F90E00E94BD0B8091B3048F3260F0B7
:100FD00081E090E09A8389831092B4041092B30464
:100FE00080E090E00E94BD0B8091B4048F5F8093FD
:100FF000B4048091B3048F5F8093B30403C00000F6
:1010000001C0000089819A810F900F90DF91CF91EC
:101010000895CF93DF9300D000D0CDB7DEB79C8387
:101020008B838B819C81092E000CAA0BBB0B40E0AB
:1010300050E029E030E0841B950B2817390708F4AD
:10104000BAC0885A9F4FFC010C94420D0E94BB0C01
:1010500081E090E0909336018093350181E090E04B
:101060009C838B83ABC080913401882329F482E078
:1010700090E09C838B83A2C081E090E09C838B8373
:101080009DC080913201909133010E94BD0B89E295
:1010900090E0FC018081882F90E084709927892B53
:1010A00029F485E090E09C838B8388C084E090E005
:1010B0009C838B8383C08091E5049091E60418168D
:1010C00019060CF07AC084E090E09C838B838091B9
:1010D000E5049091E6040197880F991F880F991FE6
:1010E0008A529B4FFC01208131818091AB04882F73
:1010F00090E02817390739F58091E5049091E604CE
:101100000197880F991F880F991F88529B4FFC01E8
:10111000208131818091AC04882F90E02817390715
:1011200091F480E190E00E94BD0B8091E5049091E4
:10113000E60401979093E6048093E50484E090E050
:101140009C838B8308C080E290E00E94BD0B88E006
:1011500090E09C838B838091E5049091E604892B39
:1011600099F480E190E00E94BD0B8091350190914F
:1011700036010196909336018093350181E090E02D
:101180009C838B830E94BB0C8091E5049091E604C4
:10119000892B51F48091350190913601049721F407
:1011A00089E090E09C838B8380913501909136019A
:1011B0000E94760C02C0000001C000008B819C815F
:1011C000092E000CAA0BBB0B40E050E029E030E0F8
:1011D000841B950B2817390708F44BC18E599F4F74
:1011E000FC010C94420D1A8219826DC00E94C50E3A
:1011F00025E030E0B9010E942E0D9093EA0480931F
:10120000E9040E94C50E25E030E0B9010E942E0DD0
:101210009093EC048093EB042091E9043091EA046C
:101220008091EB049091EC04220F331F220F331FA7
:10123000820F931F880F991F8A549B4FFC01808156
:101240009181019731F489819A8101979A838983E9
:1012500035C02091E9043091EA0489819A81880F90
:10126000991F880F991F8A529B4FFC01318320835D
:101270002091EB043091EC0489819A81880F991FA9
:10128000880F991F88529B4FFC0131832083209146
:10129000E9043091EA048091EB049091EC04220F70
:1012A000331F220F331F820F931F880F991F8A54F9
:1012B0009B4F21E030E0FC013183208389819A81BA
:1012C00001969A8389838091350190913601298115
:1012D0003A81281739070CF489CF83E090E09C838A
:1012E0008B8380913501909136019093E604809331
:1012F000E504C6C08091E204843108F452C08091B4
:10130000E3049091E4040B97BCF01092E404109273
:10131000E3048091E7049091E80401969093E80437
:101320008093E7048091E5049091E60401979093FF
:10133000E6048093E5043EC08091E3049091E404C8
:1013400001969093E4048093E3048091E5049091E6
:10135000E6040197880F991F880F991F8A529B4FA7
:10136000FC01208131818091E5049091E604019790
:10137000880F991F880F991F88529B4FFC0180810D
:101380009181220F331F220F331F820F931F880F6B
:10139000991F8E5E9E4FFC01808191810E94BD0B42
:1013A00009C08091E2048F5F8093E20480E190E0C5
:1013B0000E94BD0B8091E5049091E604892B09F011
:1013C0005AC01092E20484E090E09C838B8381E019
:1013D0008093B00480E190E00E94BD0B80913501C4
:1013E000909136019093E6048093E50444C089E22D
:1013F00090E0FC018081882F90E084709927892BF0
:1014000029F485E090E09C838B833AC086E090E0ED
:101410009C838B8335C00E94220C81E08093B204B0
:1014200089E290E0FC018081882F90E08870992704
:10143000892B19F50E943E0C1C821B8281E080934F
:1014400034011BC00E94060C81E08093B20489E243
:1014500090E0FC018081882F90E088709927892B8B
:1014600071F40E943E0C1C821B8281E08093340147
:1014700006C0000005C0000003C0000001C000005D
:1014800080913401813011F41C821B828B819C81FC
:101490000F900F900F900F90DF91CF9108950F93C1
:1014A0001F93CF93DF93CDB7DEB72A970FB6F8948B
:1014B000DEBF0FBECDBF80E090E00E941B0DDC01BF
:1014C000CB010E94C90E81E290E0FC01108282E211
:1014D00090E02FEFFC01208387E290E02FE0FC01F9
:1014E000208388E290E020EFFC01208384E290E0FA
:1014F0002FEFFC01208385E290E0FC0110828AE25C
:1015000090E0FC0110828BE290E02FEFFC01208341
:1015100086E0E9ECF3E0DE01159601900D928A95E4
:10152000E1F783E090E09C838B831092ED0484E6E6
:1015300090E0A0E0B0E08093EE049093EF04A093DD
:10154000F004B093F1048091EE049091EF04A09127
:10155000F004B091F1048093F2049093F304A0930B
:10156000F404B093F50488E096E09093F704809338
:10157000F6041092F80482E390E0A0E0B0E08093DB
:10158000F9049093FA04A093FB04B093FC048091B7
:10159000F9049091FA04A091FB04B091FC048093AB
:1015A000FD049093FE04A093FF04B093000587EC24
:1015B00096E090930205809301051092030582E363
:1015C00090E0A0E0B0E08093040590930505A0931F
:1015D0000605B09307058091040590910505A0913B
:1015E0000605B09107058093080590930905A0931F
:1015F0000A05B0930B0589E098E090930D05809360
:101600000C050E9494010E947C020E943E0C62E341
:1016100070E080E090E00E9466010E94B6001A82AD
:101620001982A2C089819A81880F991F9E012F5F1C
:101630003F4F820F931F0496FC0180819181FC0132
:10164000258136814781508589819A81880F991F2C
:10165000BE016F5F7F4F860F971F0496FC0180814C
:101660009181FC0181819281A381B481281739077E
:101670004A075B0708F445C089819A81880F991F42
:101680009E012F5F3F4F820F931F0496FC01008144
:10169000118189819A81880F991F9E012F5F3F4F89
:1016A000820F931F0496FC0180819181FC012185AA
:1016B000328589819A81880F991FAE014F5F5F4FF4
:1016C000840F951F0496FC0180819181FC0180812B
:1016D000082E000C990BF9010995F8018083898186
:1016E0009A81880F991F9E012F5F3F4F820F931F92
:1016F0000496FC0180819181FC011582168217827B
:10170000108689819A81880F991F9E012F5F3F4F14
:10171000820F931F0496FC012081318189819A8177
:10172000880F991FAE014F5F5F4F840F951F04967E
:10173000FC0180819181FC0185819681A781B08522
:10174000C296A11DB11DF90185839683A783B08739
:1017500000008091A6048823E1F31092A6048981F9
:101760009A8101969A83898329813A818B819C8110
:101770002817390708F456CF52CFCF93DF9300D004
:1017800000D0CDB7DEB79C838B8388E290E0FC016C
:1017900010821A82198225C088E290E028E0FC01BC
:1017A000208388E290E028E230E0F90140812B813B
:1017B0003C81098002C0369527950A94E2F7217092
:1017C000242BFC01208388E290E028E230E0F9013C
:1017D00020812260FC01208389819A8101969A836D
:1017E000898389819A810897BCF288E290E028E297
:1017F00030E0F90120812460FC01208300000F907B
:101800000F900F900F90DF91CF910895CF93DF93BA
:10181000CDB7DEB70E94230380E40E94B80180E8C0
:101820000E94B80161E070E08FEC93E00E94E1015A
:1018300060E070E08EED93E00E94E1010000DF9136
:10184000CF910895CF93DF93CDB7DEB70E942303E6
:1018500080E40E94B80180E80E94B80161E070E075
:1018600082E094E00E94E10160E070E081E194E0B8
:101870000E94E1010000DF91CF910895CF93DF93A3
:10188000CDB7DEB70E94230380E40E94B80180E850
:101890000E94B80161E070E08BEA93E00E94E101F0
:1018A00060E070E085E494E00E94E1010000DF91D7
:1018B000CF910895CF93DF93CDB7DEB70E94230376
:1018C00080E40E94B80180E80E94B80160E070E006
:1018D00085E594E00E94E10160E070E084E694E038
:1018E0000E94E1010000DF91CF910895CF93DF9333
:1018F00000D0CDB7DEB79A8389830E94230380E4AA
:101900000E94B80180E80E94B80189819A810197FC
:1019100061F460E070E085E594E00E94E10160E040
:1019200070E080E794E00E94E10189819A8102974A
:1019300061F460E070E08CE794E00E94E10160E017
:1019400070E084E694E00E94E10189819A81039726
:1019500061F460E070E08BE894E00E94E10160E0F7
:1019600070E08AE994E00E94E10100000F900F907E
:10197000DF91CF910895CF93DF93CDB7DEB710926B
:10198000B7041092B6041092B9041092B8041092E1
:10199000BB041092BA041092BD041092BC041092C1
:1019A000BF041092BE041092C1041092C0041092A1
:1019B000C3041092C2041092C5041092C404109281
:1019C000C7041092C6041092C9041092C804109261
:1019D000CB041092CA041092CD041092CC04109241
:1019E000CF041092CE041092D1041092D004109221
:1019F000D3041092D2041092D5041092D404109201
:101A0000D7041092D6041092D9041092D8041092E0
:101A1000DB041092DA041092DD041092DC041092C0
:101A2000DF041092DE041092E1041092E004000042
:101A3000DF91CF910895FC010FB6F89460910E05E7
:101A400070910F0580911005909111050FBE309790
:101A500021F06083718382839383089597FB072E1F
:101A600016F4009407D077FD09D00E944B0D07FCB7
:101A700005D03EF4909581959F4F0895709561959E
:101A80007F4F0895EE0FFF1F0024001C0BBE079030
:101A9000F691E02D0994AA1BBB1B51E107C0AA1FB8
:101AA000BB1FA617B70710F0A61BB70B881F991FFF
:101AB0005A95A9F780959095BC01CD0108950E9493
:101AC000930D08F481E008950E94BF0D88F09F57A0
:101AD00098F0B92F9927B751B0F0E1F0660F771F52
:101AE000881F991F1AF0BA95C9F714C0B13091F048
:101AF0000E94D90DB1E008950C94D90D672F782F6D
:101B00008827B85F39F0B93FCCF38695779567950C
:101B1000B395D9F73EF490958095709561957F4F78
:101B20008F4F9F4F0895990F0008550FAA0BE0E8BB
:101B3000FEEF16161706E807F907C0F0121613068F
:101B4000E407F50798F0621B730B840B950B39F4CF
:101B50000A2661F0232B242B252B21F408950A2635
:101B600009F4A140A6958FEF811D811D089557FDB1
:101B70009058440F551F59F05F3F71F04795880FFB
:101B800097FB991F61F09F3F79F087950895121692
:101B900013061406551FF2CF4695F1DF08C016163E
:101BA00017061806991FF1CF8695710561050894EF
:101BB0000895E894BB2766277727CB0197F9089506
:101BC0000E94930D08F48FEF08950E94F80D0C9475
:101BD000690E0E945B0E38F00E94620E20F0952381
:101BE00011F00C94520E0C94580E11240C94DA0D32
:101BF0000E94B70D70F3959FC1F3950F50E0551FEC
:101C0000629FF001729FBB27F00DB11D639FAA2751
:101C1000F00DB11DAA1F649F6627B00DA11D661FA0
:101C2000829F2227B00DA11D621F739FB00DA11DC1
:101C3000621F839FA00D611D221F749F3327A00D7B
:101C4000611D231F849F600D211D822F762F6A2F17
:101C500011249F5750409AF0F1F088234AF0EE0F7C
:101C6000FF1FBB1F661F771F881F91505040A9F7A9
:101C70009E3F510580F00C94520E0C94DA0D5F3F9C
:101C8000E4F3983ED4F3869577956795B795F795E5
:101C9000E7959F5FC1F7FE2B880F911D969587955D
:101CA00097F9089597F99F6780E870E060E00895DC
:101CB0009FEF80EC089500240A9416161706180664
:101CC0000906089500240A94121613061406050640
:101CD0000895092E0394000C11F4882352F0BB0FD1
:101CE00040F4BF2B11F460FF04C06F5F7F4F8F4F34
:101CF0009F4F08958F929F92AF92BF92CF92DF92A3
:101D0000EF92FF92CF93DF93EC01688179818A8112
:101D10009B81611571058105910521F464E279EDDE
:101D20008BE597E02DE133EF41E050E00E94DD0EBE
:101D300049015A019B01AC01A7EAB1E40E94FC0EE3
:101D40006B017C01ACEEB4EFA50194010E940A0F77
:101D5000DC01CB018C0D9D1DAE1DBF1DB7FF03C067
:101D60000197A109B04888839983AA83BB839F7791
:101D7000DF91CF91FF90EF90DF90CF90BF90AF9029
:101D80009F908F9008950C947A0E87E691E00C94C2
:101D90007A0EA0E0B0E08093670190936801A09371
:101DA0006901B0936A010895FC0101900020E9F7F0
:101DB000809590958E0F9F1F0895052E97FB1EF41A
:101DC00000940E94F40E57FD07D00E940F0F07FCED
:101DD00003D04EF40C94F40E509540953095219517
:101DE0003F4F4F4F5F4F0895909580957095619547
:101DF0007F4F8F4F9F4F08950E94310FA59F900DE9
:101E0000B49F900DA49F800D911D11240895B7FFDC
:101E10000C94FC0E0E94FC0E821B930B0895A1E211
:101E20001A2EAA1BBB1BFD010DC0AA1FBB1FEE1F54
:101E3000FF1FA217B307E407F50720F0A21BB30B9F
:101E4000E40BF50B661F771F881F991F1A9469F71B
:101E500060957095809590959B01AC01BD01CF0177
:101E60000895A29FB001B39FC001A39F700D811D73
:101E70001124911DB29F700D811D1124911D089593
:041E8000F894FFCF04
:101E840000000002000000008D00000000000100BE
:101E9400000087008B008D008E0047004B004D0032
:101EA4004E0027002B002D002E0017001B001D00E4
:101EB4001E00870001010080402010F7FBFDFE8713
:101EC4008B8D8E4E4D4B47272B2D2E1E1D1B1727FA
:101ED40047878B4B2B1B1D2D4D8D8E4E2E1EF0F0E8
:101EE400F0F0F0F0F0F0010100000000000000004C
:101EF4000000005F000000000700070000147F14CA
:101F04007F1400242A7F2A120023130864620036F7
:101F14004955225000000503000000001C22410026
:101F2400000041221C000014083E08140008083E6A
:101F340008080000503000000008080808080000E5
:101F440060600000002010080402003E5149453E34
:101F54000000427F40000042615149460021414552
:101F64004B31001814127F10002745454539003CB9
:101F74004A49493000017109050300364949493687
:101F840000064949291E0000363600000000563676
:101F9400000000081422410000141414141400005A
:101FA4004122140800020151090600324979413ED8
:101FB400007E1111117E007F49494936003E41419E
:101FC4004122007F4141221C007F49494941007F51
:101FD40009090901003E4149497A007F0808087F40
:101FE4000000417F4100002040413F01007F081470
:101FF4002241007F40404040007F020C027F007F6E
:102004000408107F003E4141413E007F0909090652
:10201400003E4151215E007F091929460046494985
:1020240049310001017F0101003F4040403F001F52
:102034002040201F003F4038403F006314081463D1
:1020440000070870080700615149454300007F41BB
:102054004100000204081020000041417F000004F8
:10206400020102040040404040400000010204001C
:10207400002054545478007F484444380038444481
:10208400442000384444487F00385454541800080D
:102094007E090102000C5252523E007F080404786B
:1020A4000000447D4000002040443D00007F102893
:1020B40044000000417F4000007C04180478007C48
:1020C40008040478003844444438007C1414140888
:1020D40000081414187C007C0804040800485454B4
:1020E400542000043F444020003C4040207C001C1D
:1020F4002040201C003C4030403C00442810284430
:10210400000C5050503C004464544C4400000836C9
:1021140041000000007F000000004136080000106C
:102124000808100800784641467800312E20537480
:102134006172742047616D652000322E204C6967FE
:1021440068742053686F772000ED04F804030531A8
:102154002E20596F75204C4F534521212000322EDB
:102164002050726573732052656420427574746FD5
:102174006E20746F20706C617920616761696E20D4
:102184002000312E20596F752057494E21212120DE
:1021940000322E2053636F72653A203320202020B2
:1021A400202020205072657373205265642042758C
:1021B40074746F6E20746F20706C61792061676134
:1021C400696E202000322E204C69676874205368A1
:1021D4006F77202000312E204C564C3120202020B7
:1021E40020202000322E2053636F72653A20310084
:1021F400322E2053636F72653A203000312E204C0A
:10220400564C322020202020202000312E204C56F5
:102214004C332020202020202000322E2053636FB6
:0622240072653A20320051
:00000001FF
