:100000000C944E000C946D000C946D000C946D00DB
:100010000C946D000C946D000C946D000C946D00AC
:100020000C946D000C946D000C946D000C946D009C
:100030000C946D000C94E6000C946D000C946D0013
:100040000C946D000C946D000C946D000C946D007C
:100050000C946D000C946D000C946D000C946D006C
:100060000C946D000C946D000C946D000C946D005C
:100070000C946D000C946D000C946D000C946D004C
:100080000C946D000C946D000C946D009E01A70102
:10009000CF0126027D028F02E101380211241FBE2A
:1000A000CFEFD0E4DEBFCDBF11E0A0E0B1E0E4E6E9
:1000B000F6E000E00BBF02C007900D92A231B1073D
:1000C000D9F721E0A2E1B1E001C01D92AC31B20745
:1000D000E1F70E94F3020C9430030C940000CF93DC
:1000E000DF9300D01F92CDB7DEB789837B836A830D
:1000F00089818A3031F48A819B81BC018DE00E9424
:100100006F0080EC90E0FC018081882F90E080728D
:100110009927892BB1F386EC90E02981FC0120839B
:1001200080E090E00F900F900F90DF91CF910895B5
:10013000CF93DF93CDB7DEB781E890E02BE0FC01F1
:10014000208388E890E02DE730E0FC0131832083B4
:100150008FE690E022E0FC01208384E890E0FC013F
:100160001182108280910E0190910F01A0911001D7
:10017000B09111018093130190931401A093150184
:10018000B09316018FE590E02FE530E0F901208172
:100190002068FC0120830000DF91CF910895CF9368
:1001A000DF93CDB7DEB781E890E0FC01108200005C
:1001B000DF91CF910895CF93DF93CDB7DEB781E084
:1001C000809312010000DF91CF9108951F920F924A
:1001D00000905F000F92112400905B000F922F930C
:1001E0003F934F935F936F937F938F939F93AF93BF
:1001F000BF93EF93FF93CF93DF93CDB7DEB780919B
:10020000130190911401A0911501B091160101976D
:10021000A109B1098093130190931401A0931501D2
:10022000B09316018091130190911401A0911501D2
:10023000B0911601892B8A2B8B2B91F40E94DB0045
:1002400080910E0190910F01A0911001B0911101C8
:100250008093130190931401A0931501B09316019C
:100260000000DF91CF91FF91EF91BF91AF919F91EE
:100270008F917F916F915F914F913F912F910F904F
:1002800000925B000F9000925F000F901F901895F6
:10029000CF93DF9300D000D0CDB7DEB769837A83E8
:1002A0008B839C8389819A81AB81BC8180930E0171
:1002B00090930F01A0931001B093110180910E0152
:1002C00090910F01A0911001B09111018093130141
:1002D00090931401A0931501B093160100000F90A4
:1002E0000F900F900F90DF91CF910895CF93DF93F0
:1002F000CDB7DEB71092180180E290E0FC0180815A
:100300008095809318018091180183708093180163
:100310008091190190911A01CC01A0E0B0E040E079
:1003200050E027E030E0841B950B2817390708F4CC
:1003300028C18A5B9F4FFC010C94270381E090E069
:1003400090931A018093190110921B011BC1809197
:100350001801813039F482E090E090931A01809383
:10036000190110C180911801823039F483E090E0C6
:1003700090931A018093190105C18091180183306F
:1003800039F484E090E090931A0180931901FAC047
:1003900081E090E090931A0180931901F3C080915D
:1003A0001801813039F486E090E090931A0180932F
:1003B0001901E8C081E090E090931A01809319013F
:1003C000E1C0809118018130C9F480911B018F5FD9
:1003D00080931B0180911B018A3048F082E090E0FD
:1003E00090931A018093190110921B01CBC086E0F3
:1003F00090E090931A0180931901C4C08091180174
:10040000813039F482E090E090931A0180931901D1
:10041000B9C080911801823039F483E090E0909364
:100420001A0180931901AEC080911801833039F40C
:1004300084E090E090931A0180931901A3C081E0B9
:1004400090E090931A01809319019CC0809118014B
:10045000823039F487E090E090931A01809319017B
:1004600091C081E090E090931A01809319018AC0B5
:10047000809118018230C9F480911B018F5F8093B5
:100480001B0180911B018A3048F083E090E090933B
:100490001A018093190110921B0174C087E090E04B
:1004A00090931A01809319016DC0809118018130D9
:1004B00039F482E090E090931A018093190162C0B0
:1004C00080911801823039F483E090E090931A0112
:1004D0008093190157C080911801833039F484E06A
:1004E00090E090931A01809319014CC081E090E054
:1004F00090931A018093190145C0809118018330AF
:1005000039F485E090E090931A01809319013AC084
:1005100081E090E090931A018093190133C080919B
:100520001801833039F485E090E090931A018093AC
:10053000190127C080911801813039F482E090E0E0
:1005400090931A01809319011CC080911801823088
:1005500039F483E090E090931A018093190111C05F
:1005600080911801833039F484E090E090931A016F
:100570008093190106C081E090E090931A01809366
:10058000190100008091190190911A0183309105A1
:1005900081F084309105B9F0029709F01AC080917A
:1005A0001701893099F0809117018F5F80931701AF
:1005B0000DC080911701882359F080911701815057
:1005C0008093170105C01092170103C0000001C0FD
:1005D000000085E290E020911701FC0120830000DB
:1005E000DF91CF910895CF93DF93CDB7DEB781E24E
:1005F00090E0FC01108282E290E02FEFFC0120836A
:1006000084E290E02FEFFC01208385E290E0FC0182
:10061000108210921A011092190187E0809317013D
:1006200085E290E027E0FC01208364E670E080E052
:1006300090E00E9448010E9498000E94760100000C
:10064000809112018823E1F310921201F6CFEE0F90
:10065000FF1F0024001C0BBE0790F691E02D0994AB
:04066000F894FFCF3C
:1006640000000002000000006F0000000000010014
:02067400000084
:00000001FF
