:100000000C9446000C9465000C9465000C946500FB
:100010000C9465000C9465000C9465000C946500CC
:100020000C9465000C9465000C9465000C946500BC
:100030000C9465000C94DE000C9465000C94650033
:100040000C9465000C9465000C9465000C9465009C
:100050000C9465000C9465000C9465000C9465008C
:100060000C9465000C9465000C9465000C9465007C
:100070000C9465000C9465000C9465000C9465006C
:100080000C9465000C9465000C94650011241FBE4F
:10009000CFEFD0E4DEBFCDBF11E0A0E0B1E0E0E8FB
:1000A000F4E000E00BBF02C007900D92A631B1074B
:1000B000D9F721E0A6E1B1E001C01D92A432B20758
:1000C000E1F70E9413020C943E020C940000CF93BF
:1000D000DF9300D01F92CDB7DEB789837B836A831D
:1000E00089818A3031F48A819B81BC018DE00E9434
:1000F000670080EC90E0FC018081882F90E08072A6
:100100009927892BB1F386EC90E02981FC012083AB
:1001100080E090E00F900F900F90DF91CF910895C5
:10012000CF93DF93CDB7DEB781E890E02BE0FC0101
:10013000208388E890E02DE730E0FC0131832083C4
:100140008FE690E022E0FC01208384E890E0FC014F
:10015000118210828091110190911201A0911301DE
:10016000B09114018093170190931801A093190185
:10017000B0931A018FE590E02FE530E0F90120817E
:100180002068FC0120830000DF91CF910895CF9378
:10019000DF93CDB7DEB781E890E0FC01108200006C
:1001A000DF91CF910895CF93DF93CDB7DEB781E094
:1001B000809316010000DF91CF9108951F920F9256
:1001C00000905F000F92112400905B000F922F931C
:1001D0003F934F935F936F937F938F939F93AF93CF
:1001E000BF93EF93FF93CF93DF93CDB7DEB78091AB
:1001F000170190911801A0911901B0911A0101976E
:10020000A109B1098093170190931801A0931901D6
:10021000B0931A018091170190911801A0911901D2
:10022000B0911A01892B8A2B8B2B91F40E94D30059
:100230008091110190911201A0911301B0911401CC
:100240008093170190931801A0931901B0931A019C
:100250000000DF91CF91FF91EF91BF91AF919F91FE
:100260008F917F916F915F914F913F912F910F905F
:1002700000925B000F9000925F000F901F90189506
:10028000CF93DF9300D000D0CDB7DEB769837A83F8
:100290008B839C8389819A81AB81BC81809311017E
:1002A00090931201A0931301B09314018091110156
:1002B00090911201A0911301B09114018093170144
:1002C00090931801A0931901B0931A0100000F90A8
:1002D0000F900F900F90DF91CF910895CF93DF9300
:1002E000CDB7DEB780911F0190912001009719F0E2
:1002F000019751F010C010921E0181E090E09093A0
:10030000200180931F010CC081E090E090932001B8
:1003100080931F0105C01092200110921F01000060
:1003200080911F0190912001009741F1019709F000
:1003300026C080911E01882321F480910E018093B4
:100340001B0180911E01813021F480910F01809367
:100350001B0180911E01823021F480911001809355
:100360001B0180911E01823030F480911E018F5F4D
:1003700080931E0104C010921E0101C00000000005
:10038000DF91CF910895CF93DF93CDB7DEB7809102
:10039000210190912201009719F0019751F010C0AE
:1003A0001092230181E090E090932201809321013B
:1003B00007C081E090E0909322018093210100002A
:1003C0008091210190912201019709F006C080914E
:1003D000230180958093230100000000DF91CF91DD
:1003E0000895CF93DF93CDB7DEB780911C01909134
:1003F0001D01892B09F013C085E290E020912301B3
:10040000222F30E0220F331F220F331F220F331F02
:10041000322F20911B01232BFC01208300000000C0
:10042000DF91CF910895CF93DF93CDB7DEB784E20C
:1004300090E02FEFFC01208385E290E0FC01108228
:100440001092200110921F0110921D0110921C01A8
:1004500068EE73E080E090E00E9440010E9490000E
:100460000E946E010E94C3010E94F1010000809170
:1004700016018823E1F310921601F2CFF894FFCF12
:100480000000000200000000670000000000010200
:0604900004010000000061
:00000001FF
