:100000000C9446000C9465000C9465000C946500FB
:100010000C9465000C9465000C9465000C946500CC
:100020000C9465000C9465000C9465000C946500BC
:100030000C9465000C940C020C9465000C94650003
:100040000C9465000C9465000C9465000C9465009C
:100050000C9465000C9465000C9465000C9465008C
:100060000C9465000C9465000C9465000C9465007C
:100070000C9465000C9465000C9465000C9465006C
:100080000C9465000C9465000C94650011241FBE4F
:10009000CFEFD0E4DEBFCDBF11E0A0E0B1E0EAE7F2
:1000A000FCE000E00BBF02C007900D92AA33B1073D
:1000B000D9F721E0AAE3B1E001C01D92AB34B20749
:1000C000E1F70E942A040C943B060C940000CF93A5
:1000D000DF93CDB7DEB781E00E948E000000DF9194
:1000E000CF910895CF93DF93CDB7DEB784E690E04C
:1000F0000E94650188E30E948E0086E00E948E00C7
:100100008FE00E948E0081E00E948E008AE090E0E5
:100110000E9465010000DF91CF910895CF93DF9396
:100120001F92CDB7DEB789838BE290E02BE230E0FF
:10013000F90120812F7BFC01208388E290E0298156
:10014000FC0120838BE290E02BE230E0F90120817A
:100150002068FC01208300008BE290E02BE230E07D
:10016000F90120812F77FC01208382E090E00E943A
:10017000650100000F90DF91CF910895CF93DF9339
:100180001F92CDB7DEB789838BE290E02BE230E09F
:10019000F90120812064FC01208388E290E029811C
:1001A000FC0120838BE290E02BE230E0F90120811A
:1001B0002068FC01208300008BE290E02BE230E01D
:1001C000F90120812F77FC01208381E090E00E94DB
:1001D000650100000F90DF91CF910895CF93DF93D9
:1001E0001F92CDB7DEB7898381E00E944E018BE27A
:1001F00090E02BE230E0F90120812064FC012083B3
:1002000088E290E02981FC0120838BE290E02BE2E0
:1002100030E0F90120812068FC01208300008BE29E
:1002200090E02BE230E0F90120812F77FC01208360
:1002300081E090E00E94650100000F90DF91CF9176
:100240000895CF93DF9300D000D0CDB7DEB78A8377
:100250007C836B830E9467008A81898311C08981B6
:1002600091E0980F99830E944E018B819C819C01A3
:100270002F5F3F4F3C832B83FC0180810E94BE0097
:100280008B819C81FC018081882349F700000F90BD
:100290000F900F900F90DF91CF910895CF93DF9340
:1002A0001F92CDB7DEB789838981813128F4898196
:1002B00081580E948E0004C0898181550E948E0061
:1002C00000000F90DF91CF910895CF93DF9300D07E
:1002D00000D000D0CDB7DEB79E838D831A821982FD
:1002E00013C01C821B8206C000008B819C8101967A
:1002F0009C838B838B819C8187309340ACF3898175
:100300009A8101969A83898329813A818D819E8180
:100310002817390734F3000026960FB6F894DEBF8D
:100320000FBECDBFDF91CF910895CF93DF9300D063
:100330001F92CDB7DEB789837B836A8389818A3038
:1003400031F48A819B81BC018DE00E94950180EC93
:1003500090E0FC018081882F90E080729927892BA2
:10036000B1F386EC90E02981FC01208380E090E0ED
:100370000F900F900F90DF91CF910895CF93DF935F
:10038000CDB7DEB781E890E02BE0FC01208388E860
:1003900090E02DE730E0FC01318320838FE690E090
:1003A00022E0FC01208384E890E0FC0111821082AD
:1003B0008091360190913701A0913801B0913901B7
:1003C00080933B0190933C01A0933D01B0933E018B
:1003D0008FE590E02FE530E0F90120812068FC01F5
:1003E00020830000DF91CF910895CF93DF93CDB7A5
:1003F000DEB781E890E0FC0110820000DF91CF9130
:100400000895CF93DF93CDB7DEB781E080933A01B3
:100410000000DF91CF9108951F920F9200905F002E
:100420000F92112400905B000F922F933F934F93F4
:100430005F936F937F938F939F93AF93BF93EF934C
:10044000FF93CF93DF93CDB7DEB780913B019091BF
:100450003C01A0913D01B0913E010197A109B10974
:1004600080933B0190933C01A0933D01B0933E01EA
:1004700080913B0190913C01A0913D01B0913E01E2
:10048000892B8A2B8B2B91F40E94010280913601DB
:1004900090913701A0913801B091390180933B01CF
:1004A00090933C01A0933D01B0933E010000DF9189
:1004B000CF91FF91EF91BF91AF919F918F917F91DC
:1004C0006F915F914F913F912F910F9000925B0040
:1004D0000F9000925F000F901F901895CF93DF93BD
:1004E00000D000D0CDB7DEB769837A838B839C833D
:1004F00089819A81AB81BC818093360190933701C9
:10050000A0933801B0933901809136019091370161
:10051000A0913801B091390180933B0190933C0147
:10052000A0933D01B0933E0100000F900F900F90FB
:100530000F90DF91CF9108950F931F93CF93DF9387
:1005400000D000D0CDB7DEB769837A838B839C83DC
:1005500080913F0190914001A0914101B0914201F1
:100560009C01AD0169817A818B819C810E946A0422
:10057000882309F477C020E030E0A90169817A81FD
:100580008B819C810E946A04882351F481E990E068
:1005900021E930E0F90120812870FC01208309C0A5
:1005A00081E990E021E930E0F90120812360FC013C
:1005B000208328E539E344E75FE369817A818B8111
:1005C0009C810E946A04882344F488E990E02FEF1C
:1005D0003FEFFC013183208334C020E034E244EF5C
:1005E00056E469817A818B819C810E94C905181625
:1005F00034F488E990E0FC011182108222C008E9FD
:1006000010E020E030E040E053E469817A818B81A2
:100610009C810E94CE05DC01CB019C01AD0160E014
:1006200074E284EF9AE40E946F04DC01CB01BC0108
:10063000CD010E94E104DC01CB010197F801918317
:10064000808384E990E0FC011182108289819A8183
:10065000AB81BC8180933F0190934001A093410105
:10066000B093420100000F900F900F900F90DF9118
:10067000CF911F910F910895CF93DF93CDB7DEB740
:1006800080E990E020E4FC01208381E990E02BE008
:10069000FC01208360E070E0CB010E949C0200001E
:1006A000DF91CF910895CF93DF93CDB7DEB780E987
:1006B00090E0FC01108281E990E0FC0110820000D2
:1006C000DF91CF910895CF93DF93CDB7DEB78091BF
:1006D00043019091440181309105E9F08130910509
:1006E00038F08230910509F43EC0039741F13CC0D7
:1006F00081E090E090934401809343011092460181
:100700001092450110924A0110924901109248013D
:100710001092470129C080E290E0FC018081882F7F
:1007200090E081709927892B19F482E090E002C053
:1007300081E090E0909344018093430114C080E2F3
:1007400090E0FC018081882F90E081709927892BAF
:1007500019F483E090E002C081E090E090934401BE
:100760008093430101C000008091430190914401B6
:100770008130910509F469C0029709F067C0809142
:10078000450190914601853F914008F04AC0809113
:10079000490190914A01880F991F8E5D9E4FFC017F
:1007A00080819181CC01A0E0B0E0BC01CD010E942C
:1007B0001705DC01CB01BC01CD010E949C02809198
:1007C000490190914A01880F991F825F9E4FFC0159
:1007D0002081318180914701909148012817390784
:1007E00069F48091490190914A01019690934A01E0
:1007F000809349011092480110924701809147016E
:10080000909148010196909348018093470180910F
:1008100045019091460101969093460180934501D0
:1008200015C083E090E090934401809343011092BF
:1008300046011092450110924A011092490160E070
:1008400070E0CB010E949C0201C000000000DF911B
:10085000CF910895CF93DF93CDB7DEB781E290E0DB
:10086000FC01108282E290E02FEFFC01208384E201
:1008700090E02FEFFC01208385E290E0FC011082E4
:1008800087E290E02FEFFC01208388E290E0FC01FA
:1008900010828AE290E02FEFFC0120838BE290E04F
:1008A000FC0110826AE070E080E090E00E946E023D
:1008B0000E94BE010E943C03109244011092430129
:1008C0000E946303000080913A018823E1F31092B3
:1008D0003A01F6CF0E94540508F481E008950E9481
:1008E00083040C948F050E94880558F00E948105AE
:1008F00040F029F45F3F29F00C94780551110C94D5
:10090000C3050C947E050E94A00568F39923B1F3FA
:10091000552391F3951B550BBB27AA276217730725
:10092000840738F09F5F5F4F220F331F441FAA1FB9
:10093000A9F335D00E2E3AF0E0E832D09150504075
:10094000E695001CCAF72BD0FE2F29D0660F771F23
:10095000881FBB1F261737074807AB07B0E809F009
:10096000BB0B802DBF01FF2793585F4F3AF09E3F8E
:10097000510578F00C9478050C94C3055F3FE4F3BF
:10098000983ED4F3869577956795B795F7959F5FD1
:10099000C9F7880F911D9695879597F90895E1E01D
:1009A000660F771F881FBB1F621773078407BA077C
:1009B00020F0621B730B840BBA0BEE1F88F7E095D7
:1009C00008950E94E8046894B1110C94C305089539
:1009D0000E94A80588F09F5798F0B92F9927B75122
:1009E000B0F0E1F0660F771F881F991F1AF0BA95D3
:1009F000C9F714C0B13091F00E94C205B1E008956A
:100A00000C94C205672F782F8827B85F39F0B93F5B
:100A1000CCF3869577956795B395D9F73EF4909585
:100A20008095709561957F4F8F4F9F4F0895E89403
:100A300009C097FB3EF490958095709561957F4F26
:100A40008F4F9F4F9923A9F0F92F96E9BB279395D4
:100A5000F695879577956795B795F111F8CFFAF4E4
:100A6000BB0F11F460FF1BC06F5F7F4F8F4F9F4F15
:100A700016C0882311F096E911C0772321F09EE873
:100A8000872F762F05C0662371F096E8862F70E0D9
:100A900060E02AF09A95660F771F881FDAF7880FB3
:100AA0009695879597F90895990F0008550FAA0B09
:100AB000E0E8FEEF16161706E807F907C0F0121671
:100AC0001306E407F50798F0621B730B840B950B74
:100AD00039F40A2661F0232B242B252B21F40895C9
:100AE0000A2609F4A140A6958FEF811D811D089566
:100AF00097F99F6780E870E060E008959FEF80ECD1
:100B0000089500240A941616170618060906089573
:100B100000240A9412161306140605060895092ED9
:100B20000394000C11F4882352F0BB0F40F4BF2B48
:100B300011F460FF04C06F5F7F4F8F4F9F4F089588
:100B400057FD9058440F551F59F05F3F71F047957E
:100B5000880F97FB991F61F09F3F79F08795089563
:100B6000121613061406551FF2CF4695F1DF08C082
:100B7000161617061806991FF1CF8695710561059F
:100B800008940895E894BB2766277727CB0197F947
:100B900008950E94540508F48FEF08950E94E1051E
:100BA0000C948F050E94810538F00E94880520F082
:100BB000952311F00C9478050C947E0511240C9467
:100BC000C3050E94A00570F3959FC1F3950F50E0F7
:100BD000551F629FF001729FBB27F00DB11D639FEF
:100BE000AA27F00DB11DAA1F649F6627B00DA11D95
:100BF000661F829F2227B00DA11D621F739FB00D3B
:100C0000A11D621F839FA00D611D221F749F3327AA
:100C1000A00D611D231F849F600D211D822F762F43
:100C20006A2F11249F5750409AF0F1F088234AF020
:100C3000EE0FFF1FBB1F661F771F881F915050408C
:100C4000A9F79E3F510580F00C9478050C94C305DC
:100C50005F3FE4F3983ED4F3869577956795B79513
:100C6000F795E7959F5FC1F7FE2B880F911D96952D
:0A0C7000879597F90895F894FFCFD7
:100C7A0000000002000000009501000000003100A1
:100C8A0031003100310031003100310031003100D2
:100C9A003B0025015D015D0125015D015D01250125
:0A0CAA005D012C015D010100000056
:00000001FF
