:100000000C9446000C9465000C9465000C946500FB
:100010000C9465000C9465000C9465000C946500CC
:100020000C9465000C9465000C9465000C946500BC
:100030000C9465000C940C020C9465000C94650003
:100040000C9465000C9465000C9465000C9465009C
:100050000C9465000C9465000C9465000C9465008C
:100060000C9465000C9465000C9465000C9465007C
:100070000C9465000C9465000C9465000C9465006C
:100080000C9465000C9465000C94650011241FBE4F
:10009000CFEFD0E4DEBFCDBF11E0A0E0B1E0E4E4FB
:1000A000FCE000E00BBF02C007900D92A231B10747
:1000B000D9F721E0A2E1B1E001C01D92AE31B20753
:1000C000E1F70E944C040C9420060C940000CF939E
:1000D000DF93CDB7DEB781E00E948E000000DF9194
:1000E000CF910895CF93DF93CDB7DEB784E690E04C
:1000F0000E94650188E30E948E0086E00E948E00C7
:100100008FE00E948E0081E00E948E008AE090E0E5
:100110000E9465010000DF91CF910895CF93DF9396
:100120001F92CDB7DEB789838BE290E02BE230E0FF
:10013000F90120812F7BFC01208388E290E0298156
:10014000FC0120838BE290E02BE230E0F90120817A
:100150002068FC01208300008BE290E02BE230E07D
:10016000F90120812F77FC01208382E090E00E943A
:10017000650100000F90DF91CF910895CF93DF9339
:100180001F92CDB7DEB789838BE290E02BE230E09F
:10019000F90120812064FC01208388E290E029811C
:1001A000FC0120838BE290E02BE230E0F90120811A
:1001B0002068FC01208300008BE290E02BE230E01D
:1001C000F90120812F77FC01208381E090E00E94DB
:1001D000650100000F90DF91CF910895CF93DF93D9
:1001E0001F92CDB7DEB7898381E00E944E018BE27A
:1001F00090E02BE230E0F90120812064FC012083B3
:1002000088E290E02981FC0120838BE290E02BE2E0
:1002100030E0F90120812068FC01208300008BE29E
:1002200090E02BE230E0F90120812F77FC01208360
:1002300081E090E00E94650100000F90DF91CF9176
:100240000895CF93DF9300D000D0CDB7DEB78A8377
:100250007C836B830E9467008A81898311C08981B6
:1002600091E0980F99830E944E018B819C819C01A3
:100270002F5F3F4F3C832B83FC0180810E94BE0097
:100280008B819C81FC018081882349F700000F90BD
:100290000F900F900F90DF91CF910895CF93DF9340
:1002A0001F92CDB7DEB789838981813128F4898196
:1002B00081580E948E0004C0898181550E948E0061
:1002C00000000F90DF91CF910895CF93DF9300D07E
:1002D00000D000D0CDB7DEB79E838D831A821982FD
:1002E00013C01C821B8206C000008B819C8101967A
:1002F0009C838B838B819C8187309340ACF3898175
:100300009A8101969A83898329813A818D819E8180
:100310002817390734F3000026960FB6F894DEBF8D
:100320000FBECDBFDF91CF910895CF93DF9300D063
:100330001F92CDB7DEB789837B836A8389818A3038
:1003400031F48A819B81BC018DE00E94950180EC93
:1003500090E0FC018081882F90E080729927892BA2
:10036000B1F386EC90E02981FC01208380E090E0ED
:100370000F900F900F90DF91CF910895CF93DF935F
:10038000CDB7DEB781E890E02BE0FC01208388E860
:1003900090E02DE730E0FC01318320838FE690E090
:1003A00022E0FC01208384E890E0FC0111821082AD
:1003B00080910E0190910F01A0911001B091110157
:1003C0008093130190931401A0931501B09316012B
:1003D0008FE590E02FE530E0F90120812068FC01F5
:1003E00020830000DF91CF910895CF93DF93CDB7A5
:1003F000DEB781E890E0FC0110820000DF91CF9130
:100400000895CF93DF93CDB7DEB781E080931201DB
:100410000000DF91CF9108951F920F9200905F002E
:100420000F92112400905B000F922F933F934F93F4
:100430005F936F937F938F939F93AF93BF93EF934C
:10044000FF93CF93DF93CDB7DEB7809113019091E7
:100450001401A0911501B09116010197A109B109EC
:100460008093130190931401A0931501B09316018A
:100470008091130190911401A0911501B091160182
:10048000892B8A2B8B2B91F40E94010280910E0103
:1004900090910F01A0911001B0911101809313016F
:1004A00090931401A0931501B09316010000DF9101
:1004B000CF91FF91EF91BF91AF919F918F917F91DC
:1004C0006F915F914F913F912F910F9000925B0040
:1004D0000F9000925F000F901F901895CF93DF93BD
:1004E00000D000D0CDB7DEB769837A838B839C833D
:1004F00089819A81AB81BC8180930E0190930F0119
:10050000A0931001B093110180910E0190910F0101
:10051000A0911001B09111018093130190931401E7
:10052000A0931501B093160100000F900F900F904B
:100530000F90DF91CF9108950F931F93CF93DF9387
:1005400000D000D0CDB7DEB769837A838B839C83DC
:100550008091170190911801A0911901B0911A0191
:100560009C01AD0169817A818B819C810E948C0400
:10057000882309F477C020E030E0A90169817A81FD
:100580008B819C810E948C04882351F481E990E046
:1005900021E930E0F90120812870FC01208309C0A5
:1005A00081E990E021E930E0F90120812360FC013C
:1005B000208328E539E344E75FE369817A818B8111
:1005C0009C810E948C04882344F488E990E02FEFFA
:1005D0003FEFFC013183208334C020E034E244EF5C
:1005E00056E469817A818B819C810E94AE05181640
:1005F00034F488E990E0FC011182108222C008E9FD
:1006000010E020E030E040E053E469817A818B81A2
:100610009C810E94B305DC01CB019C01AD0160E02F
:1006200074E284EF9AE40E949104DC01CB01BC01E6
:10063000CD010E940305DC01CB010197F8019183F4
:10064000808384E990E0FC011182108289819A8183
:10065000AB81BC818093170190931801A09319017D
:10066000B0931A0100000F900F900F900F90DF9140
:10067000CF911F910F910895CF93DF93CDB7DEB740
:1006800080E990E020E4FC01208381E990E02BE008
:10069000FC01208360E070E0CB010E949C0200001E
:1006A000DF91CF910895CF93DF93CDB7DEB780E987
:1006B00090E0FC01108281E990E0FC0110820000D2
:1006C000DF91CF910895CF93DF93CDB7DEB78091BF
:1006D0001B0190911C018130910581F081309105C1
:1006E00020F0029709F455C093C081E090E0909308
:1006F0001C0180931B0110921D018BC080E290E0D1
:10070000FC018081882F90E08095909587709927D3
:10071000019751F482E090E090931C0180931B01BB
:1007200081E080931D0175C080E290E0FC01808132
:10073000882F90E08095909587709927029751F4C3
:1007400082E090E090931C0180931B0182E08093F3
:100750001D015FC080E290E0FC018081882F90E065
:100760008095909587709927049751F482E090E0E6
:1007700090931C0180931B0184E080931D0149C06C
:1007800081E090E090931C0180931B0110921D0169
:1007900040C080E290E0FC018081882F90E080954D
:1007A000909587709927019739F482E090E09093B3
:1007B0001C0180931B012CC080E290E0FC01808131
:1007C000882F90E08095909587709927029739F44B
:1007D00082E090E090931C0180931B0119C080E29D
:1007E00090E0FC018081882F90E080959095877043
:1007F0009927049739F482E090E090931C0180934C
:100800001B0106C081E090E090931C0180931B01C6
:10081000000080911B0190911C018130910531F005
:1008200081309105A0F1029749F032C060E070E09C
:10083000CB010E949C0210921D012AC080911D01D3
:10084000813039F464EA70ED82E893E40E949C02FE
:100850001FC080911D01823039F46BE774ED82E98D
:1008600093E40E949C0214C080911D01843039F4ED
:1008700064EA70ED84EA93E40E949C0209C010923D
:100880001D0160E070E0CB010E949C0201C00000ED
:100890000000DF91CF910895CF93DF93CDB7DEB7FE
:1008A00081E290E0FC01108282E290E02FEFFC01F7
:1008B000208384E290E02FEFFC01208385E290E02A
:1008C000FC01108287E290E02FEFFC01208388E298
:1008D00090E0FC0110828AE290E02FEFFC0120837F
:1008E0008BE290E0FC01108266E970E080E090E02D
:1008F0000E946E020E94BE010E943C0310921C01E5
:1009000010921B010E946303000080911201882352
:10091000E1F310921201F6CF0E94390508F481E04C
:1009200008950E94A5040C9474050E946D0558F06A
:100930000E94660540F029F45F3F29F00C945D05A4
:1009400051110C94A8050C9463050E94850568F369
:100950009923B1F3552391F3951B550BBB27AA2778
:1009600062177307840738F09F5F5F4F220F331FB2
:10097000441FAA1FA9F335D00E2E3AF0E0E832D07A
:1009800091505040E695001CCAF72BD0FE2F29D07D
:10099000660F771F881FBB1F261737074807AB074F
:1009A000B0E809F0BB0B802DBF01FF2793585F4FC4
:1009B0003AF09E3F510578F00C945D050C94A80523
:1009C0005F3FE4F3983ED4F3869577956795B795A6
:1009D000F7959F5FC9F7880F911D9695879597F9B1
:1009E0000895E1E0660F771F881FBB1F621773072A
:1009F0008407BA0720F0621B730B840BBA0BEE1F3F
:100A000088F7E09508950E940A056894B1110C9446
:100A1000A80508950E948D0588F09F5798F0B92F7A
:100A20009927B751B0F0E1F0660F771F881F991F23
:100A30001AF0BA95C9F714C0B13091F00E94A70519
:100A4000B1E008950C94A705672F782F8827B85F29
:100A500039F0B93FCCF3869577956795B395D9F77B
:100A60003EF490958095709561957F4F8F4F9F4F85
:100A70000895990F0008550FAA0BE0E8FEEF16162F
:100A80001706E807F907C0F012161306E407F50782
:100A900098F0621B730B840B950B39F40A2661F0F6
:100AA000232B242B252B21F408950A2609F4A14099
:100AB000A6958FEF811D811D089597F99F6780E8A6
:100AC00070E060E008959FEF80EC089500240A94A0
:100AD0001616170618060906089500240A94121619
:100AE0001306140605060895092E0394000C11F44C
:100AF000882352F0BB0F40F4BF2B11F460FF04C0F9
:100B00006F5F7F4F8F4F9F4F089557FD9058440F51
:100B1000551F59F05F3F71F04795880F97FB991F5C
:100B200061F09F3F79F08795089512161306140619
:100B3000551FF2CF4695F1DF08C0161617061806A6
:100B4000991FF1CF86957105610508940895E89481
:100B5000BB2766277727CB0197F908950E943905AF
:100B600008F48FEF08950E94C6050C9474050E9446
:100B7000660538F00E946D0520F0952311F00C9465
:100B80005D050C94630511240C94A8050E9485054D
:100B900070F3959FC1F3950F50E0551F629FF001D0
:100BA000729FBB27F00DB11D639FAA27F00DB11DE9
:100BB000AA1F649F6627B00DA11D661F829F222772
:100BC000B00DA11D621F739FB00DA11D621F839FF9
:100BD000A00D611D221F749F3327A00D611D231FCF
:100BE000849F600D211D822F762F6A2F11249F571D
:100BF00050409AF0F1F088234AF0EE0FFF1FBB1F20
:100C0000661F771F881F91505040A9F79E3F5105DE
:100C100080F00C945D050C94A8055F3FE4F3983ECA
:100C2000D4F3869577956795B795F795E7959F5F88
:100C3000C1F7FE2B880F911D9695879597F908951A
:040C4000F894FFCF56
:100C44000000000200000000950100000000010007
:020C540000009E
:00000001FF
