:100000000C9446000C945D000C945D000C945D0013
:100010000C945D000C945D000C945D000C945D00EC
:100020000C945D000C945D000C945D000C945D00DC
:100030000C945D000C945D000C945D000C945D00CC
:100040000C945D000C945D000C945D000C945D00BC
:100050000C945D000C945D000C945D000C945D00AC
:100060000C945D000C945D000C945D000C945D009C
:100070000C945D000C945D000C945D000C945D008C
:100080000C945D000C945D000C945D0011241FBE67
:10009000CFEFD0E4DEBFCDBF11E0A0E0B1E0EEECE9
:1000A000F2E000E00BBF02C007900D92AE30B10746
:1000B000D9F70E9499000C9465010C940000CF932D
:1000C000DF9300D01F92CDB7DEB789837B836A832D
:1000D00089818A3031F48A819B81BC018DE00E9444
:1000E0005F0080EC90E0FC018081882F90E08072BE
:1000F0009927892BB1F386EC90E02981FC012083BC
:1001000080E090E00F900F900F90DF91CF910895D5
:10011000CF93DF93CDB7DEB78AE790E02AE730E0F0
:10012000F9012081206EFC0120830000DF91CF9136
:100130000895CF93DF9300D000D0CDB7DEB781E232
:1001400090E0FC01108282E290E02FEFFC0120831E
:1001500084E290E02FEFFC01208385E290E0FC0137
:1001600010828AE290E02FEFFC0120838BE290E086
:10017000FC0110820E94880088E790E0FC018081E9
:1001800091819A8389838FE590E09C838B8388E7B4
:1001900090E0FC01808191819A8389832B813C814D
:1001A00089819A812817390730F085E290E021E0B3
:1001B000FC012083ECCF8B819C819C01220F331F9B
:1001C00089819A812817390730F085E290E023E091
:1001D000FC012083DCCF2B813C81C901880F991F52
:1001E000280F391F89819A812817390730F085E255
:1001F00090E027E0FC012083CACF8B819C819C0189
:10020000220F331F220F331F89819A812817390744
:1002100030F085E290E02FE0FC012083B8CF2B8105
:100220003C81C901880F991F880F991F280F391F1A
:1002300089819A812817390730F085E290E02FE113
:10024000FC012083A4CF2B813C81C901880F991F19
:10025000820F931F880F991F9C0189819A8128170B
:10026000390730F085E290E02FE3FC0120838FCF47
:100270002B813C81C901880F991F880F991F880F16
:10028000991FAC01421B530B9A0189819A8128174F
:10029000390730F085E290E02FE7FC01208377CF2B
:1002A0008B819C819C01220F331F220F331F220F51
:1002B000331F89819A812817390708F468CF85E2AE
:0E02C00090E02FEFFC01208362CFF894FFCF77
:0E02CE0000000002000000005F0000000000C1
:00000001FF
