:100000000C948B000C94AA000C94AA000C94AA00E7
:100010000C94AA000C94AA000C94AA000C94AA00B8
:100020000C94AA000C94AA000C94AA000C94AA00A8
:100030000C94AA000C9468030C94AA000C94AA00D7
:100040000C94AA000C94AA000C94AA000C94AA0088
:100050000C94AA000C94AA000C94AA000C94AA0078
:100060000C94AA000C94AA000C94AA000C94AA0068
:100070000C94AA000C94AA000C94AA000C94AA0058
:100080000C94AA000C94AA000C94AA0033047604E1
:100090007604760476047604760476047604760490
:1000A0007604760476047604760476047604760480
:1000B0007604760476047604760476047604760470
:1000C0007604760476047604760476047604760460
:1000D00076046B047604760476047604760476045B
:1000E0007204760476047604760476046F0437048A
:1000F0003B043F04430447044B044F045304570498
:1001000076047604760476047604760476045B043A
:100110005F046304670411241FBECFEFD0E4DEBF89
:10012000CDBF11E0A0E0B1E0E8E0FDE000E00BBFF2
:1001300002C007900D92A236B107D9F721E0A2E6DE
:10014000B1E001C01D92AA39B207E1F70E94010592
:100150000C9482060C940000CF93DF93CDB7DEB7EA
:1001600081E00E94D3000000DF91CF910895CF93EA
:10017000DF93CDB7DEB784E690E00E94AA0188E362
:100180000E94D30086E00E94D3008FE00E94D3003B
:1001900081E00E94D3008AE090E00E94AA01000062
:1001A000DF91CF910895CF93DF931F92CDB7DEB744
:1001B00089838BE290E02BE230E0F90120812F7BF4
:1001C000FC01208382E290E02981FC0120838BE204
:1001D00090E02BE230E0F90120812068FC012083CF
:1001E00000008BE290E02BE230E0F90120812F77D4
:1001F000FC01208382E090E00E94AA0100000F90A1
:10020000DF91CF910895CF93DF931F92CDB7DEB7E3
:1002100089838BE290E02BE230E0F90120812064B9
:10022000FC01208382E290E02981FC0120838BE2A3
:1002300090E02BE230E0F90120812068FC0120836E
:1002400000008BE290E02BE230E0F90120812F7773
:10025000FC01208381E090E00E94AA0100000F9041
:10026000DF91CF910895CF93DF931F92CDB7DEB783
:10027000898381E00E9493018BE290E02BE230E0E1
:10028000F90120812064FC01208382E290E0298131
:10029000FC0120838BE290E02BE230E0F901208129
:1002A0002068FC01208300008BE290E02BE230E02C
:1002B000F90120812F77FC01208381E090E00E94EA
:1002C000AA0100000F90DF91CF910895CF93DF93A3
:1002D00000D000D0CDB7DEB78A837C836B830E94C9
:1002E000AC008A81898311C0898191E0980F99833C
:1002F0000E9493018B819C819C012F5F3F4F3C8327
:100300002B83FC0180810E9403018B819C81FC0175
:100310008081882349F700000F900F900F900F9075
:10032000DF91CF910895CF93DF931F92CDB7DEB7C2
:1003300089838981813128F4898181580E94D30081
:1003400004C0898181550E94D30000000F90DF9185
:10035000CF910895CF93DF9300D000D000D0CDB7D8
:10036000DEB79E838D831A82198213C01C821B8282
:1003700006C000008B819C8101969C838B838B81BE
:100380009C8187309340ACF389819A8101969A834E
:10039000898329813A818D819E812817390734F319
:1003A000000026960FB6F894DEBF0FBECDBFDF91DA
:1003B000CF910895CF93DF9300D01F92CDB7DEB7D2
:1003C00089837B836A8389818A3031F48A819B8126
:1003D000BC018DE00E94DA0180EC90E0FC0180819C
:1003E000882F90E080729927892BB1F386EC90E0FA
:1003F0002981FC01208380E090E00F900F900F9006
:10040000DF91CF910895CF93DF9300D01F92CDB7A6
:10041000DEB789836A834B838B81882371F08A815D
:10042000282F30E081E090E002C0880F991F2A95C4
:10043000E2F7982F8981892B0EC08A81282F30E01E
:1004400081E090E002C0880F991F2A95E2F7982F6B
:100450009095898189230F900F900F90DF91CF9114
:100460000895CF93DF9300D0CDB7DEB789836A8339
:100470008A81282F30E081E090E002C0880F991F28
:100480002A95E2F7982F898189230F900F90DF91A9
:10049000CF910895CF93DF93CDB7DEB788E290E098
:1004A0002FEEFC012083000086E290E0FC018081B9
:1004B00060E00E943102882311F481E3B8C086E233
:1004C00090E0FC01808161E00E943102882311F4F8
:1004D00084E3ADC086E290E0FC01808162E00E948E
:1004E0003102882311F487E3A2C086E290E0FC0188
:1004F000808163E00E943102882311F48AE297C070
:1005000088E290E02FEDFC012083000086E290E07D
:10051000FC01808160E00E943102882311F482E3B3
:1005200086C086E290E0FC01808161E00E94310299
:10053000882311F485E37BC086E290E0FC01808192
:1005400062E00E943102882311F488E370C086E2E1
:1005500090E0FC01808163E00E943102882311F465
:1005600080E365C088E290E02FEBFC01208300006F
:1005700086E290E0FC01808160E00E9431028823E5
:1005800011F483E354C086E290E0FC01808161E0D5
:100590000E943102882311F486E349C086E290E08C
:1005A000FC01808162E00E943102882311F489E31A
:1005B0003EC086E290E0FC01808163E00E9431024F
:1005C000882311F483E233C088E290E02FE7FC0136
:1005D0002083000086E290E0FC01808160E00E94C0
:1005E0003102882311F481E422C086E290E0FC010C
:1005F000808161E00E943102882311F482E417C0F7
:1006000086E290E0FC01808162E00E943102882352
:1006100011F483E40CC086E290E0FC01808163E089
:100620000E943102882311F484E401C080E0DF914C
:10063000CF910895CF93DF93CDB7DEB781E890E0F7
:100640002BE0FC01208388E890E02DE730E0FC01FE
:10065000318320838FE690E022E0FC01208384E850
:1006600090E0FC011182108280910E0190910F01A7
:10067000A0911001B09111018093630190936401E6
:10068000A0936501B09366018FE590E02FE530E01F
:10069000F90120812068FC0120830000DF91CF91C7
:1006A0000895CF93DF93CDB7DEB781E890E0FC01EA
:1006B00010820000DF91CF910895CF93DF93CDB7E3
:1006C000DEB781E0809362010000DF91CF91089551
:1006D0001F920F9200905F000F92112400905B0018
:1006E0000F922F933F934F935F936F937F938F93CB
:1006F0009F93AF93BF93EF93FF93CF93DF93CDB7C8
:10070000DEB78091630190916401A0916501B09181
:1007100066010197A109B109809363019093640177
:10072000A0936501B093660180916301909164018B
:10073000A0916501B0916601892B8A2B8B2B91F4D6
:100740000E945D0380910E0190910F01A091100114
:10075000B09111018093630190936401A0936501AE
:10076000B09366010000DF91CF91FF91EF91BF91AF
:10077000AF919F918F917F916F915F914F913F9139
:100780002F910F9000925B000F9000925F000F90EE
:100790001F901895CF93DF9300D000D0CDB7DEB770
:1007A00069837A838B839C8389819A81AB81BC81A5
:1007B00080930E0190930F01A0931001B09311014B
:1007C00080910E0190910F01A0911001B091110143
:1007D0008093630190936401A0936501B0936601D7
:1007E00000000F900F900F900F90DF91CF91089520
:1007F000CF93DF9300D0CDB7DEB79A8389830E9471
:100800004A028093670189819A81009719F00197C4
:1008100031F00AC081E090E09A83898305C081E0CD
:1008200090E09A838983000089819A81009709F476
:1008300068C0019709F066C080916701882F90E039
:10084000092E000CAA0BBB0B40E050E024E430E082
:10085000841B950B2817390708F448C08A5B9F4F03
:10086000FC010C9479068FE18093680143C081E01C
:10087000809368013FC082E0809368013BC083E0C1
:100880008093680137C084E08093680133C085E0BD
:10089000809368012FC086E0809368012BC087E0B9
:1008A0008093680127C088E08093680123C089E0B5
:1008B000809368011FC08AE0809368011BC08BE0B1
:1008C0008093680117C08CE08093680113C08DE0AD
:1008D000809368010FC08EE0809368010BC0109276
:1008E000680108C08FE08093680104C08BE18093A9
:1008F0006801000085E290E020916801FC012083FE
:1009000001C0000089819A810F900F90DF91CF91F3
:100910000895CF93DF9300D0CDB7DEB79A83898354
:1009200089819A818130910559F082309105A1F039
:10093000892B09F016C081E090E09A83898311C069
:10094000809168018F3119F481E090E002C082E06B
:1009500090E09A83898305C081E090E09A8389833F
:10096000000089819A8181309105E1F08230910502
:1009700019F0892BC9F019C0809149010E94930197
:10098000809167010E94030180914901803120F02C
:1009900081E08093490109C0809149018F5F809374
:1009A000490103C0000001C0000089819A810F90B5
:1009B0000F90DF91CF910895CF93DF9300D0CDB703
:1009C000DEB79A83898389819A81009719F001970C
:1009D00031F00AC081E090E09A83898305C081E00C
:1009E00090E09A838983000089819A81892B09F09C
:1009F00001C0000089819A810F900F90DF91CF9103
:100A000008950F931F93CF93DF93CDB7DEB72A9747
:100A10000FB6F894DEBF0FBECDBF1A82198284E2F2
:100A200090E02FEFFC01208385E290E0FC01108232
:100A300087E290E020EFFC01208388E290E02FE045
:100A4000FC01208381E290E02FEFFC01208382E211
:100A500090E0FC0110828AE290E02FEFFC012083FD
:100A60008BE290E0FC01108286E0ECE5F1E0DE0133
:100A7000159601900D928A95E1F783E090E09C83B2
:100A80008B831092790182E390E0A0E0B0E0809344
:100A90007A0190937B01A0937C01B0937D018091BA
:100AA0007A0190917B01A0917C01B0917D018093AE
:100AB0007E0190937F01A0938001B093810188EF24
:100AC00093E0909383018093820189819A810196BA
:100AD0009A8389831092840182E390E0A0E0B0E0E1
:100AE0008093850190938601A0938701B09388013C
:100AF0008091850190918601A0918701B091880134
:100B00008093890190938A01A0938B01B0938C010B
:100B10008CED94E090938E0180938D0189819A8170
:100B200001969A83898310928F0182E390E0A0E07E
:100B3000B0E08093900190939101A0939201B093C3
:100B400093018091900190919101A0919201B091B7
:100B500093018093940190939501A0939601B09393
:100B6000970189E894E0909399018093980162E35A
:100B700070E080E090E00E94CA030E941A030E9485
:100B8000B7006AE471E081E00E9466016BE471E005
:100B900081E00E9466011A821982A2C089819A812D
:100BA000880F991F9E012F5F3F4F820F931F04965E
:100BB000FC0180819181FC0125813681478150852E
:100BC00089819A81880F991FBE016F5F7F4F860FC1
:100BD000971F0496FC0180819181FC0181819281A3
:100BE000A381B481281739074A075B0708F445C079
:100BF00089819A81880F991F9E012F5F3F4F820F35
:100C0000931F0496FC010081118189819A81880FCC
:100C1000991F9E012F5F3F4F820F931F0496FC0187
:100C200080819181FC012185328589819A81880F9B
:100C3000991FAE014F5F5F4F840F951F0496FC0113
:100C400080819181FC018081082E000C990BF901B3
:100C50000995F801808389819A81880F991F9E01E7
:100C60002F5F3F4F820F931F0496FC01808191817B
:100C7000FC01158216821782108689819A81880F5D
:100C8000991F9E012F5F3F4F820F931F0496FC0117
:100C90002081318189819A81880F991FAE014F5F30
:100CA0005F4F840F951F0496FC0180819181FC01A8
:100CB00085819681A781B085C296A11DB11DF901DC
:100CC00085839683A783B087000080916201882383
:100CD000E1F31092620189819A8101969A83898356
:100CE00029813A818B819C812817390708F456CFD6
:100CF00052CFEE0FFF1F0024001C0BBE0790F69191
:080D0000E02D0994F894FFCFE7
:100D08000000000200000000DA01000000000100FD
:100D1800000020202020202020202020202020200B
:100D2800202020435331323042206973204C6567BC
:100D3800656E642E2E2E207761697420666F72208E
:100D48006974204441525921000100436F6E677253
:100D58006174756C6174696F6E7321007901840127
:020D68008F01F9
:00000001FF
