:100000000C948B000C94AA000C94AA000C94AA00E7
:100010000C94AA000C94AA000C94AA000C94AA00B8
:100020000C94AA000C94AA000C94AA000C94AA00A8
:100030000C94AA000C943A020C94AA000C94AA0006
:100040000C94AA000C94AA000C94AA000C94AA0088
:100050000C94AA000C94AA000C94AA000C94AA0078
:100060000C94AA000C94AA000C94AA000C94AA0068
:100070000C94AA000C94AA000C94AA000C94AA0058
:100080000C94AA000C94AA000C94AA000103440347
:100090004403440344034403440344034403440328
:1000A0004403440344034403440344034403440318
:1000B0004403440344034403440344034403440308
:1000C00044034403440344034403440344034403F8
:1000D00044033903440344034403440344034403F3
:1000E0004003440344034403440344033D03050322
:1000F00009030D031103150319031D032103250330
:1001000044034403440344034403440344032903D2
:100110002D033103350311241FBECFEFD0E4DEBF22
:10012000CDBF11E0A0E0B1E0E8E8F9E000E00BBFEE
:1001300002C007900D92A231B107D9F721E0A2E1E8
:10014000B1E001C01D92AF32B207E1F70E94850312
:100150000C94C2040C940000CF93DF9300D01F9244
:10016000CDB7DEB789837B836A8389818A3031F496
:100170008A819B81BC018DE00E94AC0080EC90E004
:10018000FC018081882F90E080729927892BB1F340
:1001900086EC90E02981FC01208380E090E00F90C4
:1001A0000F900F90DF91CF910895CF93DF9300D000
:1001B0001F92CDB7DEB789836A834B838B818823F7
:1001C00071F08A81282F30E081E090E002C0880F32
:1001D000991F2A95E2F7982F8981892B0EC08A8171
:1001E000282F30E081E090E002C0880F991F2A9507
:1001F000E2F7982F9095898189230F900F900F90A7
:10020000DF91CF910895CF93DF9300D0CDB7DEB7C4
:1002100089836A838A81282F30E081E090E002C0E0
:10022000880F991F2A95E2F7982F898189230F90CB
:100230000F90DF91CF910895CF93DF93CDB7DEB7C5
:1002400088E290E02FEEFC012083000086E290E03F
:10025000FC01808160E00E940301882311F481E3A6
:10026000B8C086E290E0FC01808161E00E94030159
:10027000882311F484E3ADC086E290E0FC01808124
:1002800062E00E940301882311F487E3A2C086E2A2
:1002900090E0FC01808163E00E940301882311F457
:1002A0008AE297C088E290E02FEDFC0120830000F5
:1002B00086E290E0FC01808160E00E9403018823D7
:1002C00011F482E386C086E290E0FC01808161E067
:1002D0000E940301882311F485E37BC086E290E04D
:1002E000FC01808162E00E940301882311F488E30D
:1002F00070C086E290E0FC01808163E00E9403010F
:10030000882311F480E365C088E290E02FEBFC01C4
:100310002083000086E290E0FC01808160E00E9482
:100320000301882311F483E354C086E290E0FC01CA
:10033000808161E00E940301882311F486E349C0B3
:1003400086E290E0FC01808162E00E940301882344
:1003500011F489E33EC086E290E0FC01808163E015
:100360000E940301882311F483E233C088E290E005
:100370002FE7FC012083000086E290E0FC018081F1
:1003800060E00E940301882311F481E422C086E228
:1003900090E0FC01808161E00E940301882311F458
:1003A00082E417C086E290E0FC01808162E00E9456
:1003B0000301882311F483E40CC086E290E0FC0181
:1003C000808163E00E940301882311F484E401C06A
:1003D00080E0DF91CF910895CF93DF93CDB7DEB763
:1003E00081E890E02BE0FC01208388E890E02DE795
:1003F00030E0FC01318320838FE690E022E0FC01B5
:10040000208384E890E0FC011182108280910E012B
:1004100090910F01A0911001B091110180931301EF
:1004200090931401A0931501B09316018FE590E00D
:100430002FE530E0F90120812068FC0120830000D5
:10044000DF91CF910895CF93DF93CDB7DEB781E8E9
:1004500090E0FC0110820000DF91CF910895CF93CE
:10046000DF93CDB7DEB781E0809312010000DF910A
:10047000CF9108951F920F9200905F000F92112468
:1004800000905B000F922F933F934F935F936F9376
:100490007F938F939F93AF93BF93EF93FF93CF93EC
:1004A000DF93CDB7DEB78091130190911401A09135
:1004B0001501B09116010197A109B10980931301AB
:1004C00090931401A0931501B0931601809113012C
:1004D00090911401A0911501B0911601892B8A2BDE
:1004E0008B2B91F40E942F0280910E0190910F01AD
:1004F000A0911001B0911101809313019093140108
:10050000A0931501B09316010000DF91CF91FF91E8
:10051000EF91BF91AF919F918F917F916F915F917B
:100520004F913F912F910F9000925B000F9000929E
:100530005F000F901F901895CF93DF9300D000D0ED
:10054000CDB7DEB769837A838B839C8389819A8157
:10055000AB81BC8180930E0190930F01A093100199
:10056000B093110180910E0190910F01A0911001A3
:10057000B09111018093130190931401A093150180
:10058000B093160100000F900F900F900F90DF9125
:10059000CF910895CF93DF9300D0CDB7DEB79A8384
:1005A000898389819A81009719F0019731F00AC0F7
:1005B00081E090E09A83898305C081E090E09A838E
:1005C0008983000089819A81009709F468C00197A6
:1005D00009F066C080911701882F90E0092E000C69
:1005E000AA0BBB0B40E050E024E430E0841B950BE9
:1005F0002817390708F448C08A5B9F4FFC010C9408
:10060000B9048FE18093180143C081E08093180101
:100610003FC082E0809318013BC083E080931801C3
:1006200037C084E08093180133C085E080931801BF
:100630002FC086E0809318012BC087E080931801BB
:1006400027C088E08093180123C089E080931801B7
:100650001FC08AE0809318011BC08BE080931801B3
:1006600017C08CE08093180113C08DE080931801AF
:100670000FC08EE0809318010BC01092180108C0C3
:100680008FE08093180104C08BE180931801000073
:1006900085E290E020911801FC01208301C0000058
:1006A00089819A810F900F90DF91CF910895CF9318
:1006B000DF9300D0CDB7DEB79A83898389819A8191
:1006C000009719F0019731F00AC081E090E09A8319
:1006D000898305C081E090E09A8389830000898145
:1006E0009A81009751F0019709F008C085E290E0E7
:1006F00020911801FC01208301C0000089819A81AA
:100700000F900F90DF91CF9108950F931F93CF9388
:10071000DF93CDB7DEB728970FB6F894DEBF0FBED4
:10072000CDBF1A82198284E290E02FEFFC01208372
:1007300085E290E0FC01108287E290E020EFFC016E
:10074000208388E290E02FE0FC01208389E191E0A2
:100750009E838D8384E291E098878F8382E090E08E
:100760009C838B831092190184E690E0A0E0B0E0B6
:1007700080931A0190931B01A0931C01B0931D015B
:1007800080911A0190911B01A0911C01B0911D0153
:1007900080931E0190931F01A0932001B09321012B
:1007A0008AEC92E0909323018093220189819A81BF
:1007B00001969A8389831092240184E690E0A0E058
:1007C000B0E08093250190932601A0932701B09378
:1007D00028018091250190912601A0912701B091D7
:1007E00028018093290190932A01A0932B01B093B3
:1007F0002C0187E593E090932E0180932D0164E610
:1008000070E080E090E00E949C020E94EC010E9457
:100810001C01809317011A821982A2C089819A81D2
:10082000880F991F9E012F5F3F4F820F931F0496E1
:10083000FC0180819181FC012581368147815085B1
:1008400089819A81880F991FBE016F5F7F4F860F44
:10085000971F0496FC0180819181FC018181928126
:10086000A381B481281739074A075B0708F445C0FC
:1008700089819A81880F991F9E012F5F3F4F820FB8
:10088000931F0496FC010081118189819A81880F50
:10089000991F9E012F5F3F4F820F931F0496FC010B
:1008A00080819181FC012185328589819A81880F1F
:1008B000991FAE014F5F5F4F840F951F0496FC0197
:1008C00080819181FC018081082E000C990BF90137
:1008D0000995F801808389819A81880F991F9E016B
:1008E0002F5F3F4F820F931F0496FC0180819181FF
:1008F000FC01158216821782108689819A81880FE1
:10090000991F9E012F5F3F4F820F931F0496FC019A
:100910002081318189819A81880F991FAE014F5FB3
:100920005F4F840F951F0496FC0180819181FC012B
:1009300085819681A781B085C296A11DB11DF9015F
:1009400085839683A783B087000080911201882356
:10095000E1F31092120189819A8101969A83898329
:1009600029813A818B819C812817390708F456CF59
:100970004ECFEE0FFF1F0024001C0BBE0790F69118
:08098000E02D0994F894FFCF6B
:100988000000000200000000AC00000000000100B0
:0209980000005D
:00000001FF
