:100000000C9446000C9465000C9465000C946500FB
:100010000C9465000C9465000C9465000C946500CC
:100020000C9465000C9465000C9465000C946500BC
:100030000C9465000C9423030C9465000C946500EB
:100040000C9465000C9465000C9465000C9465009C
:100050000C9465000C9465000C9465000C9465008C
:100060000C9465000C9465000C9465000C9465007C
:100070000C9465000C9465000C9465000C9465006C
:100080000C9465000C9465000C94650011241FBE4F
:10009000CFEFD0E4DEBFCDBF11E0A0E0B1E0E0E8FB
:1000A000FDE000E00BBF02C007900D92AC35B10738
:1000B000D9F721E0ACE5B1E001C01D92A73AB20743
:1000C000E1F70E945A050C94BE060C940000CF93F1
:1000D000DF93CDB7DEB781E00E948E000000DF9194
:1000E000CF910895CF93DF93CDB7DEB784E690E04C
:1000F0000E94650188E30E948E0086E00E948E00C7
:100100008FE00E948E0081E00E948E008AE090E0E5
:100110000E9465010000DF91CF910895CF93DF9396
:100120001F92CDB7DEB789838BE290E02BE230E0FF
:10013000F90120812F7BFC01208382E290E029815C
:10014000FC0120838BE290E02BE230E0F90120817A
:100150002068FC01208300008BE290E02BE230E07D
:10016000F90120812F77FC01208382E090E00E943A
:10017000650100000F90DF91CF910895CF93DF9339
:100180001F92CDB7DEB789838BE290E02BE230E09F
:10019000F90120812064FC01208382E290E0298122
:1001A000FC0120838BE290E02BE230E0F90120811A
:1001B0002068FC01208300008BE290E02BE230E01D
:1001C000F90120812F77FC01208381E090E00E94DB
:1001D000650100000F90DF91CF910895CF93DF93D9
:1001E0001F92CDB7DEB7898381E00E944E018BE27A
:1001F00090E02BE230E0F90120812064FC012083B3
:1002000082E290E02981FC0120838BE290E02BE2E6
:1002100030E0F90120812068FC01208300008BE29E
:1002200090E02BE230E0F90120812F77FC01208360
:1002300081E090E00E94650100000F90DF91CF9176
:100240000895CF93DF9300D000D0CDB7DEB78A8377
:100250007C836B830E9467008A81898311C08981B6
:1002600091E0980F99830E944E018B819C819C01A3
:100270002F5F3F4F3C832B83FC0180810E94BE0097
:100280008B819C81FC018081882349F700000F90BD
:100290000F900F900F90DF91CF910895CF93DF9340
:1002A0001F92CDB7DEB789838981813128F4898196
:1002B00081580E948E0004C0898181550E948E0061
:1002C00000000F90DF91CF910895CF93DF9300D07E
:1002D00000D000D0CDB7DEB79E838D831A821982FD
:1002E00013C01C821B8206C000008B819C8101967A
:1002F0009C838B838B819C8187309340ACF3898175
:100300009A8101969A83898329813A818D819E8180
:100310002817390734F3000026960FB6F894DEBF8D
:100320000FBECDBFDF91CF910895CF93DF9300D063
:100330001F92CDB7DEB789837B836A8389818A3038
:1003400031F48A819B81BC018DE00E94950180EC93
:1003500090E0FC018081882F90E080729927892BA2
:10036000B1F386EC90E02981FC01208380E090E0ED
:100370000F900F900F90DF91CF910895CF93DF935F
:1003800000D01F92CDB7DEB789836A834B838B8100
:10039000882371F08A81282F30E081E090E002C04C
:1003A000880F991F2A95E2F7982F8981892B0EC013
:1003B0008A81282F30E081E090E002C0880F991FE9
:1003C0002A95E2F7982F9095898189230F900F90B5
:1003D0000F90DF91CF910895CF93DF9300D0CDB7E9
:1003E000DEB789836A838A81282F30E081E090E03C
:1003F00002C0880F991F2A95E2F7982F89818923D7
:100400000F900F90DF91CF910895CF93DF93CDB7E9
:10041000DEB788E290E02FEEFC012083000086E248
:1004200090E0FC01808160E00E94EC01882311F4DF
:1004300081E3B8C086E290E0FC01808161E00E9427
:10044000EC01882311F484E3ADC086E290E0FC0166
:10045000808162E00E94EC01882311F487E3A2C04E
:1004600086E290E0FC01808163E00E94EC01882339
:1004700011F48AE297C088E290E02FEDFC0120831E
:10048000000086E290E0FC01808160E00E94EC01C7
:10049000882311F482E386C086E290E0FC0180812B
:1004A00061E00E94EC01882311F485E37BC086E2C1
:1004B00090E0FC01808162E00E94EC01882311F44D
:1004C00088E370C086E290E0FC01808163E00E94D6
:1004D000EC01882311F480E365C088E290E02FEB03
:1004E000FC012083000086E290E0FC01808160E056
:1004F0000E94EC01882311F483E354C086E290E06B
:10050000FC01808161E00E94EC01882311F486E304
:1005100049C086E290E0FC01808162E00E94EC012B
:10052000882311F489E33EC086E290E0FC018081DB
:1005300063E00E94EC01882311F483E233C088E277
:1005400090E02FE7FC012083000086E290E0FC01B0
:10055000808160E00E94EC01882311F481E422C0D4
:1005600086E290E0FC01808161E00E94EC0188233A
:1005700011F482E417C086E290E0FC01808162E021
:100580000E94EC01882311F483E40CC086E290E021
:10059000FC01808163E00E94EC01882311F484E473
:1005A00001C080E0DF91CF910895CF93DF93CDB765
:1005B000DEB781E890E02BE0FC01208388E890E042
:1005C0002DE730E0FC01318320838FE690E022E0CC
:1005D000FC01208384E890E0FC011182108280916C
:1005E0000E0190910F01A0911001B0911101809323
:1005F0005D0190935E01A0935F01B09360018FE570
:1006000090E02FE530E0F90120812068FC01208393
:100610000000DF91CF910895CF93DF93CDB7DEB780
:1006200081E890E0FC0110820000DF91CF910895F5
:10063000CF93DF93CDB7DEB781E080935C010000FC
:10064000DF91CF9108951F920F9200905F000F925B
:10065000112400905B000F922F933F934F935F9371
:100660006F937F938F939F93AF93BF93EF93FF937A
:10067000CF93DF93CDB7DEB780915D0190915E019E
:10068000A0915F01B09160010197A109B109809328
:100690005D0190935E01A0935F01B0936001809132
:1006A0005D0190915E01A0915F01B0916001892B85
:1006B0008A2B8B2B91F40E94180380910E0190914C
:1006C0000F01A0911001B091110180935D019093F1
:1006D0005E01A0935F01B09360010000DF91CF91B4
:1006E000FF91EF91BF91AF919F918F917F916F910A
:1006F0005F914F913F912F910F9000925B000F906F
:1007000000925F000F901F901895CF93DF9300D059
:1007100000D0CDB7DEB769837A838B839C838981D0
:100720009A81AB81BC8180930E0190930F01A093BD
:100730001001B093110180910E0190910F01A091D1
:100740001001B091110180935D0190935E01A0931F
:100750005F01B093600100000F900F900F900F9019
:10076000DF91CF910895CF93DF9300D000D0CDB724
:10077000DEB79C838B838B819C818230910529F12C
:10078000833091052CF4009749F0019761F053C034
:100790008330910561F10497E1F14DC081E090E073
:1007A0009C838B8348C083E290E0FC018081882F8A
:1007B00090E081709927892B19F482E090E002C0C3
:1007C00081E090E09C838B8336C083E290E0FC0163
:1007D0008081882F90E081709927892B19F482E01D
:1007E00090E002C083E090E09C838B8324C083E28E
:1007F00090E0FC018081882F90E081709927892BFF
:1008000019F484E090E002C083E090E09C838B8345
:1008100012C083E290E0FC018081882F90E081701B
:100820009927892B19F484E090E002C081E090E0E0
:100830009C838B8300008B819C818130910509F41E
:1008400067C08230910524F4892B09F463C067C026
:100850008230910509F460C0039709F060C080916F
:100860008501882309F05AC01A82198239C0809103
:100870008301282F30E089819A81820F931F8F7125
:100880009078992324F40197806E9F6F01968E5E75
:100890009E4FFC01208189819A818D599E4FFC01D8
:1008A000208389818F5F0E944E0180918301282FD0
:1008B00030E089819A81820F931F8F7190789923FC
:1008C00024F40197806E9F6F01968E5E9E4FFC010F
:1008D00080810E94BE0089819A8101969A838983D2
:1008E00089819A814F971CF2809133010E944E01B9
:1008F00080918301882F90E001968F7190789923E1
:1009000024F40197806E9F6F01968093830106C047
:10091000000005C0000003C0000001C000008B8182
:100920009C810F900F900F900F90DF91CF910895C1
:10093000CF93DF9300D0CDB7DEB79A8389838981C7
:100940009A818130910589F0823091051CF4892BC0
:1009500039F038C08230910559F1039771F132C0F6
:1009600081E090E09A8389832DC083E290E0FC01CE
:100970008081882F90E082709927892B29F482E06A
:1009800090E09A8389831EC083E290E0FC0180811D
:10099000882F90E084709927892B29F483E090E0D8
:1009A0009A8389830FC081E090E09A8389830AC08B
:1009B00081E090E09A83898305C081E090E09A838A
:1009C0008983000089819A8181309105A1F082306C
:1009D00091051CF4892B89F011C08230910519F022
:1009E000039729F00BC082E08093330107C082E1B6
:1009F0008093330103C0000001C0000000000F908D
:100A00000F90DF91CF910895CF93DF9300D0CDB7B2
:100A1000DEB79A83898389819A81009719F00197BB
:100A200031F041C081E090E09A8389833CC080919D
:100A30003301823069F480916401833249F481E0AA
:100A40008093850164E371E081E00E94210110C080
:100A500080913301823161F480917401833241F4D9
:100A600081E08093850164E371E081E00E942101CF
:100A700083E290E0FC018081882F90E081709927CB
:100A8000892B81F480918501813061F41092850178
:100A90000E94720085E591E08093640185E591E014
:100AA00080937401000089819A810F900F90DF91EB
:100AB000CF9108950F931F93CF93DF93CDB7DEB7F8
:100AC0002A970FB6F894DEBF0FBECDBF1A821982E7
:100AD00084E290E0FC01108285E290E02FEFFC01BF
:100AE000208387E290E020EFFC01208388E290E001
:100AF0002FE0FC01208381E290E02FEFFC012083B6
:100B000082E290E0FC0110828AE290E02FEFFC018B
:100B100020838BE290E0FC01108286E0E6E5F1E0C4
:100B2000DE01159601900D928A95E1F783E090E041
:100B30009C838B83109286018CE390E0A0E0B0E070
:100B40008093870190938801A0938901B0938A01D3
:100B50008091870190918801A0918901B0918A01CB
:100B600080938B0190938C01A0938D01B0938E01A3
:100B700083EB93E09093900180938F011092910109
:100B800084E190E0A0E0B0E0809392019093930123
:100B9000A0939401B093950180919201909193015B
:100BA000A0919401B0919501809396019093970143
:100BB000A0939801B093990188E994E090939B01E8
:100BC00080939A0110929C0184E190E0A0E0B0E053
:100BD00080939D0190939E01A0939F01B093A001EB
:100BE00080919D0190919E01A0919F01B091A001E3
:100BF0008093A1019093A201A093A301B093A401BB
:100C000084E095E09093A6018093A50164E170E0F3
:100C100080E090E00E9485030E94D5020E9472004D
:100C20001A821982A2C089819A81880F991F9E0118
:100C30002F5F3F4F820F931F0496FC0180819181AB
:100C4000FC01258136814781508589819A81880FF1
:100C5000991FBE016F5F7F4F860F971F0496FC019F
:100C600080819181FC0181819281A381B4812817C7
:100C700039074A075B0708F445C089819A81880FC4
:100C8000991F9E012F5F3F4F820F931F0496FC0117
:100C90000081118189819A81880F991F9E012F5FA0
:100CA0003F4F820F931F0496FC0180819181FC01CC
:100CB0002185328589819A81880F991FAE014F5F06
:100CC0005F4F840F951F0496FC0180819181FC0188
:100CD0008081082E000C990BF9010995F801808399
:100CE00089819A81880F991F9E012F5F3F4F820F44
:100CF000931F0496FC0180819181FC01158216826C
:100D00001782108689819A81880F991F9E012F5F13
:100D10003F4F820F931F0496FC012081318189810E
:100D20009A81880F991FAE014F5F5F4F840F951F07
:100D30000496FC0180819181FC0185819681A781C7
:100D4000B0854496A11DB11DF90185839683A783C3
:100D5000B087000080915C018823E1F310925C0170
:100D600089819A8101969A83898329813A818B812D
:100D70009C812817390708F456CF52CFF894FFCF3B
:100D800000000002000000009501000000000100CA
:100D90000000202020202020232020202020202090
:100DA0002020202020202020202020202023202040
:100DB00020200002596F75204C6F73652020202081
:100DC0002020202020202020202020202020202023
:0C0DD000202020200000860191019C01E1
:00000001FF
