:100000000C948B000C94AA000C94AA000C94AA00E7
:100010000C94AA000C94AA000C94AA000C94AA00B8
:100020000C94AA000C94AA000C94AA000C94AA00A8
:100030000C94AA000C9468030C94AA000C94AA00D7
:100040000C94AA000C94AA000C94AA000C94AA0088
:100050000C94AA000C94AA000C94AA000C94AA0078
:100060000C94AA000C94AA000C94AA000C94AA0068
:100070000C94AA000C94AA000C94AA000C94AA0058
:100080000C94AA000C94AA000C94AA0033047604E1
:100090007604760476047604760476047604760490
:1000A0007604760476047604760476047604760480
:1000B0007604760476047604760476047604760470
:1000C0007604760476047604760476047604760460
:1000D00076046B047604760476047604760476045B
:1000E0007204760476047604760476046F0437048A
:1000F0003B043F04430447044B044F045304570498
:1001000076047604760476047604760476045B043A
:100110005F046304670411241FBECFEFD0E4DEBF89
:10012000CDBF11E0A0E0B1E0E6EEFCE000E00BBFE7
:1001300002C007900D92A035B107D9F721E0A0E5E4
:10014000B1E001C01D92A938B207E1F70E94F504A1
:100150000C9471060C940000CF93DF93CDB7DEB7FB
:1001600081E00E94D3000000DF91CF910895CF93EA
:10017000DF93CDB7DEB784E690E00E94AA0188E362
:100180000E94D30086E00E94D3008FE00E94D3003B
:1001900081E00E94D3008AE090E00E94AA01000062
:1001A000DF91CF910895CF93DF931F92CDB7DEB744
:1001B00089838BE290E02BE230E0F90120812F7BF4
:1001C000FC01208382E290E02981FC0120838BE204
:1001D00090E02BE230E0F90120812068FC012083CF
:1001E00000008BE290E02BE230E0F90120812F77D4
:1001F000FC01208382E090E00E94AA0100000F90A1
:10020000DF91CF910895CF93DF931F92CDB7DEB7E3
:1002100089838BE290E02BE230E0F90120812064B9
:10022000FC01208382E290E02981FC0120838BE2A3
:1002300090E02BE230E0F90120812068FC0120836E
:1002400000008BE290E02BE230E0F90120812F7773
:10025000FC01208381E090E00E94AA0100000F9041
:10026000DF91CF910895CF93DF931F92CDB7DEB783
:10027000898381E00E9493018BE290E02BE230E0E1
:10028000F90120812064FC01208382E290E0298131
:10029000FC0120838BE290E02BE230E0F901208129
:1002A0002068FC01208300008BE290E02BE230E02C
:1002B000F90120812F77FC01208381E090E00E94EA
:1002C000AA0100000F90DF91CF910895CF93DF93A3
:1002D00000D000D0CDB7DEB78A837C836B830E94C9
:1002E000AC008A81898311C0898191E0980F99833C
:1002F0000E9493018B819C819C012F5F3F4F3C8327
:100300002B83FC0180810E9403018B819C81FC0175
:100310008081882349F700000F900F900F900F9075
:10032000DF91CF910895CF93DF931F92CDB7DEB7C2
:1003300089838981813128F4898181580E94D30081
:1003400004C0898181550E94D30000000F90DF9185
:10035000CF910895CF93DF9300D000D000D0CDB7D8
:10036000DEB79E838D831A82198213C01C821B8282
:1003700006C000008B819C8101969C838B838B81BE
:100380009C8187309340ACF389819A8101969A834E
:10039000898329813A818D819E812817390734F319
:1003A000000026960FB6F894DEBF0FBECDBFDF91DA
:1003B000CF910895CF93DF9300D01F92CDB7DEB7D2
:1003C00089837B836A8389818A3031F48A819B8126
:1003D000BC018DE00E94DA0180EC90E0FC0180819C
:1003E000882F90E080729927892BB1F386EC90E0FA
:1003F0002981FC01208380E090E00F900F900F9006
:10040000DF91CF910895CF93DF9300D01F92CDB7A6
:10041000DEB789836A834B838B81882371F08A815D
:10042000282F30E081E090E002C0880F991F2A95C4
:10043000E2F7982F8981892B0EC08A81282F30E01E
:1004400081E090E002C0880F991F2A95E2F7982F6B
:100450009095898189230F900F900F90DF91CF9114
:100460000895CF93DF9300D0CDB7DEB789836A8339
:100470008A81282F30E081E090E002C0880F991F28
:100480002A95E2F7982F898189230F900F90DF91A9
:10049000CF910895CF93DF93CDB7DEB788E290E098
:1004A0002FEEFC012083000086E290E0FC018081B9
:1004B00060E00E943102882311F481E3B8C086E233
:1004C00090E0FC01808161E00E943102882311F4F8
:1004D00084E3ADC086E290E0FC01808162E00E948E
:1004E0003102882311F487E3A2C086E290E0FC0188
:1004F000808163E00E943102882311F48AE297C070
:1005000088E290E02FEDFC012083000086E290E07D
:10051000FC01808160E00E943102882311F482E3B3
:1005200086C086E290E0FC01808161E00E94310299
:10053000882311F485E37BC086E290E0FC01808192
:1005400062E00E943102882311F488E370C086E2E1
:1005500090E0FC01808163E00E943102882311F465
:1005600080E365C088E290E02FEBFC01208300006F
:1005700086E290E0FC01808160E00E9431028823E5
:1005800011F483E354C086E290E0FC01808161E0D5
:100590000E943102882311F486E349C086E290E08C
:1005A000FC01808162E00E943102882311F489E31A
:1005B0003EC086E290E0FC01808163E00E9431024F
:1005C000882311F483E233C088E290E02FE7FC0136
:1005D0002083000086E290E0FC01808160E00E94C0
:1005E0003102882311F481E422C086E290E0FC010C
:1005F000808161E00E943102882311F482E417C0F7
:1006000086E290E0FC01808162E00E943102882352
:1006100011F483E40CC086E290E0FC01808163E089
:100620000E943102882311F484E401C080E0DF914C
:10063000CF910895CF93DF93CDB7DEB781E890E0F7
:100640002BE0FC01208388E890E02DE730E0FC01FE
:10065000318320838FE690E022E0FC01208384E850
:1006600090E0FC011182108280910E0190910F01A7
:10067000A0911001B091110180935101909352010A
:10068000A0935301B09354018FE590E02FE530E043
:10069000F90120812068FC0120830000DF91CF91C7
:1006A0000895CF93DF93CDB7DEB781E890E0FC01EA
:1006B00010820000DF91CF910895CF93DF93CDB7E3
:1006C000DEB781E0809350010000DF91CF91089563
:1006D0001F920F9200905F000F92112400905B0018
:1006E0000F922F933F934F935F936F937F938F93CB
:1006F0009F93AF93BF93EF93FF93CF93DF93CDB7C8
:10070000DEB78091510190915201A0915301B091B7
:1007100054010197A109B1098093510190935201AD
:10072000A0935301B09354018091510190915201D3
:10073000A0915301B0915401892B8A2B8B2B91F4FA
:100740000E945D0380910E0190910F01A091100114
:10075000B09111018093510190935201A0935301E4
:10076000B09354010000DF91CF91FF91EF91BF91C1
:10077000AF919F918F917F916F915F914F913F9139
:100780002F910F9000925B000F9000925F000F90EE
:100790001F901895CF93DF9300D000D0CDB7DEB770
:1007A00069837A838B839C8389819A81AB81BC81A5
:1007B00080930E0190930F01A0931001B09311014B
:1007C00080910E0190910F01A0911001B091110143
:1007D0008093510190935201A0935301B09354011F
:1007E00000000F900F900F900F90DF91CF91089520
:1007F000CF93DF9300D0CDB7DEB79A8389830E9471
:100800004A028093550189819A81009719F00197D6
:1008100031F00AC081E090E09A83898305C081E0CD
:1008200090E09A838983000089819A81009709F476
:1008300068C0019709F066C080915501882F90E04B
:10084000092E000CAA0BBB0B40E050E024E430E082
:10085000841B950B2817390708F448C08A5B9F4F03
:10086000FC010C9468068FE18093560143C081E03F
:10087000809356013FC082E0809356013BC083E0E5
:100880008093560137C084E08093560133C085E0E1
:10089000809356012FC086E0809356012BC087E0DD
:1008A0008093560127C088E08093560123C089E0D9
:1008B000809356011FC08AE0809356011BC08BE0D5
:1008C0008093560117C08CE08093560113C08DE0D1
:1008D000809356010FC08EE0809356010BC010929A
:1008E000560108C08FE08093560104C08BE18093CD
:1008F0005601000085E290E020915601FC01208322
:1009000001C0000089819A810F900F90DF91CF91F3
:100910000895CF93DF9300D0CDB7DEB79A83898354
:1009200089819A818130910559F082309105A1F039
:10093000892B09F016C081E090E09A83898311C069
:10094000809156018F3119F481E090E002C082E07D
:1009500090E09A83898305C081E090E09A8389833F
:10096000000089819A818130910581F08230910562
:1009700019F0892B69F00DC069E471E081E00E94F3
:100980006601809155010E94030103C0000001C06F
:10099000000089819A810F900F90DF91CF91089587
:1009A000CF93DF9300D0CDB7DEB79A838983898157
:1009B0009A81009719F0019731F00AC081E090E028
:1009C0009A83898305C081E090E09A83898300003F
:1009D00089819A81892B09F001C0000089819A815F
:1009E0000F900F90DF91CF9108950F931F93CF93A6
:1009F000DF93CDB7DEB72A970FB6F894DEBF0FBEF0
:100A0000CDBF1A82198284E290E02FEFFC0120838F
:100A100085E290E0FC01108287E290E020EFFC018B
:100A2000208388E290E02FE0FC01208381E290E0C7
:100A30002FEFFC01208382E290E0FC0110828AE229
:100A400090E02FEFFC0120838BE290E0FC0110820C
:100A500086E0EAE4F1E0DE01159601900D928A95B8
:100A6000E1F783E090E09C838B831092680188E239
:100A700090E0A0E0B0E08093690190936A01A093B8
:100A80006B01B0936C018091690190916A01A09112
:100A90006B01B0916C0180936D0190936E01A093F6
:100AA0006F01B093700188EF93E09093720180938F
:100AB000710189819A8101969A83898310927301C9
:100AC00088E290E0A0E0B0E080937401909375011B
:100AD000A0937601B0937701809174019091750194
:100AE000A0917601B091770180937801909379017C
:100AF000A0937A01B0937B0180ED94E090937D0107
:100B000080937C0189819A8101969A8389831092CE
:100B10007E0188E290E0A0E0B0E080937F019093B6
:100B20008001A0938101B093820180917F01909117
:100B30008001A0918101B091820180938301909303
:100B40008401A0938501B093860189E894E0909395
:100B500088018093870164E170E080E090E00E946A
:100B6000CA030E941A030E94B70069E471E081E0A1
:100B70000E9466011A821982A2C089819A81880F17
:100B8000991F9E012F5F3F4F820F931F0496FC0118
:100B900080819181FC012581368147815085898141
:100BA0009A81880F991FBE016F5F7F4F860F971F35
:100BB0000496FC0180819181FC0181819281A38155
:100BC000B481281739074A075B0708F445C08981B3
:100BD0009A81880F991F9E012F5F3F4F820F931FAD
:100BE0000496FC010081118189819A81880F991FE7
:100BF0009E012F5F3F4F820F931F0496FC0180815F
:100C00009181FC012185328589819A81880F991F04
:100C1000AE014F5F5F4F840F951F0496FC018081EA
:100C20009181FC018081082E000C990BF901099536
:100C3000F801808389819A81880F991F9E012F5F17
:100C40003F4F820F931F0496FC0180819181FC012C
:100C5000158216821782108689819A81880F991FC2
:100C60009E012F5F3F4F820F931F0496FC0120814E
:100C7000318189819A81880F991FAE014F5F5F4F43
:100C8000840F951F0496FC0180819181FC01858170
:100C90009681A781B085C296A11DB11DF9018583FA
:100CA0009683A783B0870000809150018823E1F3E9
:100CB0001092500189819A8101969A8389832981B2
:100CC0003A818B819C812817390708F456CF52CF7F
:100CD000EE0FFF1F0024001C0BBE0790F691E02DC5
:060CE0000994F894FFCF17
:100CE6000000000200000000DA0100000000010020
:100CF600000020202020202020202020202020202E
:100D0600202020435331323042206973204C6567DE
:100D1600656E642E2E2E207761697420666F7220B0
:100D260069742044415259210000680173017E0113
:00000001FF
